{
	"contract_security/S04_AuthManage.sol": {
		"AuthManage": {
			"abi": [
				{
					"inputs": [],
					"stateMutability": "nonpayable",
					"type": "constructor"
				},
				{
					"anonymous": false,
					"inputs": [
						{
							"indexed": true,
							"internalType": "address",
							"name": "owner",
							"type": "address"
						},
						{
							"indexed": true,
							"internalType": "address",
							"name": "spender",
							"type": "address"
						},
						{
							"indexed": false,
							"internalType": "uint256",
							"name": "value",
							"type": "uint256"
						}
					],
					"name": "Approval",
					"type": "event"
				},
				{
					"anonymous": false,
					"inputs": [
						{
							"indexed": true,
							"internalType": "address",
							"name": "previousOwner",
							"type": "address"
						},
						{
							"indexed": true,
							"internalType": "address",
							"name": "newOwner",
							"type": "address"
						}
					],
					"name": "OwnershipTransferred",
					"type": "event"
				},
				{
					"anonymous": false,
					"inputs": [
						{
							"indexed": true,
							"internalType": "address",
							"name": "from",
							"type": "address"
						},
						{
							"indexed": true,
							"internalType": "address",
							"name": "to",
							"type": "address"
						},
						{
							"indexed": false,
							"internalType": "uint256",
							"name": "value",
							"type": "uint256"
						}
					],
					"name": "Transfer",
					"type": "event"
				},
				{
					"inputs": [
						{
							"internalType": "address",
							"name": "owner",
							"type": "address"
						},
						{
							"internalType": "address",
							"name": "spender",
							"type": "address"
						}
					],
					"name": "allowance",
					"outputs": [
						{
							"internalType": "uint256",
							"name": "",
							"type": "uint256"
						}
					],
					"stateMutability": "view",
					"type": "function"
				},
				{
					"inputs": [
						{
							"internalType": "address",
							"name": "spender",
							"type": "address"
						},
						{
							"internalType": "uint256",
							"name": "amount",
							"type": "uint256"
						}
					],
					"name": "approve",
					"outputs": [
						{
							"internalType": "bool",
							"name": "",
							"type": "bool"
						}
					],
					"stateMutability": "nonpayable",
					"type": "function"
				},
				{
					"inputs": [
						{
							"internalType": "address",
							"name": "account",
							"type": "address"
						},
						{
							"internalType": "uint256",
							"name": "amount",
							"type": "uint256"
						}
					],
					"name": "badBurn",
					"outputs": [],
					"stateMutability": "nonpayable",
					"type": "function"
				},
				{
					"inputs": [
						{
							"internalType": "address",
							"name": "to",
							"type": "address"
						},
						{
							"internalType": "uint256",
							"name": "amount",
							"type": "uint256"
						}
					],
					"name": "badMint",
					"outputs": [],
					"stateMutability": "nonpayable",
					"type": "function"
				},
				{
					"inputs": [
						{
							"internalType": "address",
							"name": "account",
							"type": "address"
						}
					],
					"name": "balanceOf",
					"outputs": [
						{
							"internalType": "uint256",
							"name": "",
							"type": "uint256"
						}
					],
					"stateMutability": "view",
					"type": "function"
				},
				{
					"inputs": [],
					"name": "decimals",
					"outputs": [
						{
							"internalType": "uint8",
							"name": "",
							"type": "uint8"
						}
					],
					"stateMutability": "view",
					"type": "function"
				},
				{
					"inputs": [
						{
							"internalType": "address",
							"name": "spender",
							"type": "address"
						},
						{
							"internalType": "uint256",
							"name": "subtractedValue",
							"type": "uint256"
						}
					],
					"name": "decreaseAllowance",
					"outputs": [
						{
							"internalType": "bool",
							"name": "",
							"type": "bool"
						}
					],
					"stateMutability": "nonpayable",
					"type": "function"
				},
				{
					"inputs": [
						{
							"internalType": "address",
							"name": "account",
							"type": "address"
						},
						{
							"internalType": "uint256",
							"name": "amount",
							"type": "uint256"
						}
					],
					"name": "goodBurn",
					"outputs": [],
					"stateMutability": "nonpayable",
					"type": "function"
				},
				{
					"inputs": [
						{
							"internalType": "address",
							"name": "to",
							"type": "address"
						},
						{
							"internalType": "uint256",
							"name": "amount",
							"type": "uint256"
						}
					],
					"name": "goodMint",
					"outputs": [],
					"stateMutability": "nonpayable",
					"type": "function"
				},
				{
					"inputs": [
						{
							"internalType": "address",
							"name": "spender",
							"type": "address"
						},
						{
							"internalType": "uint256",
							"name": "addedValue",
							"type": "uint256"
						}
					],
					"name": "increaseAllowance",
					"outputs": [
						{
							"internalType": "bool",
							"name": "",
							"type": "bool"
						}
					],
					"stateMutability": "nonpayable",
					"type": "function"
				},
				{
					"inputs": [],
					"name": "name",
					"outputs": [
						{
							"internalType": "string",
							"name": "",
							"type": "string"
						}
					],
					"stateMutability": "view",
					"type": "function"
				},
				{
					"inputs": [],
					"name": "owner",
					"outputs": [
						{
							"internalType": "address",
							"name": "",
							"type": "address"
						}
					],
					"stateMutability": "view",
					"type": "function"
				},
				{
					"inputs": [],
					"name": "renounceOwnership",
					"outputs": [],
					"stateMutability": "nonpayable",
					"type": "function"
				},
				{
					"inputs": [],
					"name": "symbol",
					"outputs": [
						{
							"internalType": "string",
							"name": "",
							"type": "string"
						}
					],
					"stateMutability": "view",
					"type": "function"
				},
				{
					"inputs": [],
					"name": "totalSupply",
					"outputs": [
						{
							"internalType": "uint256",
							"name": "",
							"type": "uint256"
						}
					],
					"stateMutability": "view",
					"type": "function"
				},
				{
					"inputs": [
						{
							"internalType": "address",
							"name": "to",
							"type": "address"
						},
						{
							"internalType": "uint256",
							"name": "amount",
							"type": "uint256"
						}
					],
					"name": "transfer",
					"outputs": [
						{
							"internalType": "bool",
							"name": "",
							"type": "bool"
						}
					],
					"stateMutability": "nonpayable",
					"type": "function"
				},
				{
					"inputs": [
						{
							"internalType": "address",
							"name": "from",
							"type": "address"
						},
						{
							"internalType": "address",
							"name": "to",
							"type": "address"
						},
						{
							"internalType": "uint256",
							"name": "amount",
							"type": "uint256"
						}
					],
					"name": "transferFrom",
					"outputs": [
						{
							"internalType": "bool",
							"name": "",
							"type": "bool"
						}
					],
					"stateMutability": "nonpayable",
					"type": "function"
				},
				{
					"inputs": [
						{
							"internalType": "address",
							"name": "newOwner",
							"type": "address"
						}
					],
					"name": "transferOwnership",
					"outputs": [],
					"stateMutability": "nonpayable",
					"type": "function"
				}
			],
			"devdoc": {
				"kind": "dev",
				"methods": {
					"allowance(address,address)": {
						"details": "See {IERC20-allowance}."
					},
					"approve(address,uint256)": {
						"details": "See {IERC20-approve}. NOTE: If `amount` is the maximum `uint256`, the allowance is not updated on `transferFrom`. This is semantically equivalent to an infinite approval. Requirements: - `spender` cannot be the zero address."
					},
					"balanceOf(address)": {
						"details": "See {IERC20-balanceOf}."
					},
					"decimals()": {
						"details": "Returns the number of decimals used to get its user representation. For example, if `decimals` equals `2`, a balance of `505` tokens should be displayed to a user as `5.05` (`505 / 10 ** 2`). Tokens usually opt for a value of 18, imitating the relationship between Ether and Wei. This is the value {ERC20} uses, unless this function is overridden; NOTE: This information is only used for _display_ purposes: it in no way affects any of the arithmetic of the contract, including {IERC20-balanceOf} and {IERC20-transfer}."
					},
					"decreaseAllowance(address,uint256)": {
						"details": "Atomically decreases the allowance granted to `spender` by the caller. This is an alternative to {approve} that can be used as a mitigation for problems described in {IERC20-approve}. Emits an {Approval} event indicating the updated allowance. Requirements: - `spender` cannot be the zero address. - `spender` must have allowance for the caller of at least `subtractedValue`."
					},
					"increaseAllowance(address,uint256)": {
						"details": "Atomically increases the allowance granted to `spender` by the caller. This is an alternative to {approve} that can be used as a mitigation for problems described in {IERC20-approve}. Emits an {Approval} event indicating the updated allowance. Requirements: - `spender` cannot be the zero address."
					},
					"name()": {
						"details": "Returns the name of the token."
					},
					"owner()": {
						"details": "Returns the address of the current owner."
					},
					"renounceOwnership()": {
						"details": "Leaves the contract without owner. It will not be possible to call `onlyOwner` functions anymore. Can only be called by the current owner. NOTE: Renouncing ownership will leave the contract without an owner, thereby removing any functionality that is only available to the owner."
					},
					"symbol()": {
						"details": "Returns the symbol of the token, usually a shorter version of the name."
					},
					"totalSupply()": {
						"details": "See {IERC20-totalSupply}."
					},
					"transfer(address,uint256)": {
						"details": "See {IERC20-transfer}. Requirements: - `to` cannot be the zero address. - the caller must have a balance of at least `amount`."
					},
					"transferFrom(address,address,uint256)": {
						"details": "See {IERC20-transferFrom}. Emits an {Approval} event indicating the updated allowance. This is not required by the EIP. See the note at the beginning of {ERC20}. NOTE: Does not update the allowance if the current allowance is the maximum `uint256`. Requirements: - `from` and `to` cannot be the zero address. - `from` must have a balance of at least `amount`. - the caller must have allowance for ``from``'s tokens of at least `amount`."
					},
					"transferOwnership(address)": {
						"details": "Transfers ownership of the contract to a new account (`newOwner`). Can only be called by the current owner."
					}
				},
				"version": 1
			},
			"evm": {
				"assembly": "    /* \"contract_security/S04_AuthManage.sol\":167:1013  contract AuthManage is ERC20, Ownable {... */\n  mstore(0x40, 0x80)\n    /* \"contract_security/S04_AuthManage.sol\":211:255  constructor() ERC20(\"Wrong Access\", \"WA\") {} */\n  callvalue\n  dup1\n  iszero\n  tag_1\n  jumpi\n  0x00\n  dup1\n  revert\ntag_1:\n  pop\n    /* \"@openzeppelin/contracts/token/ERC20/ERC20.sol\":1976:2089  constructor(string memory name_, string memory symbol_) {... */\n  mload(0x40)\n  dup1\n  0x40\n  add\n  0x40\n  mstore\n  dup1\n  0x0c\n  dup2\n  mstore\n  0x20\n  add\n  0x57726f6e67204163636573730000000000000000000000000000000000000000\n  dup2\n  mstore\n  pop\n  mload(0x40)\n  dup1\n  0x40\n  add\n  0x40\n  mstore\n  dup1\n  0x02\n  dup2\n  mstore\n  0x20\n  add\n  0x5741000000000000000000000000000000000000000000000000000000000000\n  dup2\n  mstore\n  pop\n    /* \"@openzeppelin/contracts/token/ERC20/ERC20.sol\":2050:2055  name_ */\n  dup2\n    /* \"@openzeppelin/contracts/token/ERC20/ERC20.sol\":2042:2047  _name */\n  0x03\n    /* \"@openzeppelin/contracts/token/ERC20/ERC20.sol\":2042:2055  _name = name_ */\n  swap1\n  dup1\n  mload\n  swap1\n  0x20\n  add\n  swap1\n  tag_6\n  swap3\n  swap2\n  swap1\n  tag_7\n  jump\t// in\ntag_6:\n  pop\n    /* \"@openzeppelin/contracts/token/ERC20/ERC20.sol\":2075:2082  symbol_ */\n  dup1\n    /* \"@openzeppelin/contracts/token/ERC20/ERC20.sol\":2065:2072  _symbol */\n  0x04\n    /* \"@openzeppelin/contracts/token/ERC20/ERC20.sol\":2065:2082  _symbol = symbol_ */\n  swap1\n  dup1\n  mload\n  swap1\n  0x20\n  add\n  swap1\n  tag_8\n  swap3\n  swap2\n  swap1\n  tag_7\n  jump\t// in\ntag_8:\n  pop\n    /* \"@openzeppelin/contracts/token/ERC20/ERC20.sol\":1976:2089  constructor(string memory name_, string memory symbol_) {... */\n  pop\n  pop\n    /* \"@openzeppelin/contracts/access/Ownable.sol\":936:968  _transferOwnership(_msgSender()) */\n  tag_10\n    /* \"@openzeppelin/contracts/access/Ownable.sol\":955:967  _msgSender() */\n  tag_11\n    /* \"@openzeppelin/contracts/access/Ownable.sol\":955:965  _msgSender */\n  shl(0x20, tag_12)\n    /* \"@openzeppelin/contracts/access/Ownable.sol\":955:967  _msgSender() */\n  0x20\n  shr\n  jump\t// in\ntag_11:\n    /* \"@openzeppelin/contracts/access/Ownable.sol\":936:954  _transferOwnership */\n  shl(0x20, tag_13)\n    /* \"@openzeppelin/contracts/access/Ownable.sol\":936:968  _transferOwnership(_msgSender()) */\n  0x20\n  shr\n  jump\t// in\ntag_10:\n    /* \"contract_security/S04_AuthManage.sol\":167:1013  contract AuthManage is ERC20, Ownable {... */\n  jump(tag_15)\n    /* \"@openzeppelin/contracts/utils/Context.sol\":640:736  function _msgSender() internal view virtual returns (address) {... */\ntag_12:\n    /* \"@openzeppelin/contracts/utils/Context.sol\":693:700  address */\n  0x00\n    /* \"@openzeppelin/contracts/utils/Context.sol\":719:729  msg.sender */\n  caller\n    /* \"@openzeppelin/contracts/utils/Context.sol\":712:729  return msg.sender */\n  swap1\n  pop\n    /* \"@openzeppelin/contracts/utils/Context.sol\":640:736  function _msgSender() internal view virtual returns (address) {... */\n  swap1\n  jump\t// out\n    /* \"@openzeppelin/contracts/access/Ownable.sol\":2433:2620  function _transferOwnership(address newOwner) internal virtual {... */\ntag_13:\n    /* \"@openzeppelin/contracts/access/Ownable.sol\":2506:2522  address oldOwner */\n  0x00\n    /* \"@openzeppelin/contracts/access/Ownable.sol\":2525:2531  _owner */\n  0x05\n  0x00\n  swap1\n  sload\n  swap1\n  0x0100\n  exp\n  swap1\n  div\n  0xffffffffffffffffffffffffffffffffffffffff\n  and\n    /* \"@openzeppelin/contracts/access/Ownable.sol\":2506:2531  address oldOwner = _owner */\n  swap1\n  pop\n    /* \"@openzeppelin/contracts/access/Ownable.sol\":2550:2558  newOwner */\n  dup2\n    /* \"@openzeppelin/contracts/access/Ownable.sol\":2541:2547  _owner */\n  0x05\n  0x00\n    /* \"@openzeppelin/contracts/access/Ownable.sol\":2541:2558  _owner = newOwner */\n  0x0100\n  exp\n  dup2\n  sload\n  dup2\n  0xffffffffffffffffffffffffffffffffffffffff\n  mul\n  not\n  and\n  swap1\n  dup4\n  0xffffffffffffffffffffffffffffffffffffffff\n  and\n  mul\n  or\n  swap1\n  sstore\n  pop\n    /* \"@openzeppelin/contracts/access/Ownable.sol\":2604:2612  newOwner */\n  dup2\n    /* \"@openzeppelin/contracts/access/Ownable.sol\":2573:2613  OwnershipTransferred(oldOwner, newOwner) */\n  0xffffffffffffffffffffffffffffffffffffffff\n  and\n    /* \"@openzeppelin/contracts/access/Ownable.sol\":2594:2602  oldOwner */\n  dup2\n    /* \"@openzeppelin/contracts/access/Ownable.sol\":2573:2613  OwnershipTransferred(oldOwner, newOwner) */\n  0xffffffffffffffffffffffffffffffffffffffff\n  and\n  0x8be0079c531659141344cd1fd0a4f28419497f9722a3daafe3b4186f6b6457e0\n  mload(0x40)\n  mload(0x40)\n  dup1\n  swap2\n  sub\n  swap1\n  log3\n    /* \"@openzeppelin/contracts/access/Ownable.sol\":2496:2620  {... */\n  pop\n    /* \"@openzeppelin/contracts/access/Ownable.sol\":2433:2620  function _transferOwnership(address newOwner) internal virtual {... */\n  pop\n  jump\t// out\n    /* \"contract_security/S04_AuthManage.sol\":167:1013  contract AuthManage is ERC20, Ownable {... */\ntag_7:\n  dup3\n  dup1\n  sload\n  tag_18\n  swap1\n  tag_19\n  jump\t// in\ntag_18:\n  swap1\n  0x00\n  mstore\n  keccak256(0x00, 0x20)\n  swap1\n  0x1f\n  add\n  0x20\n  swap1\n  div\n  dup2\n  add\n  swap3\n  dup3\n  tag_21\n  jumpi\n  0x00\n  dup6\n  sstore\n  jump(tag_20)\ntag_21:\n  dup3\n  0x1f\n  lt\n  tag_22\n  jumpi\n  dup1\n  mload\n  not(0xff)\n  and\n  dup4\n  dup1\n  add\n  or\n  dup6\n  sstore\n  jump(tag_20)\ntag_22:\n  dup3\n  dup1\n  add\n  0x01\n  add\n  dup6\n  sstore\n  dup3\n  iszero\n  tag_20\n  jumpi\n  swap2\n  dup3\n  add\ntag_23:\n  dup3\n  dup2\n  gt\n  iszero\n  tag_24\n  jumpi\n  dup3\n  mload\n  dup3\n  sstore\n  swap2\n  0x20\n  add\n  swap2\n  swap1\n  0x01\n  add\n  swap1\n  jump(tag_23)\ntag_24:\ntag_20:\n  pop\n  swap1\n  pop\n  tag_25\n  swap2\n  swap1\n  tag_26\n  jump\t// in\ntag_25:\n  pop\n  swap1\n  jump\t// out\ntag_26:\ntag_27:\n  dup1\n  dup3\n  gt\n  iszero\n  tag_28\n  jumpi\n  0x00\n  dup2\n  0x00\n  swap1\n  sstore\n  pop\n  0x01\n  add\n  jump(tag_27)\ntag_28:\n  pop\n  swap1\n  jump\t// out\n    /* \"#utility.yul\":7:327   */\ntag_19:\n    /* \"#utility.yul\":51:57   */\n  0x00\n    /* \"#utility.yul\":88:89   */\n  0x02\n    /* \"#utility.yul\":82:86   */\n  dup3\n    /* \"#utility.yul\":78:90   */\n  div\n    /* \"#utility.yul\":68:90   */\n  swap1\n  pop\n    /* \"#utility.yul\":135:136   */\n  0x01\n    /* \"#utility.yul\":129:133   */\n  dup3\n    /* \"#utility.yul\":125:137   */\n  and\n    /* \"#utility.yul\":156:174   */\n  dup1\n    /* \"#utility.yul\":146:227   */\n  tag_31\n  jumpi\n    /* \"#utility.yul\":212:216   */\n  0x7f\n    /* \"#utility.yul\":204:210   */\n  dup3\n    /* \"#utility.yul\":200:217   */\n  and\n    /* \"#utility.yul\":190:217   */\n  swap2\n  pop\n    /* \"#utility.yul\":146:227   */\ntag_31:\n    /* \"#utility.yul\":274:276   */\n  0x20\n    /* \"#utility.yul\":266:272   */\n  dup3\n    /* \"#utility.yul\":263:277   */\n  lt\n    /* \"#utility.yul\":243:261   */\n  dup2\n    /* \"#utility.yul\":240:278   */\n  eq\n    /* \"#utility.yul\":237:321   */\n  iszero\n  tag_32\n  jumpi\n    /* \"#utility.yul\":293:311   */\n  tag_33\n  tag_34\n  jump\t// in\ntag_33:\n    /* \"#utility.yul\":237:321   */\ntag_32:\n    /* \"#utility.yul\":58:327   */\n  pop\n    /* \"#utility.yul\":7:327   */\n  swap2\n  swap1\n  pop\n  jump\t// out\n    /* \"#utility.yul\":333:513   */\ntag_34:\n    /* \"#utility.yul\":381:458   */\n  0x4e487b7100000000000000000000000000000000000000000000000000000000\n    /* \"#utility.yul\":378:379   */\n  0x00\n    /* \"#utility.yul\":371:459   */\n  mstore\n    /* \"#utility.yul\":478:482   */\n  0x22\n    /* \"#utility.yul\":475:476   */\n  0x04\n    /* \"#utility.yul\":468:483   */\n  mstore\n    /* \"#utility.yul\":502:506   */\n  0x24\n    /* \"#utility.yul\":499:500   */\n  0x00\n    /* \"#utility.yul\":492:507   */\n  revert\n    /* \"contract_security/S04_AuthManage.sol\":167:1013  contract AuthManage is ERC20, Ownable {... */\ntag_15:\n  dataSize(sub_0)\n  dup1\n  dataOffset(sub_0)\n  0x00\n  codecopy\n  0x00\n  return\nstop\n\nsub_0: assembly {\n        /* \"contract_security/S04_AuthManage.sol\":167:1013  contract AuthManage is ERC20, Ownable {... */\n      mstore(0x40, 0x80)\n      callvalue\n      dup1\n      iszero\n      tag_1\n      jumpi\n      0x00\n      dup1\n      revert\n    tag_1:\n      pop\n      jumpi(tag_2, lt(calldatasize, 0x04))\n      shr(0xe0, calldataload(0x00))\n      dup1\n      0x7fb10550\n      gt\n      tag_21\n      jumpi\n      dup1\n      0xa9059cbb\n      gt\n      tag_22\n      jumpi\n      dup1\n      0xa9059cbb\n      eq\n      tag_16\n      jumpi\n      dup1\n      0xb08d1d1a\n      eq\n      tag_17\n      jumpi\n      dup1\n      0xdd62ed3e\n      eq\n      tag_18\n      jumpi\n      dup1\n      0xf2fde38b\n      eq\n      tag_19\n      jumpi\n      dup1\n      0xf3a87444\n      eq\n      tag_20\n      jumpi\n      jump(tag_2)\n    tag_22:\n      dup1\n      0x7fb10550\n      eq\n      tag_12\n      jumpi\n      dup1\n      0x8da5cb5b\n      eq\n      tag_13\n      jumpi\n      dup1\n      0x95d89b41\n      eq\n      tag_14\n      jumpi\n      dup1\n      0xa457c2d7\n      eq\n      tag_15\n      jumpi\n      jump(tag_2)\n    tag_21:\n      dup1\n      0x23b872dd\n      gt\n      tag_23\n      jumpi\n      dup1\n      0x23b872dd\n      eq\n      tag_7\n      jumpi\n      dup1\n      0x313ce567\n      eq\n      tag_8\n      jumpi\n      dup1\n      0x39509351\n      eq\n      tag_9\n      jumpi\n      dup1\n      0x70a08231\n      eq\n      tag_10\n      jumpi\n      dup1\n      0x715018a6\n      eq\n      tag_11\n      jumpi\n      jump(tag_2)\n    tag_23:\n      dup1\n      0x049adea7\n      eq\n      tag_3\n      jumpi\n      dup1\n      0x06fdde03\n      eq\n      tag_4\n      jumpi\n      dup1\n      0x095ea7b3\n      eq\n      tag_5\n      jumpi\n      dup1\n      0x18160ddd\n      eq\n      tag_6\n      jumpi\n    tag_2:\n      0x00\n      dup1\n      revert\n        /* \"contract_security/S04_AuthManage.sol\":619:716  function goodMint(address to, uint256 amount) public onlyOwner {... */\n    tag_3:\n      tag_24\n      0x04\n      dup1\n      calldatasize\n      sub\n      dup2\n      add\n      swap1\n      tag_25\n      swap2\n      swap1\n      tag_26\n      jump\t// in\n    tag_25:\n      tag_27\n      jump\t// in\n    tag_24:\n      stop\n        /* \"@openzeppelin/contracts/token/ERC20/ERC20.sol\":2154:2252  function name() public view virtual override returns (string memory) {... */\n    tag_4:\n      tag_28\n      tag_29\n      jump\t// in\n    tag_28:\n      mload(0x40)\n      tag_30\n      swap2\n      swap1\n      tag_31\n      jump\t// in\n    tag_30:\n      mload(0x40)\n      dup1\n      swap2\n      sub\n      swap1\n      return\n        /* \"@openzeppelin/contracts/token/ERC20/ERC20.sol\":4431:4628  function approve(address spender, uint256 amount) public virtual override returns (bool) {... */\n    tag_5:\n      tag_32\n      0x04\n      dup1\n      calldatasize\n      sub\n      dup2\n      add\n      swap1\n      tag_33\n      swap2\n      swap1\n      tag_26\n      jump\t// in\n    tag_33:\n      tag_34\n      jump\t// in\n    tag_32:\n      mload(0x40)\n      tag_35\n      swap2\n      swap1\n      tag_36\n      jump\t// in\n    tag_35:\n      mload(0x40)\n      dup1\n      swap2\n      sub\n      swap1\n      return\n        /* \"@openzeppelin/contracts/token/ERC20/ERC20.sol\":3242:3348  function totalSupply() public view virtual override returns (uint256) {... */\n    tag_6:\n      tag_37\n      tag_38\n      jump\t// in\n    tag_37:\n      mload(0x40)\n      tag_39\n      swap2\n      swap1\n      tag_40\n      jump\t// in\n    tag_39:\n      mload(0x40)\n      dup1\n      swap2\n      sub\n      swap1\n      return\n        /* \"@openzeppelin/contracts/token/ERC20/ERC20.sol\":5190:5476  function transferFrom(... */\n    tag_7:\n      tag_41\n      0x04\n      dup1\n      calldatasize\n      sub\n      dup2\n      add\n      swap1\n      tag_42\n      swap2\n      swap1\n      tag_43\n      jump\t// in\n    tag_42:\n      tag_44\n      jump\t// in\n    tag_41:\n      mload(0x40)\n      tag_45\n      swap2\n      swap1\n      tag_36\n      jump\t// in\n    tag_45:\n      mload(0x40)\n      dup1\n      swap2\n      sub\n      swap1\n      return\n        /* \"@openzeppelin/contracts/token/ERC20/ERC20.sol\":3091:3182  function decimals() public view virtual override returns (uint8) {... */\n    tag_8:\n      tag_46\n      tag_47\n      jump\t// in\n    tag_46:\n      mload(0x40)\n      tag_48\n      swap2\n      swap1\n      tag_49\n      jump\t// in\n    tag_48:\n      mload(0x40)\n      dup1\n      swap2\n      sub\n      swap1\n      return\n        /* \"@openzeppelin/contracts/token/ERC20/ERC20.sol\":5871:6105  function increaseAllowance(address spender, uint256 addedValue) public virtual returns (bool) {... */\n    tag_9:\n      tag_50\n      0x04\n      dup1\n      calldatasize\n      sub\n      dup2\n      add\n      swap1\n      tag_51\n      swap2\n      swap1\n      tag_26\n      jump\t// in\n    tag_51:\n      tag_52\n      jump\t// in\n    tag_50:\n      mload(0x40)\n      tag_53\n      swap2\n      swap1\n      tag_36\n      jump\t// in\n    tag_53:\n      mload(0x40)\n      dup1\n      swap2\n      sub\n      swap1\n      return\n        /* \"@openzeppelin/contracts/token/ERC20/ERC20.sol\":3406:3531  function balanceOf(address account) public view virtual override returns (uint256) {... */\n    tag_10:\n      tag_54\n      0x04\n      dup1\n      calldatasize\n      sub\n      dup2\n      add\n      swap1\n      tag_55\n      swap2\n      swap1\n      tag_56\n      jump\t// in\n    tag_55:\n      tag_57\n      jump\t// in\n    tag_54:\n      mload(0x40)\n      tag_58\n      swap2\n      swap1\n      tag_40\n      jump\t// in\n    tag_58:\n      mload(0x40)\n      dup1\n      swap2\n      sub\n      swap1\n      return\n        /* \"@openzeppelin/contracts/access/Ownable.sol\":1831:1932  function renounceOwnership() public virtual onlyOwner {... */\n    tag_11:\n      tag_59\n      tag_60\n      jump\t// in\n    tag_59:\n      stop\n        /* \"contract_security/S04_AuthManage.sol\":449:545  function badBurn(address account, uint256 amount) public {... */\n    tag_12:\n      tag_61\n      0x04\n      dup1\n      calldatasize\n      sub\n      dup2\n      add\n      swap1\n      tag_62\n      swap2\n      swap1\n      tag_26\n      jump\t// in\n    tag_62:\n      tag_63\n      jump\t// in\n    tag_61:\n      stop\n        /* \"@openzeppelin/contracts/access/Ownable.sol\":1201:1286  function owner() public view virtual returns (address) {... */\n    tag_13:\n      tag_64\n      tag_65\n      jump\t// in\n    tag_64:\n      mload(0x40)\n      tag_66\n      swap2\n      swap1\n      tag_67\n      jump\t// in\n    tag_66:\n      mload(0x40)\n      dup1\n      swap2\n      sub\n      swap1\n      return\n        /* \"@openzeppelin/contracts/token/ERC20/ERC20.sol\":2365:2467  function symbol() public view virtual override returns (string memory) {... */\n    tag_14:\n      tag_68\n      tag_69\n      jump\t// in\n    tag_68:\n      mload(0x40)\n      tag_70\n      swap2\n      swap1\n      tag_31\n      jump\t// in\n    tag_70:\n      mload(0x40)\n      dup1\n      swap2\n      sub\n      swap1\n      return\n        /* \"@openzeppelin/contracts/token/ERC20/ERC20.sol\":6592:7019  function decreaseAllowance(address spender, uint256 subtractedValue) public virtual returns (bool) {... */\n    tag_15:\n      tag_71\n      0x04\n      dup1\n      calldatasize\n      sub\n      dup2\n      add\n      swap1\n      tag_72\n      swap2\n      swap1\n      tag_26\n      jump\t// in\n    tag_72:\n      tag_73\n      jump\t// in\n    tag_71:\n      mload(0x40)\n      tag_74\n      swap2\n      swap1\n      tag_36\n      jump\t// in\n    tag_74:\n      mload(0x40)\n      dup1\n      swap2\n      sub\n      swap1\n      return\n        /* \"@openzeppelin/contracts/token/ERC20/ERC20.sol\":3727:3916  function transfer(address to, uint256 amount) public virtual override returns (bool) {... */\n    tag_16:\n      tag_75\n      0x04\n      dup1\n      calldatasize\n      sub\n      dup2\n      add\n      swap1\n      tag_76\n      swap2\n      swap1\n      tag_26\n      jump\t// in\n    tag_76:\n      tag_77\n      jump\t// in\n    tag_75:\n      mload(0x40)\n      tag_78\n      swap2\n      swap1\n      tag_36\n      jump\t// in\n    tag_78:\n      mload(0x40)\n      dup1\n      swap2\n      sub\n      swap1\n      return\n        /* \"contract_security/S04_AuthManage.sol\":809:1011  function goodBurn(address account, uint256 amount) public {... */\n    tag_17:\n      tag_79\n      0x04\n      dup1\n      calldatasize\n      sub\n      dup2\n      add\n      swap1\n      tag_80\n      swap2\n      swap1\n      tag_26\n      jump\t// in\n    tag_80:\n      tag_81\n      jump\t// in\n    tag_79:\n      stop\n        /* \"@openzeppelin/contracts/token/ERC20/ERC20.sol\":3974:4123  function allowance(address owner, address spender) public view virtual override returns (uint256) {... */\n    tag_18:\n      tag_82\n      0x04\n      dup1\n      calldatasize\n      sub\n      dup2\n      add\n      swap1\n      tag_83\n      swap2\n      swap1\n      tag_84\n      jump\t// in\n    tag_83:\n      tag_85\n      jump\t// in\n    tag_82:\n      mload(0x40)\n      tag_86\n      swap2\n      swap1\n      tag_40\n      jump\t// in\n    tag_86:\n      mload(0x40)\n      dup1\n      swap2\n      sub\n      swap1\n      return\n        /* \"@openzeppelin/contracts/access/Ownable.sol\":2081:2279  function transferOwnership(address newOwner) public virtual onlyOwner {... */\n    tag_19:\n      tag_87\n      0x04\n      dup1\n      calldatasize\n      sub\n      dup2\n      add\n      swap1\n      tag_88\n      swap2\n      swap1\n      tag_56\n      jump\t// in\n    tag_88:\n      tag_89\n      jump\t// in\n    tag_87:\n      stop\n        /* \"contract_security/S04_AuthManage.sol\":309:395  function badMint(address to, uint256 amount) public {... */\n    tag_20:\n      tag_90\n      0x04\n      dup1\n      calldatasize\n      sub\n      dup2\n      add\n      swap1\n      tag_91\n      swap2\n      swap1\n      tag_26\n      jump\t// in\n    tag_91:\n      tag_92\n      jump\t// in\n    tag_90:\n      stop\n        /* \"contract_security/S04_AuthManage.sol\":619:716  function goodMint(address to, uint256 amount) public onlyOwner {... */\n    tag_27:\n        /* \"@openzeppelin/contracts/access/Ownable.sol\":1094:1107  _checkOwner() */\n      tag_94\n        /* \"@openzeppelin/contracts/access/Ownable.sol\":1094:1105  _checkOwner */\n      tag_95\n        /* \"@openzeppelin/contracts/access/Ownable.sol\":1094:1107  _checkOwner() */\n      jump\t// in\n    tag_94:\n        /* \"contract_security/S04_AuthManage.sol\":692:709  _mint(to, amount) */\n      tag_97\n        /* \"contract_security/S04_AuthManage.sol\":698:700  to */\n      dup3\n        /* \"contract_security/S04_AuthManage.sol\":702:708  amount */\n      dup3\n        /* \"contract_security/S04_AuthManage.sol\":692:697  _mint */\n      tag_98\n        /* \"contract_security/S04_AuthManage.sol\":692:709  _mint(to, amount) */\n      jump\t// in\n    tag_97:\n        /* \"contract_security/S04_AuthManage.sol\":619:716  function goodMint(address to, uint256 amount) public onlyOwner {... */\n      pop\n      pop\n      jump\t// out\n        /* \"@openzeppelin/contracts/token/ERC20/ERC20.sol\":2154:2252  function name() public view virtual override returns (string memory) {... */\n    tag_29:\n        /* \"@openzeppelin/contracts/token/ERC20/ERC20.sol\":2208:2221  string memory */\n      0x60\n        /* \"@openzeppelin/contracts/token/ERC20/ERC20.sol\":2240:2245  _name */\n      0x03\n        /* \"@openzeppelin/contracts/token/ERC20/ERC20.sol\":2233:2245  return _name */\n      dup1\n      sload\n      tag_100\n      swap1\n      tag_101\n      jump\t// in\n    tag_100:\n      dup1\n      0x1f\n      add\n      0x20\n      dup1\n      swap2\n      div\n      mul\n      0x20\n      add\n      mload(0x40)\n      swap1\n      dup2\n      add\n      0x40\n      mstore\n      dup1\n      swap3\n      swap2\n      swap1\n      dup2\n      dup2\n      mstore\n      0x20\n      add\n      dup3\n      dup1\n      sload\n      tag_102\n      swap1\n      tag_101\n      jump\t// in\n    tag_102:\n      dup1\n      iszero\n      tag_103\n      jumpi\n      dup1\n      0x1f\n      lt\n      tag_104\n      jumpi\n      0x0100\n      dup1\n      dup4\n      sload\n      div\n      mul\n      dup4\n      mstore\n      swap2\n      0x20\n      add\n      swap2\n      jump(tag_103)\n    tag_104:\n      dup3\n      add\n      swap2\n      swap1\n      0x00\n      mstore\n      keccak256(0x00, 0x20)\n      swap1\n    tag_105:\n      dup2\n      sload\n      dup2\n      mstore\n      swap1\n      0x01\n      add\n      swap1\n      0x20\n      add\n      dup1\n      dup4\n      gt\n      tag_105\n      jumpi\n      dup3\n      swap1\n      sub\n      0x1f\n      and\n      dup3\n      add\n      swap2\n    tag_103:\n      pop\n      pop\n      pop\n      pop\n      pop\n      swap1\n      pop\n        /* \"@openzeppelin/contracts/token/ERC20/ERC20.sol\":2154:2252  function name() public view virtual override returns (string memory) {... */\n      swap1\n      jump\t// out\n        /* \"@openzeppelin/contracts/token/ERC20/ERC20.sol\":4431:4628  function approve(address spender, uint256 amount) public virtual override returns (bool) {... */\n    tag_34:\n        /* \"@openzeppelin/contracts/token/ERC20/ERC20.sol\":4514:4518  bool */\n      0x00\n        /* \"@openzeppelin/contracts/token/ERC20/ERC20.sol\":4530:4543  address owner */\n      dup1\n        /* \"@openzeppelin/contracts/token/ERC20/ERC20.sol\":4546:4558  _msgSender() */\n      tag_107\n        /* \"@openzeppelin/contracts/token/ERC20/ERC20.sol\":4546:4556  _msgSender */\n      tag_108\n        /* \"@openzeppelin/contracts/token/ERC20/ERC20.sol\":4546:4558  _msgSender() */\n      jump\t// in\n    tag_107:\n        /* \"@openzeppelin/contracts/token/ERC20/ERC20.sol\":4530:4558  address owner = _msgSender() */\n      swap1\n      pop\n        /* \"@openzeppelin/contracts/token/ERC20/ERC20.sol\":4568:4600  _approve(owner, spender, amount) */\n      tag_109\n        /* \"@openzeppelin/contracts/token/ERC20/ERC20.sol\":4577:4582  owner */\n      dup2\n        /* \"@openzeppelin/contracts/token/ERC20/ERC20.sol\":4584:4591  spender */\n      dup6\n        /* \"@openzeppelin/contracts/token/ERC20/ERC20.sol\":4593:4599  amount */\n      dup6\n        /* \"@openzeppelin/contracts/token/ERC20/ERC20.sol\":4568:4576  _approve */\n      tag_110\n        /* \"@openzeppelin/contracts/token/ERC20/ERC20.sol\":4568:4600  _approve(owner, spender, amount) */\n      jump\t// in\n    tag_109:\n        /* \"@openzeppelin/contracts/token/ERC20/ERC20.sol\":4617:4621  true */\n      0x01\n        /* \"@openzeppelin/contracts/token/ERC20/ERC20.sol\":4610:4621  return true */\n      swap2\n      pop\n      pop\n        /* \"@openzeppelin/contracts/token/ERC20/ERC20.sol\":4431:4628  function approve(address spender, uint256 amount) public virtual override returns (bool) {... */\n      swap3\n      swap2\n      pop\n      pop\n      jump\t// out\n        /* \"@openzeppelin/contracts/token/ERC20/ERC20.sol\":3242:3348  function totalSupply() public view virtual override returns (uint256) {... */\n    tag_38:\n        /* \"@openzeppelin/contracts/token/ERC20/ERC20.sol\":3303:3310  uint256 */\n      0x00\n        /* \"@openzeppelin/contracts/token/ERC20/ERC20.sol\":3329:3341  _totalSupply */\n      sload(0x02)\n        /* \"@openzeppelin/contracts/token/ERC20/ERC20.sol\":3322:3341  return _totalSupply */\n      swap1\n      pop\n        /* \"@openzeppelin/contracts/token/ERC20/ERC20.sol\":3242:3348  function totalSupply() public view virtual override returns (uint256) {... */\n      swap1\n      jump\t// out\n        /* \"@openzeppelin/contracts/token/ERC20/ERC20.sol\":5190:5476  function transferFrom(... */\n    tag_44:\n        /* \"@openzeppelin/contracts/token/ERC20/ERC20.sol\":5317:5321  bool */\n      0x00\n        /* \"@openzeppelin/contracts/token/ERC20/ERC20.sol\":5333:5348  address spender */\n      dup1\n        /* \"@openzeppelin/contracts/token/ERC20/ERC20.sol\":5351:5363  _msgSender() */\n      tag_113\n        /* \"@openzeppelin/contracts/token/ERC20/ERC20.sol\":5351:5361  _msgSender */\n      tag_108\n        /* \"@openzeppelin/contracts/token/ERC20/ERC20.sol\":5351:5363  _msgSender() */\n      jump\t// in\n    tag_113:\n        /* \"@openzeppelin/contracts/token/ERC20/ERC20.sol\":5333:5363  address spender = _msgSender() */\n      swap1\n      pop\n        /* \"@openzeppelin/contracts/token/ERC20/ERC20.sol\":5373:5411  _spendAllowance(from, spender, amount) */\n      tag_114\n        /* \"@openzeppelin/contracts/token/ERC20/ERC20.sol\":5389:5393  from */\n      dup6\n        /* \"@openzeppelin/contracts/token/ERC20/ERC20.sol\":5395:5402  spender */\n      dup3\n        /* \"@openzeppelin/contracts/token/ERC20/ERC20.sol\":5404:5410  amount */\n      dup6\n        /* \"@openzeppelin/contracts/token/ERC20/ERC20.sol\":5373:5388  _spendAllowance */\n      tag_115\n        /* \"@openzeppelin/contracts/token/ERC20/ERC20.sol\":5373:5411  _spendAllowance(from, spender, amount) */\n      jump\t// in\n    tag_114:\n        /* \"@openzeppelin/contracts/token/ERC20/ERC20.sol\":5421:5448  _transfer(from, to, amount) */\n      tag_116\n        /* \"@openzeppelin/contracts/token/ERC20/ERC20.sol\":5431:5435  from */\n      dup6\n        /* \"@openzeppelin/contracts/token/ERC20/ERC20.sol\":5437:5439  to */\n      dup6\n        /* \"@openzeppelin/contracts/token/ERC20/ERC20.sol\":5441:5447  amount */\n      dup6\n        /* \"@openzeppelin/contracts/token/ERC20/ERC20.sol\":5421:5430  _transfer */\n      tag_117\n        /* \"@openzeppelin/contracts/token/ERC20/ERC20.sol\":5421:5448  _transfer(from, to, amount) */\n      jump\t// in\n    tag_116:\n        /* \"@openzeppelin/contracts/token/ERC20/ERC20.sol\":5465:5469  true */\n      0x01\n        /* \"@openzeppelin/contracts/token/ERC20/ERC20.sol\":5458:5469  return true */\n      swap2\n      pop\n      pop\n        /* \"@openzeppelin/contracts/token/ERC20/ERC20.sol\":5190:5476  function transferFrom(... */\n      swap4\n      swap3\n      pop\n      pop\n      pop\n      jump\t// out\n        /* \"@openzeppelin/contracts/token/ERC20/ERC20.sol\":3091:3182  function decimals() public view virtual override returns (uint8) {... */\n    tag_47:\n        /* \"@openzeppelin/contracts/token/ERC20/ERC20.sol\":3149:3154  uint8 */\n      0x00\n        /* \"@openzeppelin/contracts/token/ERC20/ERC20.sol\":3173:3175  18 */\n      0x12\n        /* \"@openzeppelin/contracts/token/ERC20/ERC20.sol\":3166:3175  return 18 */\n      swap1\n      pop\n        /* \"@openzeppelin/contracts/token/ERC20/ERC20.sol\":3091:3182  function decimals() public view virtual override returns (uint8) {... */\n      swap1\n      jump\t// out\n        /* \"@openzeppelin/contracts/token/ERC20/ERC20.sol\":5871:6105  function increaseAllowance(address spender, uint256 addedValue) public virtual returns (bool) {... */\n    tag_52:\n        /* \"@openzeppelin/contracts/token/ERC20/ERC20.sol\":5959:5963  bool */\n      0x00\n        /* \"@openzeppelin/contracts/token/ERC20/ERC20.sol\":5975:5988  address owner */\n      dup1\n        /* \"@openzeppelin/contracts/token/ERC20/ERC20.sol\":5991:6003  _msgSender() */\n      tag_120\n        /* \"@openzeppelin/contracts/token/ERC20/ERC20.sol\":5991:6001  _msgSender */\n      tag_108\n        /* \"@openzeppelin/contracts/token/ERC20/ERC20.sol\":5991:6003  _msgSender() */\n      jump\t// in\n    tag_120:\n        /* \"@openzeppelin/contracts/token/ERC20/ERC20.sol\":5975:6003  address owner = _msgSender() */\n      swap1\n      pop\n        /* \"@openzeppelin/contracts/token/ERC20/ERC20.sol\":6013:6077  _approve(owner, spender, allowance(owner, spender) + addedValue) */\n      tag_121\n        /* \"@openzeppelin/contracts/token/ERC20/ERC20.sol\":6022:6027  owner */\n      dup2\n        /* \"@openzeppelin/contracts/token/ERC20/ERC20.sol\":6029:6036  spender */\n      dup6\n        /* \"@openzeppelin/contracts/token/ERC20/ERC20.sol\":6066:6076  addedValue */\n      dup6\n        /* \"@openzeppelin/contracts/token/ERC20/ERC20.sol\":6038:6063  allowance(owner, spender) */\n      tag_122\n        /* \"@openzeppelin/contracts/token/ERC20/ERC20.sol\":6048:6053  owner */\n      dup6\n        /* \"@openzeppelin/contracts/token/ERC20/ERC20.sol\":6055:6062  spender */\n      dup10\n        /* \"@openzeppelin/contracts/token/ERC20/ERC20.sol\":6038:6047  allowance */\n      tag_85\n        /* \"@openzeppelin/contracts/token/ERC20/ERC20.sol\":6038:6063  allowance(owner, spender) */\n      jump\t// in\n    tag_122:\n        /* \"@openzeppelin/contracts/token/ERC20/ERC20.sol\":6038:6076  allowance(owner, spender) + addedValue */\n      tag_123\n      swap2\n      swap1\n      tag_124\n      jump\t// in\n    tag_123:\n        /* \"@openzeppelin/contracts/token/ERC20/ERC20.sol\":6013:6021  _approve */\n      tag_110\n        /* \"@openzeppelin/contracts/token/ERC20/ERC20.sol\":6013:6077  _approve(owner, spender, allowance(owner, spender) + addedValue) */\n      jump\t// in\n    tag_121:\n        /* \"@openzeppelin/contracts/token/ERC20/ERC20.sol\":6094:6098  true */\n      0x01\n        /* \"@openzeppelin/contracts/token/ERC20/ERC20.sol\":6087:6098  return true */\n      swap2\n      pop\n      pop\n        /* \"@openzeppelin/contracts/token/ERC20/ERC20.sol\":5871:6105  function increaseAllowance(address spender, uint256 addedValue) public virtual returns (bool) {... */\n      swap3\n      swap2\n      pop\n      pop\n      jump\t// out\n        /* \"@openzeppelin/contracts/token/ERC20/ERC20.sol\":3406:3531  function balanceOf(address account) public view virtual override returns (uint256) {... */\n    tag_57:\n        /* \"@openzeppelin/contracts/token/ERC20/ERC20.sol\":3480:3487  uint256 */\n      0x00\n        /* \"@openzeppelin/contracts/token/ERC20/ERC20.sol\":3506:3515  _balances */\n      dup1\n        /* \"@openzeppelin/contracts/token/ERC20/ERC20.sol\":3506:3524  _balances[account] */\n      0x00\n        /* \"@openzeppelin/contracts/token/ERC20/ERC20.sol\":3516:3523  account */\n      dup4\n        /* \"@openzeppelin/contracts/token/ERC20/ERC20.sol\":3506:3524  _balances[account] */\n      0xffffffffffffffffffffffffffffffffffffffff\n      and\n      0xffffffffffffffffffffffffffffffffffffffff\n      and\n      dup2\n      mstore\n      0x20\n      add\n      swap1\n      dup2\n      mstore\n      0x20\n      add\n      0x00\n      keccak256\n      sload\n        /* \"@openzeppelin/contracts/token/ERC20/ERC20.sol\":3499:3524  return _balances[account] */\n      swap1\n      pop\n        /* \"@openzeppelin/contracts/token/ERC20/ERC20.sol\":3406:3531  function balanceOf(address account) public view virtual override returns (uint256) {... */\n      swap2\n      swap1\n      pop\n      jump\t// out\n        /* \"@openzeppelin/contracts/access/Ownable.sol\":1831:1932  function renounceOwnership() public virtual onlyOwner {... */\n    tag_60:\n        /* \"@openzeppelin/contracts/access/Ownable.sol\":1094:1107  _checkOwner() */\n      tag_127\n        /* \"@openzeppelin/contracts/access/Ownable.sol\":1094:1105  _checkOwner */\n      tag_95\n        /* \"@openzeppelin/contracts/access/Ownable.sol\":1094:1107  _checkOwner() */\n      jump\t// in\n    tag_127:\n        /* \"@openzeppelin/contracts/access/Ownable.sol\":1895:1925  _transferOwnership(address(0)) */\n      tag_129\n        /* \"@openzeppelin/contracts/access/Ownable.sol\":1922:1923  0 */\n      0x00\n        /* \"@openzeppelin/contracts/access/Ownable.sol\":1895:1913  _transferOwnership */\n      tag_130\n        /* \"@openzeppelin/contracts/access/Ownable.sol\":1895:1925  _transferOwnership(address(0)) */\n      jump\t// in\n    tag_129:\n        /* \"@openzeppelin/contracts/access/Ownable.sol\":1831:1932  function renounceOwnership() public virtual onlyOwner {... */\n      jump\t// out\n        /* \"contract_security/S04_AuthManage.sol\":449:545  function badBurn(address account, uint256 amount) public {... */\n    tag_63:\n        /* \"contract_security/S04_AuthManage.sol\":516:538  _burn(account, amount) */\n      tag_132\n        /* \"contract_security/S04_AuthManage.sol\":522:529  account */\n      dup3\n        /* \"contract_security/S04_AuthManage.sol\":531:537  amount */\n      dup3\n        /* \"contract_security/S04_AuthManage.sol\":516:521  _burn */\n      tag_133\n        /* \"contract_security/S04_AuthManage.sol\":516:538  _burn(account, amount) */\n      jump\t// in\n    tag_132:\n        /* \"contract_security/S04_AuthManage.sol\":449:545  function badBurn(address account, uint256 amount) public {... */\n      pop\n      pop\n      jump\t// out\n        /* \"@openzeppelin/contracts/access/Ownable.sol\":1201:1286  function owner() public view virtual returns (address) {... */\n    tag_65:\n        /* \"@openzeppelin/contracts/access/Ownable.sol\":1247:1254  address */\n      0x00\n        /* \"@openzeppelin/contracts/access/Ownable.sol\":1273:1279  _owner */\n      0x05\n      0x00\n      swap1\n      sload\n      swap1\n      0x0100\n      exp\n      swap1\n      div\n      0xffffffffffffffffffffffffffffffffffffffff\n      and\n        /* \"@openzeppelin/contracts/access/Ownable.sol\":1266:1279  return _owner */\n      swap1\n      pop\n        /* \"@openzeppelin/contracts/access/Ownable.sol\":1201:1286  function owner() public view virtual returns (address) {... */\n      swap1\n      jump\t// out\n        /* \"@openzeppelin/contracts/token/ERC20/ERC20.sol\":2365:2467  function symbol() public view virtual override returns (string memory) {... */\n    tag_69:\n        /* \"@openzeppelin/contracts/token/ERC20/ERC20.sol\":2421:2434  string memory */\n      0x60\n        /* \"@openzeppelin/contracts/token/ERC20/ERC20.sol\":2453:2460  _symbol */\n      0x04\n        /* \"@openzeppelin/contracts/token/ERC20/ERC20.sol\":2446:2460  return _symbol */\n      dup1\n      sload\n      tag_136\n      swap1\n      tag_101\n      jump\t// in\n    tag_136:\n      dup1\n      0x1f\n      add\n      0x20\n      dup1\n      swap2\n      div\n      mul\n      0x20\n      add\n      mload(0x40)\n      swap1\n      dup2\n      add\n      0x40\n      mstore\n      dup1\n      swap3\n      swap2\n      swap1\n      dup2\n      dup2\n      mstore\n      0x20\n      add\n      dup3\n      dup1\n      sload\n      tag_137\n      swap1\n      tag_101\n      jump\t// in\n    tag_137:\n      dup1\n      iszero\n      tag_138\n      jumpi\n      dup1\n      0x1f\n      lt\n      tag_139\n      jumpi\n      0x0100\n      dup1\n      dup4\n      sload\n      div\n      mul\n      dup4\n      mstore\n      swap2\n      0x20\n      add\n      swap2\n      jump(tag_138)\n    tag_139:\n      dup3\n      add\n      swap2\n      swap1\n      0x00\n      mstore\n      keccak256(0x00, 0x20)\n      swap1\n    tag_140:\n      dup2\n      sload\n      dup2\n      mstore\n      swap1\n      0x01\n      add\n      swap1\n      0x20\n      add\n      dup1\n      dup4\n      gt\n      tag_140\n      jumpi\n      dup3\n      swap1\n      sub\n      0x1f\n      and\n      dup3\n      add\n      swap2\n    tag_138:\n      pop\n      pop\n      pop\n      pop\n      pop\n      swap1\n      pop\n        /* \"@openzeppelin/contracts/token/ERC20/ERC20.sol\":2365:2467  function symbol() public view virtual override returns (string memory) {... */\n      swap1\n      jump\t// out\n        /* \"@openzeppelin/contracts/token/ERC20/ERC20.sol\":6592:7019  function decreaseAllowance(address spender, uint256 subtractedValue) public virtual returns (bool) {... */\n    tag_73:\n        /* \"@openzeppelin/contracts/token/ERC20/ERC20.sol\":6685:6689  bool */\n      0x00\n        /* \"@openzeppelin/contracts/token/ERC20/ERC20.sol\":6701:6714  address owner */\n      dup1\n        /* \"@openzeppelin/contracts/token/ERC20/ERC20.sol\":6717:6729  _msgSender() */\n      tag_142\n        /* \"@openzeppelin/contracts/token/ERC20/ERC20.sol\":6717:6727  _msgSender */\n      tag_108\n        /* \"@openzeppelin/contracts/token/ERC20/ERC20.sol\":6717:6729  _msgSender() */\n      jump\t// in\n    tag_142:\n        /* \"@openzeppelin/contracts/token/ERC20/ERC20.sol\":6701:6729  address owner = _msgSender() */\n      swap1\n      pop\n        /* \"@openzeppelin/contracts/token/ERC20/ERC20.sol\":6739:6763  uint256 currentAllowance */\n      0x00\n        /* \"@openzeppelin/contracts/token/ERC20/ERC20.sol\":6766:6791  allowance(owner, spender) */\n      tag_143\n        /* \"@openzeppelin/contracts/token/ERC20/ERC20.sol\":6776:6781  owner */\n      dup3\n        /* \"@openzeppelin/contracts/token/ERC20/ERC20.sol\":6783:6790  spender */\n      dup7\n        /* \"@openzeppelin/contracts/token/ERC20/ERC20.sol\":6766:6775  allowance */\n      tag_85\n        /* \"@openzeppelin/contracts/token/ERC20/ERC20.sol\":6766:6791  allowance(owner, spender) */\n      jump\t// in\n    tag_143:\n        /* \"@openzeppelin/contracts/token/ERC20/ERC20.sol\":6739:6791  uint256 currentAllowance = allowance(owner, spender) */\n      swap1\n      pop\n        /* \"@openzeppelin/contracts/token/ERC20/ERC20.sol\":6829:6844  subtractedValue */\n      dup4\n        /* \"@openzeppelin/contracts/token/ERC20/ERC20.sol\":6809:6825  currentAllowance */\n      dup2\n        /* \"@openzeppelin/contracts/token/ERC20/ERC20.sol\":6809:6844  currentAllowance >= subtractedValue */\n      lt\n      iszero\n        /* \"@openzeppelin/contracts/token/ERC20/ERC20.sol\":6801:6886  require(currentAllowance >= subtractedValue, \"ERC20: decreased allowance below zero\") */\n      tag_144\n      jumpi\n      mload(0x40)\n      0x08c379a000000000000000000000000000000000000000000000000000000000\n      dup2\n      mstore\n      0x04\n      add\n      tag_145\n      swap1\n      tag_146\n      jump\t// in\n    tag_145:\n      mload(0x40)\n      dup1\n      swap2\n      sub\n      swap1\n      revert\n    tag_144:\n        /* \"@openzeppelin/contracts/token/ERC20/ERC20.sol\":6920:6980  _approve(owner, spender, currentAllowance - subtractedValue) */\n      tag_147\n        /* \"@openzeppelin/contracts/token/ERC20/ERC20.sol\":6929:6934  owner */\n      dup3\n        /* \"@openzeppelin/contracts/token/ERC20/ERC20.sol\":6936:6943  spender */\n      dup7\n        /* \"@openzeppelin/contracts/token/ERC20/ERC20.sol\":6964:6979  subtractedValue */\n      dup7\n        /* \"@openzeppelin/contracts/token/ERC20/ERC20.sol\":6945:6961  currentAllowance */\n      dup5\n        /* \"@openzeppelin/contracts/token/ERC20/ERC20.sol\":6945:6979  currentAllowance - subtractedValue */\n      sub\n        /* \"@openzeppelin/contracts/token/ERC20/ERC20.sol\":6920:6928  _approve */\n      tag_110\n        /* \"@openzeppelin/contracts/token/ERC20/ERC20.sol\":6920:6980  _approve(owner, spender, currentAllowance - subtractedValue) */\n      jump\t// in\n    tag_147:\n        /* \"@openzeppelin/contracts/token/ERC20/ERC20.sol\":7008:7012  true */\n      0x01\n        /* \"@openzeppelin/contracts/token/ERC20/ERC20.sol\":7001:7012  return true */\n      swap3\n      pop\n      pop\n      pop\n        /* \"@openzeppelin/contracts/token/ERC20/ERC20.sol\":6592:7019  function decreaseAllowance(address spender, uint256 subtractedValue) public virtual returns (bool) {... */\n      swap3\n      swap2\n      pop\n      pop\n      jump\t// out\n        /* \"@openzeppelin/contracts/token/ERC20/ERC20.sol\":3727:3916  function transfer(address to, uint256 amount) public virtual override returns (bool) {... */\n    tag_77:\n        /* \"@openzeppelin/contracts/token/ERC20/ERC20.sol\":3806:3810  bool */\n      0x00\n        /* \"@openzeppelin/contracts/token/ERC20/ERC20.sol\":3822:3835  address owner */\n      dup1\n        /* \"@openzeppelin/contracts/token/ERC20/ERC20.sol\":3838:3850  _msgSender() */\n      tag_149\n        /* \"@openzeppelin/contracts/token/ERC20/ERC20.sol\":3838:3848  _msgSender */\n      tag_108\n        /* \"@openzeppelin/contracts/token/ERC20/ERC20.sol\":3838:3850  _msgSender() */\n      jump\t// in\n    tag_149:\n        /* \"@openzeppelin/contracts/token/ERC20/ERC20.sol\":3822:3850  address owner = _msgSender() */\n      swap1\n      pop\n        /* \"@openzeppelin/contracts/token/ERC20/ERC20.sol\":3860:3888  _transfer(owner, to, amount) */\n      tag_150\n        /* \"@openzeppelin/contracts/token/ERC20/ERC20.sol\":3870:3875  owner */\n      dup2\n        /* \"@openzeppelin/contracts/token/ERC20/ERC20.sol\":3877:3879  to */\n      dup6\n        /* \"@openzeppelin/contracts/token/ERC20/ERC20.sol\":3881:3887  amount */\n      dup6\n        /* \"@openzeppelin/contracts/token/ERC20/ERC20.sol\":3860:3869  _transfer */\n      tag_117\n        /* \"@openzeppelin/contracts/token/ERC20/ERC20.sol\":3860:3888  _transfer(owner, to, amount) */\n      jump\t// in\n    tag_150:\n        /* \"@openzeppelin/contracts/token/ERC20/ERC20.sol\":3905:3909  true */\n      0x01\n        /* \"@openzeppelin/contracts/token/ERC20/ERC20.sol\":3898:3909  return true */\n      swap2\n      pop\n      pop\n        /* \"@openzeppelin/contracts/token/ERC20/ERC20.sol\":3727:3916  function transfer(address to, uint256 amount) public virtual override returns (bool) {... */\n      swap3\n      swap2\n      pop\n      pop\n      jump\t// out\n        /* \"contract_security/S04_AuthManage.sol\":809:1011  function goodBurn(address account, uint256 amount) public {... */\n    tag_81:\n        /* \"contract_security/S04_AuthManage.sol\":895:902  account */\n      dup2\n        /* \"contract_security/S04_AuthManage.sol\":881:902  msg.sender != account */\n      0xffffffffffffffffffffffffffffffffffffffff\n      and\n        /* \"contract_security/S04_AuthManage.sol\":881:891  msg.sender */\n      caller\n        /* \"contract_security/S04_AuthManage.sol\":881:902  msg.sender != account */\n      0xffffffffffffffffffffffffffffffffffffffff\n      and\n      eq\n        /* \"contract_security/S04_AuthManage.sol\":877:973  if (msg.sender != account) {... */\n      tag_152\n      jumpi\n        /* \"contract_security/S04_AuthManage.sol\":918:962  _spendAllowance(account, msg.sender, amount) */\n      tag_153\n        /* \"contract_security/S04_AuthManage.sol\":934:941  account */\n      dup3\n        /* \"contract_security/S04_AuthManage.sol\":943:953  msg.sender */\n      caller\n        /* \"contract_security/S04_AuthManage.sol\":955:961  amount */\n      dup4\n        /* \"contract_security/S04_AuthManage.sol\":918:933  _spendAllowance */\n      tag_115\n        /* \"contract_security/S04_AuthManage.sol\":918:962  _spendAllowance(account, msg.sender, amount) */\n      jump\t// in\n    tag_153:\n        /* \"contract_security/S04_AuthManage.sol\":877:973  if (msg.sender != account) {... */\n    tag_152:\n        /* \"contract_security/S04_AuthManage.sol\":982:1004  _burn(account, amount) */\n      tag_154\n        /* \"contract_security/S04_AuthManage.sol\":988:995  account */\n      dup3\n        /* \"contract_security/S04_AuthManage.sol\":997:1003  amount */\n      dup3\n        /* \"contract_security/S04_AuthManage.sol\":982:987  _burn */\n      tag_133\n        /* \"contract_security/S04_AuthManage.sol\":982:1004  _burn(account, amount) */\n      jump\t// in\n    tag_154:\n        /* \"contract_security/S04_AuthManage.sol\":809:1011  function goodBurn(address account, uint256 amount) public {... */\n      pop\n      pop\n      jump\t// out\n        /* \"@openzeppelin/contracts/token/ERC20/ERC20.sol\":3974:4123  function allowance(address owner, address spender) public view virtual override returns (uint256) {... */\n    tag_85:\n        /* \"@openzeppelin/contracts/token/ERC20/ERC20.sol\":4063:4070  uint256 */\n      0x00\n        /* \"@openzeppelin/contracts/token/ERC20/ERC20.sol\":4089:4100  _allowances */\n      0x01\n        /* \"@openzeppelin/contracts/token/ERC20/ERC20.sol\":4089:4107  _allowances[owner] */\n      0x00\n        /* \"@openzeppelin/contracts/token/ERC20/ERC20.sol\":4101:4106  owner */\n      dup5\n        /* \"@openzeppelin/contracts/token/ERC20/ERC20.sol\":4089:4107  _allowances[owner] */\n      0xffffffffffffffffffffffffffffffffffffffff\n      and\n      0xffffffffffffffffffffffffffffffffffffffff\n      and\n      dup2\n      mstore\n      0x20\n      add\n      swap1\n      dup2\n      mstore\n      0x20\n      add\n      0x00\n      keccak256\n        /* \"@openzeppelin/contracts/token/ERC20/ERC20.sol\":4089:4116  _allowances[owner][spender] */\n      0x00\n        /* \"@openzeppelin/contracts/token/ERC20/ERC20.sol\":4108:4115  spender */\n      dup4\n        /* \"@openzeppelin/contracts/token/ERC20/ERC20.sol\":4089:4116  _allowances[owner][spender] */\n      0xffffffffffffffffffffffffffffffffffffffff\n      and\n      0xffffffffffffffffffffffffffffffffffffffff\n      and\n      dup2\n      mstore\n      0x20\n      add\n      swap1\n      dup2\n      mstore\n      0x20\n      add\n      0x00\n      keccak256\n      sload\n        /* \"@openzeppelin/contracts/token/ERC20/ERC20.sol\":4082:4116  return _allowances[owner][spender] */\n      swap1\n      pop\n        /* \"@openzeppelin/contracts/token/ERC20/ERC20.sol\":3974:4123  function allowance(address owner, address spender) public view virtual override returns (uint256) {... */\n      swap3\n      swap2\n      pop\n      pop\n      jump\t// out\n        /* \"@openzeppelin/contracts/access/Ownable.sol\":2081:2279  function transferOwnership(address newOwner) public virtual onlyOwner {... */\n    tag_89:\n        /* \"@openzeppelin/contracts/access/Ownable.sol\":1094:1107  _checkOwner() */\n      tag_157\n        /* \"@openzeppelin/contracts/access/Ownable.sol\":1094:1105  _checkOwner */\n      tag_95\n        /* \"@openzeppelin/contracts/access/Ownable.sol\":1094:1107  _checkOwner() */\n      jump\t// in\n    tag_157:\n        /* \"@openzeppelin/contracts/access/Ownable.sol\":2189:2190  0 */\n      0x00\n        /* \"@openzeppelin/contracts/access/Ownable.sol\":2169:2191  newOwner != address(0) */\n      0xffffffffffffffffffffffffffffffffffffffff\n      and\n        /* \"@openzeppelin/contracts/access/Ownable.sol\":2169:2177  newOwner */\n      dup2\n        /* \"@openzeppelin/contracts/access/Ownable.sol\":2169:2191  newOwner != address(0) */\n      0xffffffffffffffffffffffffffffffffffffffff\n      and\n      eq\n      iszero\n        /* \"@openzeppelin/contracts/access/Ownable.sol\":2161:2234  require(newOwner != address(0), \"Ownable: new owner is the zero address\") */\n      tag_159\n      jumpi\n      mload(0x40)\n      0x08c379a000000000000000000000000000000000000000000000000000000000\n      dup2\n      mstore\n      0x04\n      add\n      tag_160\n      swap1\n      tag_161\n      jump\t// in\n    tag_160:\n      mload(0x40)\n      dup1\n      swap2\n      sub\n      swap1\n      revert\n    tag_159:\n        /* \"@openzeppelin/contracts/access/Ownable.sol\":2244:2272  _transferOwnership(newOwner) */\n      tag_162\n        /* \"@openzeppelin/contracts/access/Ownable.sol\":2263:2271  newOwner */\n      dup2\n        /* \"@openzeppelin/contracts/access/Ownable.sol\":2244:2262  _transferOwnership */\n      tag_130\n        /* \"@openzeppelin/contracts/access/Ownable.sol\":2244:2272  _transferOwnership(newOwner) */\n      jump\t// in\n    tag_162:\n        /* \"@openzeppelin/contracts/access/Ownable.sol\":2081:2279  function transferOwnership(address newOwner) public virtual onlyOwner {... */\n      pop\n      jump\t// out\n        /* \"contract_security/S04_AuthManage.sol\":309:395  function badMint(address to, uint256 amount) public {... */\n    tag_92:\n        /* \"contract_security/S04_AuthManage.sol\":371:388  _mint(to, amount) */\n      tag_164\n        /* \"contract_security/S04_AuthManage.sol\":377:379  to */\n      dup3\n        /* \"contract_security/S04_AuthManage.sol\":381:387  amount */\n      dup3\n        /* \"contract_security/S04_AuthManage.sol\":371:376  _mint */\n      tag_98\n        /* \"contract_security/S04_AuthManage.sol\":371:388  _mint(to, amount) */\n      jump\t// in\n    tag_164:\n        /* \"contract_security/S04_AuthManage.sol\":309:395  function badMint(address to, uint256 amount) public {... */\n      pop\n      pop\n      jump\t// out\n        /* \"@openzeppelin/contracts/access/Ownable.sol\":1359:1489  function _checkOwner() internal view virtual {... */\n    tag_95:\n        /* \"@openzeppelin/contracts/access/Ownable.sol\":1433:1445  _msgSender() */\n      tag_166\n        /* \"@openzeppelin/contracts/access/Ownable.sol\":1433:1443  _msgSender */\n      tag_108\n        /* \"@openzeppelin/contracts/access/Ownable.sol\":1433:1445  _msgSender() */\n      jump\t// in\n    tag_166:\n        /* \"@openzeppelin/contracts/access/Ownable.sol\":1422:1445  owner() == _msgSender() */\n      0xffffffffffffffffffffffffffffffffffffffff\n      and\n        /* \"@openzeppelin/contracts/access/Ownable.sol\":1422:1429  owner() */\n      tag_167\n        /* \"@openzeppelin/contracts/access/Ownable.sol\":1422:1427  owner */\n      tag_65\n        /* \"@openzeppelin/contracts/access/Ownable.sol\":1422:1429  owner() */\n      jump\t// in\n    tag_167:\n        /* \"@openzeppelin/contracts/access/Ownable.sol\":1422:1445  owner() == _msgSender() */\n      0xffffffffffffffffffffffffffffffffffffffff\n      and\n      eq\n        /* \"@openzeppelin/contracts/access/Ownable.sol\":1414:1482  require(owner() == _msgSender(), \"Ownable: caller is not the owner\") */\n      tag_168\n      jumpi\n      mload(0x40)\n      0x08c379a000000000000000000000000000000000000000000000000000000000\n      dup2\n      mstore\n      0x04\n      add\n      tag_169\n      swap1\n      tag_170\n      jump\t// in\n    tag_169:\n      mload(0x40)\n      dup1\n      swap2\n      sub\n      swap1\n      revert\n    tag_168:\n        /* \"@openzeppelin/contracts/access/Ownable.sol\":1359:1489  function _checkOwner() internal view virtual {... */\n      jump\t// out\n        /* \"@openzeppelin/contracts/token/ERC20/ERC20.sol\":8567:9102  function _mint(address account, uint256 amount) internal virtual {... */\n    tag_98:\n        /* \"@openzeppelin/contracts/token/ERC20/ERC20.sol\":8669:8670  0 */\n      0x00\n        /* \"@openzeppelin/contracts/token/ERC20/ERC20.sol\":8650:8671  account != address(0) */\n      0xffffffffffffffffffffffffffffffffffffffff\n      and\n        /* \"@openzeppelin/contracts/token/ERC20/ERC20.sol\":8650:8657  account */\n      dup3\n        /* \"@openzeppelin/contracts/token/ERC20/ERC20.sol\":8650:8671  account != address(0) */\n      0xffffffffffffffffffffffffffffffffffffffff\n      and\n      eq\n      iszero\n        /* \"@openzeppelin/contracts/token/ERC20/ERC20.sol\":8642:8707  require(account != address(0), \"ERC20: mint to the zero address\") */\n      tag_172\n      jumpi\n      mload(0x40)\n      0x08c379a000000000000000000000000000000000000000000000000000000000\n      dup2\n      mstore\n      0x04\n      add\n      tag_173\n      swap1\n      tag_174\n      jump\t// in\n    tag_173:\n      mload(0x40)\n      dup1\n      swap2\n      sub\n      swap1\n      revert\n    tag_172:\n        /* \"@openzeppelin/contracts/token/ERC20/ERC20.sol\":8718:8767  _beforeTokenTransfer(address(0), account, amount) */\n      tag_175\n        /* \"@openzeppelin/contracts/token/ERC20/ERC20.sol\":8747:8748  0 */\n      0x00\n        /* \"@openzeppelin/contracts/token/ERC20/ERC20.sol\":8751:8758  account */\n      dup4\n        /* \"@openzeppelin/contracts/token/ERC20/ERC20.sol\":8760:8766  amount */\n      dup4\n        /* \"@openzeppelin/contracts/token/ERC20/ERC20.sol\":8718:8738  _beforeTokenTransfer */\n      tag_176\n        /* \"@openzeppelin/contracts/token/ERC20/ERC20.sol\":8718:8767  _beforeTokenTransfer(address(0), account, amount) */\n      jump\t// in\n    tag_175:\n        /* \"@openzeppelin/contracts/token/ERC20/ERC20.sol\":8794:8800  amount */\n      dup1\n        /* \"@openzeppelin/contracts/token/ERC20/ERC20.sol\":8778:8790  _totalSupply */\n      0x02\n      0x00\n        /* \"@openzeppelin/contracts/token/ERC20/ERC20.sol\":8778:8800  _totalSupply += amount */\n      dup3\n      dup3\n      sload\n      tag_177\n      swap2\n      swap1\n      tag_124\n      jump\t// in\n    tag_177:\n      swap3\n      pop\n      pop\n      dup2\n      swap1\n      sstore\n      pop\n        /* \"@openzeppelin/contracts/token/ERC20/ERC20.sol\":8968:8974  amount */\n      dup1\n        /* \"@openzeppelin/contracts/token/ERC20/ERC20.sol\":8946:8955  _balances */\n      0x00\n        /* \"@openzeppelin/contracts/token/ERC20/ERC20.sol\":8946:8964  _balances[account] */\n      dup1\n        /* \"@openzeppelin/contracts/token/ERC20/ERC20.sol\":8956:8963  account */\n      dup5\n        /* \"@openzeppelin/contracts/token/ERC20/ERC20.sol\":8946:8964  _balances[account] */\n      0xffffffffffffffffffffffffffffffffffffffff\n      and\n      0xffffffffffffffffffffffffffffffffffffffff\n      and\n      dup2\n      mstore\n      0x20\n      add\n      swap1\n      dup2\n      mstore\n      0x20\n      add\n      0x00\n      keccak256\n      0x00\n        /* \"@openzeppelin/contracts/token/ERC20/ERC20.sol\":8946:8974  _balances[account] += amount */\n      dup3\n      dup3\n      sload\n      add\n      swap3\n      pop\n      pop\n      dup2\n      swap1\n      sstore\n      pop\n        /* \"@openzeppelin/contracts/token/ERC20/ERC20.sol\":9020:9027  account */\n      dup2\n        /* \"@openzeppelin/contracts/token/ERC20/ERC20.sol\":8999:9036  Transfer(address(0), account, amount) */\n      0xffffffffffffffffffffffffffffffffffffffff\n      and\n        /* \"@openzeppelin/contracts/token/ERC20/ERC20.sol\":9016:9017  0 */\n      0x00\n        /* \"@openzeppelin/contracts/token/ERC20/ERC20.sol\":8999:9036  Transfer(address(0), account, amount) */\n      0xffffffffffffffffffffffffffffffffffffffff\n      and\n      0xddf252ad1be2c89b69c2b068fc378daa952ba7f163c4a11628f55a4df523b3ef\n        /* \"@openzeppelin/contracts/token/ERC20/ERC20.sol\":9029:9035  amount */\n      dup4\n        /* \"@openzeppelin/contracts/token/ERC20/ERC20.sol\":8999:9036  Transfer(address(0), account, amount) */\n      mload(0x40)\n      tag_178\n      swap2\n      swap1\n      tag_40\n      jump\t// in\n    tag_178:\n      mload(0x40)\n      dup1\n      swap2\n      sub\n      swap1\n      log3\n        /* \"@openzeppelin/contracts/token/ERC20/ERC20.sol\":9047:9095  _afterTokenTransfer(address(0), account, amount) */\n      tag_179\n        /* \"@openzeppelin/contracts/token/ERC20/ERC20.sol\":9075:9076  0 */\n      0x00\n        /* \"@openzeppelin/contracts/token/ERC20/ERC20.sol\":9079:9086  account */\n      dup4\n        /* \"@openzeppelin/contracts/token/ERC20/ERC20.sol\":9088:9094  amount */\n      dup4\n        /* \"@openzeppelin/contracts/token/ERC20/ERC20.sol\":9047:9066  _afterTokenTransfer */\n      tag_180\n        /* \"@openzeppelin/contracts/token/ERC20/ERC20.sol\":9047:9095  _afterTokenTransfer(address(0), account, amount) */\n      jump\t// in\n    tag_179:\n        /* \"@openzeppelin/contracts/token/ERC20/ERC20.sol\":8567:9102  function _mint(address account, uint256 amount) internal virtual {... */\n      pop\n      pop\n      jump\t// out\n        /* \"@openzeppelin/contracts/utils/Context.sol\":640:736  function _msgSender() internal view virtual returns (address) {... */\n    tag_108:\n        /* \"@openzeppelin/contracts/utils/Context.sol\":693:700  address */\n      0x00\n        /* \"@openzeppelin/contracts/utils/Context.sol\":719:729  msg.sender */\n      caller\n        /* \"@openzeppelin/contracts/utils/Context.sol\":712:729  return msg.sender */\n      swap1\n      pop\n        /* \"@openzeppelin/contracts/utils/Context.sol\":640:736  function _msgSender() internal view virtual returns (address) {... */\n      swap1\n      jump\t// out\n        /* \"@openzeppelin/contracts/token/ERC20/ERC20.sol\":10504:10874  function _approve(... */\n    tag_110:\n        /* \"@openzeppelin/contracts/token/ERC20/ERC20.sol\":10652:10653  0 */\n      0x00\n        /* \"@openzeppelin/contracts/token/ERC20/ERC20.sol\":10635:10654  owner != address(0) */\n      0xffffffffffffffffffffffffffffffffffffffff\n      and\n        /* \"@openzeppelin/contracts/token/ERC20/ERC20.sol\":10635:10640  owner */\n      dup4\n        /* \"@openzeppelin/contracts/token/ERC20/ERC20.sol\":10635:10654  owner != address(0) */\n      0xffffffffffffffffffffffffffffffffffffffff\n      and\n      eq\n      iszero\n        /* \"@openzeppelin/contracts/token/ERC20/ERC20.sol\":10627:10695  require(owner != address(0), \"ERC20: approve from the zero address\") */\n      tag_183\n      jumpi\n      mload(0x40)\n      0x08c379a000000000000000000000000000000000000000000000000000000000\n      dup2\n      mstore\n      0x04\n      add\n      tag_184\n      swap1\n      tag_185\n      jump\t// in\n    tag_184:\n      mload(0x40)\n      dup1\n      swap2\n      sub\n      swap1\n      revert\n    tag_183:\n        /* \"@openzeppelin/contracts/token/ERC20/ERC20.sol\":10732:10733  0 */\n      0x00\n        /* \"@openzeppelin/contracts/token/ERC20/ERC20.sol\":10713:10734  spender != address(0) */\n      0xffffffffffffffffffffffffffffffffffffffff\n      and\n        /* \"@openzeppelin/contracts/token/ERC20/ERC20.sol\":10713:10720  spender */\n      dup3\n        /* \"@openzeppelin/contracts/token/ERC20/ERC20.sol\":10713:10734  spender != address(0) */\n      0xffffffffffffffffffffffffffffffffffffffff\n      and\n      eq\n      iszero\n        /* \"@openzeppelin/contracts/token/ERC20/ERC20.sol\":10705:10773  require(spender != address(0), \"ERC20: approve to the zero address\") */\n      tag_186\n      jumpi\n      mload(0x40)\n      0x08c379a000000000000000000000000000000000000000000000000000000000\n      dup2\n      mstore\n      0x04\n      add\n      tag_187\n      swap1\n      tag_188\n      jump\t// in\n    tag_187:\n      mload(0x40)\n      dup1\n      swap2\n      sub\n      swap1\n      revert\n    tag_186:\n        /* \"@openzeppelin/contracts/token/ERC20/ERC20.sol\":10814:10820  amount */\n      dup1\n        /* \"@openzeppelin/contracts/token/ERC20/ERC20.sol\":10784:10795  _allowances */\n      0x01\n        /* \"@openzeppelin/contracts/token/ERC20/ERC20.sol\":10784:10802  _allowances[owner] */\n      0x00\n        /* \"@openzeppelin/contracts/token/ERC20/ERC20.sol\":10796:10801  owner */\n      dup6\n        /* \"@openzeppelin/contracts/token/ERC20/ERC20.sol\":10784:10802  _allowances[owner] */\n      0xffffffffffffffffffffffffffffffffffffffff\n      and\n      0xffffffffffffffffffffffffffffffffffffffff\n      and\n      dup2\n      mstore\n      0x20\n      add\n      swap1\n      dup2\n      mstore\n      0x20\n      add\n      0x00\n      keccak256\n        /* \"@openzeppelin/contracts/token/ERC20/ERC20.sol\":10784:10811  _allowances[owner][spender] */\n      0x00\n        /* \"@openzeppelin/contracts/token/ERC20/ERC20.sol\":10803:10810  spender */\n      dup5\n        /* \"@openzeppelin/contracts/token/ERC20/ERC20.sol\":10784:10811  _allowances[owner][spender] */\n      0xffffffffffffffffffffffffffffffffffffffff\n      and\n      0xffffffffffffffffffffffffffffffffffffffff\n      and\n      dup2\n      mstore\n      0x20\n      add\n      swap1\n      dup2\n      mstore\n      0x20\n      add\n      0x00\n      keccak256\n        /* \"@openzeppelin/contracts/token/ERC20/ERC20.sol\":10784:10820  _allowances[owner][spender] = amount */\n      dup2\n      swap1\n      sstore\n      pop\n        /* \"@openzeppelin/contracts/token/ERC20/ERC20.sol\":10851:10858  spender */\n      dup2\n        /* \"@openzeppelin/contracts/token/ERC20/ERC20.sol\":10835:10867  Approval(owner, spender, amount) */\n      0xffffffffffffffffffffffffffffffffffffffff\n      and\n        /* \"@openzeppelin/contracts/token/ERC20/ERC20.sol\":10844:10849  owner */\n      dup4\n        /* \"@openzeppelin/contracts/token/ERC20/ERC20.sol\":10835:10867  Approval(owner, spender, amount) */\n      0xffffffffffffffffffffffffffffffffffffffff\n      and\n      0x8c5be1e5ebec7d5bd14f71427d1e84f3dd0314c0f7b2291e5b200ac8c7c3b925\n        /* \"@openzeppelin/contracts/token/ERC20/ERC20.sol\":10860:10866  amount */\n      dup4\n        /* \"@openzeppelin/contracts/token/ERC20/ERC20.sol\":10835:10867  Approval(owner, spender, amount) */\n      mload(0x40)\n      tag_189\n      swap2\n      swap1\n      tag_40\n      jump\t// in\n    tag_189:\n      mload(0x40)\n      dup1\n      swap2\n      sub\n      swap1\n      log3\n        /* \"@openzeppelin/contracts/token/ERC20/ERC20.sol\":10504:10874  function _approve(... */\n      pop\n      pop\n      pop\n      jump\t// out\n        /* \"@openzeppelin/contracts/token/ERC20/ERC20.sol\":11155:11596  function _spendAllowance(... */\n    tag_115:\n        /* \"@openzeppelin/contracts/token/ERC20/ERC20.sol\":11285:11309  uint256 currentAllowance */\n      0x00\n        /* \"@openzeppelin/contracts/token/ERC20/ERC20.sol\":11312:11337  allowance(owner, spender) */\n      tag_191\n        /* \"@openzeppelin/contracts/token/ERC20/ERC20.sol\":11322:11327  owner */\n      dup5\n        /* \"@openzeppelin/contracts/token/ERC20/ERC20.sol\":11329:11336  spender */\n      dup5\n        /* \"@openzeppelin/contracts/token/ERC20/ERC20.sol\":11312:11321  allowance */\n      tag_85\n        /* \"@openzeppelin/contracts/token/ERC20/ERC20.sol\":11312:11337  allowance(owner, spender) */\n      jump\t// in\n    tag_191:\n        /* \"@openzeppelin/contracts/token/ERC20/ERC20.sol\":11285:11337  uint256 currentAllowance = allowance(owner, spender) */\n      swap1\n      pop\n        /* \"@openzeppelin/contracts/token/ERC20/ERC20.sol\":11371:11388  type(uint256).max */\n      0xffffffffffffffffffffffffffffffffffffffffffffffffffffffffffffffff\n        /* \"@openzeppelin/contracts/token/ERC20/ERC20.sol\":11351:11367  currentAllowance */\n      dup2\n        /* \"@openzeppelin/contracts/token/ERC20/ERC20.sol\":11351:11388  currentAllowance != type(uint256).max */\n      eq\n        /* \"@openzeppelin/contracts/token/ERC20/ERC20.sol\":11347:11590  if (currentAllowance != type(uint256).max) {... */\n      tag_192\n      jumpi\n        /* \"@openzeppelin/contracts/token/ERC20/ERC20.sol\":11432:11438  amount */\n      dup2\n        /* \"@openzeppelin/contracts/token/ERC20/ERC20.sol\":11412:11428  currentAllowance */\n      dup2\n        /* \"@openzeppelin/contracts/token/ERC20/ERC20.sol\":11412:11438  currentAllowance >= amount */\n      lt\n      iszero\n        /* \"@openzeppelin/contracts/token/ERC20/ERC20.sol\":11404:11472  require(currentAllowance >= amount, \"ERC20: insufficient allowance\") */\n      tag_193\n      jumpi\n      mload(0x40)\n      0x08c379a000000000000000000000000000000000000000000000000000000000\n      dup2\n      mstore\n      0x04\n      add\n      tag_194\n      swap1\n      tag_195\n      jump\t// in\n    tag_194:\n      mload(0x40)\n      dup1\n      swap2\n      sub\n      swap1\n      revert\n    tag_193:\n        /* \"@openzeppelin/contracts/token/ERC20/ERC20.sol\":11514:11565  _approve(owner, spender, currentAllowance - amount) */\n      tag_196\n        /* \"@openzeppelin/contracts/token/ERC20/ERC20.sol\":11523:11528  owner */\n      dup5\n        /* \"@openzeppelin/contracts/token/ERC20/ERC20.sol\":11530:11537  spender */\n      dup5\n        /* \"@openzeppelin/contracts/token/ERC20/ERC20.sol\":11558:11564  amount */\n      dup5\n        /* \"@openzeppelin/contracts/token/ERC20/ERC20.sol\":11539:11555  currentAllowance */\n      dup5\n        /* \"@openzeppelin/contracts/token/ERC20/ERC20.sol\":11539:11564  currentAllowance - amount */\n      sub\n        /* \"@openzeppelin/contracts/token/ERC20/ERC20.sol\":11514:11522  _approve */\n      tag_110\n        /* \"@openzeppelin/contracts/token/ERC20/ERC20.sol\":11514:11565  _approve(owner, spender, currentAllowance - amount) */\n      jump\t// in\n    tag_196:\n        /* \"@openzeppelin/contracts/token/ERC20/ERC20.sol\":11347:11590  if (currentAllowance != type(uint256).max) {... */\n    tag_192:\n        /* \"@openzeppelin/contracts/token/ERC20/ERC20.sol\":11275:11596  {... */\n      pop\n        /* \"@openzeppelin/contracts/token/ERC20/ERC20.sol\":11155:11596  function _spendAllowance(... */\n      pop\n      pop\n      pop\n      jump\t// out\n        /* \"@openzeppelin/contracts/token/ERC20/ERC20.sol\":7473:8291  function _transfer(... */\n    tag_117:\n        /* \"@openzeppelin/contracts/token/ERC20/ERC20.sol\":7615:7616  0 */\n      0x00\n        /* \"@openzeppelin/contracts/token/ERC20/ERC20.sol\":7599:7617  from != address(0) */\n      0xffffffffffffffffffffffffffffffffffffffff\n      and\n        /* \"@openzeppelin/contracts/token/ERC20/ERC20.sol\":7599:7603  from */\n      dup4\n        /* \"@openzeppelin/contracts/token/ERC20/ERC20.sol\":7599:7617  from != address(0) */\n      0xffffffffffffffffffffffffffffffffffffffff\n      and\n      eq\n      iszero\n        /* \"@openzeppelin/contracts/token/ERC20/ERC20.sol\":7591:7659  require(from != address(0), \"ERC20: transfer from the zero address\") */\n      tag_198\n      jumpi\n      mload(0x40)\n      0x08c379a000000000000000000000000000000000000000000000000000000000\n      dup2\n      mstore\n      0x04\n      add\n      tag_199\n      swap1\n      tag_200\n      jump\t// in\n    tag_199:\n      mload(0x40)\n      dup1\n      swap2\n      sub\n      swap1\n      revert\n    tag_198:\n        /* \"@openzeppelin/contracts/token/ERC20/ERC20.sol\":7691:7692  0 */\n      0x00\n        /* \"@openzeppelin/contracts/token/ERC20/ERC20.sol\":7677:7693  to != address(0) */\n      0xffffffffffffffffffffffffffffffffffffffff\n      and\n        /* \"@openzeppelin/contracts/token/ERC20/ERC20.sol\":7677:7679  to */\n      dup3\n        /* \"@openzeppelin/contracts/token/ERC20/ERC20.sol\":7677:7693  to != address(0) */\n      0xffffffffffffffffffffffffffffffffffffffff\n      and\n      eq\n      iszero\n        /* \"@openzeppelin/contracts/token/ERC20/ERC20.sol\":7669:7733  require(to != address(0), \"ERC20: transfer to the zero address\") */\n      tag_201\n      jumpi\n      mload(0x40)\n      0x08c379a000000000000000000000000000000000000000000000000000000000\n      dup2\n      mstore\n      0x04\n      add\n      tag_202\n      swap1\n      tag_203\n      jump\t// in\n    tag_202:\n      mload(0x40)\n      dup1\n      swap2\n      sub\n      swap1\n      revert\n    tag_201:\n        /* \"@openzeppelin/contracts/token/ERC20/ERC20.sol\":7744:7782  _beforeTokenTransfer(from, to, amount) */\n      tag_204\n        /* \"@openzeppelin/contracts/token/ERC20/ERC20.sol\":7765:7769  from */\n      dup4\n        /* \"@openzeppelin/contracts/token/ERC20/ERC20.sol\":7771:7773  to */\n      dup4\n        /* \"@openzeppelin/contracts/token/ERC20/ERC20.sol\":7775:7781  amount */\n      dup4\n        /* \"@openzeppelin/contracts/token/ERC20/ERC20.sol\":7744:7764  _beforeTokenTransfer */\n      tag_176\n        /* \"@openzeppelin/contracts/token/ERC20/ERC20.sol\":7744:7782  _beforeTokenTransfer(from, to, amount) */\n      jump\t// in\n    tag_204:\n        /* \"@openzeppelin/contracts/token/ERC20/ERC20.sol\":7793:7812  uint256 fromBalance */\n      0x00\n        /* \"@openzeppelin/contracts/token/ERC20/ERC20.sol\":7815:7824  _balances */\n      dup1\n        /* \"@openzeppelin/contracts/token/ERC20/ERC20.sol\":7815:7830  _balances[from] */\n      0x00\n        /* \"@openzeppelin/contracts/token/ERC20/ERC20.sol\":7825:7829  from */\n      dup6\n        /* \"@openzeppelin/contracts/token/ERC20/ERC20.sol\":7815:7830  _balances[from] */\n      0xffffffffffffffffffffffffffffffffffffffff\n      and\n      0xffffffffffffffffffffffffffffffffffffffff\n      and\n      dup2\n      mstore\n      0x20\n      add\n      swap1\n      dup2\n      mstore\n      0x20\n      add\n      0x00\n      keccak256\n      sload\n        /* \"@openzeppelin/contracts/token/ERC20/ERC20.sol\":7793:7830  uint256 fromBalance = _balances[from] */\n      swap1\n      pop\n        /* \"@openzeppelin/contracts/token/ERC20/ERC20.sol\":7863:7869  amount */\n      dup2\n        /* \"@openzeppelin/contracts/token/ERC20/ERC20.sol\":7848:7859  fromBalance */\n      dup2\n        /* \"@openzeppelin/contracts/token/ERC20/ERC20.sol\":7848:7869  fromBalance >= amount */\n      lt\n      iszero\n        /* \"@openzeppelin/contracts/token/ERC20/ERC20.sol\":7840:7912  require(fromBalance >= amount, \"ERC20: transfer amount exceeds balance\") */\n      tag_205\n      jumpi\n      mload(0x40)\n      0x08c379a000000000000000000000000000000000000000000000000000000000\n      dup2\n      mstore\n      0x04\n      add\n      tag_206\n      swap1\n      tag_207\n      jump\t// in\n    tag_206:\n      mload(0x40)\n      dup1\n      swap2\n      sub\n      swap1\n      revert\n    tag_205:\n        /* \"@openzeppelin/contracts/token/ERC20/ERC20.sol\":7978:7984  amount */\n      dup2\n        /* \"@openzeppelin/contracts/token/ERC20/ERC20.sol\":7964:7975  fromBalance */\n      dup2\n        /* \"@openzeppelin/contracts/token/ERC20/ERC20.sol\":7964:7984  fromBalance - amount */\n      sub\n        /* \"@openzeppelin/contracts/token/ERC20/ERC20.sol\":7946:7955  _balances */\n      0x00\n        /* \"@openzeppelin/contracts/token/ERC20/ERC20.sol\":7946:7961  _balances[from] */\n      dup1\n        /* \"@openzeppelin/contracts/token/ERC20/ERC20.sol\":7956:7960  from */\n      dup7\n        /* \"@openzeppelin/contracts/token/ERC20/ERC20.sol\":7946:7961  _balances[from] */\n      0xffffffffffffffffffffffffffffffffffffffff\n      and\n      0xffffffffffffffffffffffffffffffffffffffff\n      and\n      dup2\n      mstore\n      0x20\n      add\n      swap1\n      dup2\n      mstore\n      0x20\n      add\n      0x00\n      keccak256\n        /* \"@openzeppelin/contracts/token/ERC20/ERC20.sol\":7946:7984  _balances[from] = fromBalance - amount */\n      dup2\n      swap1\n      sstore\n      pop\n        /* \"@openzeppelin/contracts/token/ERC20/ERC20.sol\":8178:8184  amount */\n      dup2\n        /* \"@openzeppelin/contracts/token/ERC20/ERC20.sol\":8161:8170  _balances */\n      0x00\n        /* \"@openzeppelin/contracts/token/ERC20/ERC20.sol\":8161:8174  _balances[to] */\n      dup1\n        /* \"@openzeppelin/contracts/token/ERC20/ERC20.sol\":8171:8173  to */\n      dup6\n        /* \"@openzeppelin/contracts/token/ERC20/ERC20.sol\":8161:8174  _balances[to] */\n      0xffffffffffffffffffffffffffffffffffffffff\n      and\n      0xffffffffffffffffffffffffffffffffffffffff\n      and\n      dup2\n      mstore\n      0x20\n      add\n      swap1\n      dup2\n      mstore\n      0x20\n      add\n      0x00\n      keccak256\n      0x00\n        /* \"@openzeppelin/contracts/token/ERC20/ERC20.sol\":8161:8184  _balances[to] += amount */\n      dup3\n      dup3\n      sload\n      add\n      swap3\n      pop\n      pop\n      dup2\n      swap1\n      sstore\n      pop\n        /* \"@openzeppelin/contracts/token/ERC20/ERC20.sol\":8225:8227  to */\n      dup3\n        /* \"@openzeppelin/contracts/token/ERC20/ERC20.sol\":8210:8236  Transfer(from, to, amount) */\n      0xffffffffffffffffffffffffffffffffffffffff\n      and\n        /* \"@openzeppelin/contracts/token/ERC20/ERC20.sol\":8219:8223  from */\n      dup5\n        /* \"@openzeppelin/contracts/token/ERC20/ERC20.sol\":8210:8236  Transfer(from, to, amount) */\n      0xffffffffffffffffffffffffffffffffffffffff\n      and\n      0xddf252ad1be2c89b69c2b068fc378daa952ba7f163c4a11628f55a4df523b3ef\n        /* \"@openzeppelin/contracts/token/ERC20/ERC20.sol\":8229:8235  amount */\n      dup5\n        /* \"@openzeppelin/contracts/token/ERC20/ERC20.sol\":8210:8236  Transfer(from, to, amount) */\n      mload(0x40)\n      tag_208\n      swap2\n      swap1\n      tag_40\n      jump\t// in\n    tag_208:\n      mload(0x40)\n      dup1\n      swap2\n      sub\n      swap1\n      log3\n        /* \"@openzeppelin/contracts/token/ERC20/ERC20.sol\":8247:8284  _afterTokenTransfer(from, to, amount) */\n      tag_209\n        /* \"@openzeppelin/contracts/token/ERC20/ERC20.sol\":8267:8271  from */\n      dup5\n        /* \"@openzeppelin/contracts/token/ERC20/ERC20.sol\":8273:8275  to */\n      dup5\n        /* \"@openzeppelin/contracts/token/ERC20/ERC20.sol\":8277:8283  amount */\n      dup5\n        /* \"@openzeppelin/contracts/token/ERC20/ERC20.sol\":8247:8266  _afterTokenTransfer */\n      tag_180\n        /* \"@openzeppelin/contracts/token/ERC20/ERC20.sol\":8247:8284  _afterTokenTransfer(from, to, amount) */\n      jump\t// in\n    tag_209:\n        /* \"@openzeppelin/contracts/token/ERC20/ERC20.sol\":7581:8291  {... */\n      pop\n        /* \"@openzeppelin/contracts/token/ERC20/ERC20.sol\":7473:8291  function _transfer(... */\n      pop\n      pop\n      pop\n      jump\t// out\n        /* \"@openzeppelin/contracts/access/Ownable.sol\":2433:2620  function _transferOwnership(address newOwner) internal virtual {... */\n    tag_130:\n        /* \"@openzeppelin/contracts/access/Ownable.sol\":2506:2522  address oldOwner */\n      0x00\n        /* \"@openzeppelin/contracts/access/Ownable.sol\":2525:2531  _owner */\n      0x05\n      0x00\n      swap1\n      sload\n      swap1\n      0x0100\n      exp\n      swap1\n      div\n      0xffffffffffffffffffffffffffffffffffffffff\n      and\n        /* \"@openzeppelin/contracts/access/Ownable.sol\":2506:2531  address oldOwner = _owner */\n      swap1\n      pop\n        /* \"@openzeppelin/contracts/access/Ownable.sol\":2550:2558  newOwner */\n      dup2\n        /* \"@openzeppelin/contracts/access/Ownable.sol\":2541:2547  _owner */\n      0x05\n      0x00\n        /* \"@openzeppelin/contracts/access/Ownable.sol\":2541:2558  _owner = newOwner */\n      0x0100\n      exp\n      dup2\n      sload\n      dup2\n      0xffffffffffffffffffffffffffffffffffffffff\n      mul\n      not\n      and\n      swap1\n      dup4\n      0xffffffffffffffffffffffffffffffffffffffff\n      and\n      mul\n      or\n      swap1\n      sstore\n      pop\n        /* \"@openzeppelin/contracts/access/Ownable.sol\":2604:2612  newOwner */\n      dup2\n        /* \"@openzeppelin/contracts/access/Ownable.sol\":2573:2613  OwnershipTransferred(oldOwner, newOwner) */\n      0xffffffffffffffffffffffffffffffffffffffff\n      and\n        /* \"@openzeppelin/contracts/access/Ownable.sol\":2594:2602  oldOwner */\n      dup2\n        /* \"@openzeppelin/contracts/access/Ownable.sol\":2573:2613  OwnershipTransferred(oldOwner, newOwner) */\n      0xffffffffffffffffffffffffffffffffffffffff\n      and\n      0x8be0079c531659141344cd1fd0a4f28419497f9722a3daafe3b4186f6b6457e0\n      mload(0x40)\n      mload(0x40)\n      dup1\n      swap2\n      sub\n      swap1\n      log3\n        /* \"@openzeppelin/contracts/access/Ownable.sol\":2496:2620  {... */\n      pop\n        /* \"@openzeppelin/contracts/access/Ownable.sol\":2433:2620  function _transferOwnership(address newOwner) internal virtual {... */\n      pop\n      jump\t// out\n        /* \"@openzeppelin/contracts/token/ERC20/ERC20.sol\":9422:10081  function _burn(address account, uint256 amount) internal virtual {... */\n    tag_133:\n        /* \"@openzeppelin/contracts/token/ERC20/ERC20.sol\":9524:9525  0 */\n      0x00\n        /* \"@openzeppelin/contracts/token/ERC20/ERC20.sol\":9505:9526  account != address(0) */\n      0xffffffffffffffffffffffffffffffffffffffff\n      and\n        /* \"@openzeppelin/contracts/token/ERC20/ERC20.sol\":9505:9512  account */\n      dup3\n        /* \"@openzeppelin/contracts/token/ERC20/ERC20.sol\":9505:9526  account != address(0) */\n      0xffffffffffffffffffffffffffffffffffffffff\n      and\n      eq\n      iszero\n        /* \"@openzeppelin/contracts/token/ERC20/ERC20.sol\":9497:9564  require(account != address(0), \"ERC20: burn from the zero address\") */\n      tag_212\n      jumpi\n      mload(0x40)\n      0x08c379a000000000000000000000000000000000000000000000000000000000\n      dup2\n      mstore\n      0x04\n      add\n      tag_213\n      swap1\n      tag_214\n      jump\t// in\n    tag_213:\n      mload(0x40)\n      dup1\n      swap2\n      sub\n      swap1\n      revert\n    tag_212:\n        /* \"@openzeppelin/contracts/token/ERC20/ERC20.sol\":9575:9624  _beforeTokenTransfer(account, address(0), amount) */\n      tag_215\n        /* \"@openzeppelin/contracts/token/ERC20/ERC20.sol\":9596:9603  account */\n      dup3\n        /* \"@openzeppelin/contracts/token/ERC20/ERC20.sol\":9613:9614  0 */\n      0x00\n        /* \"@openzeppelin/contracts/token/ERC20/ERC20.sol\":9617:9623  amount */\n      dup4\n        /* \"@openzeppelin/contracts/token/ERC20/ERC20.sol\":9575:9595  _beforeTokenTransfer */\n      tag_176\n        /* \"@openzeppelin/contracts/token/ERC20/ERC20.sol\":9575:9624  _beforeTokenTransfer(account, address(0), amount) */\n      jump\t// in\n    tag_215:\n        /* \"@openzeppelin/contracts/token/ERC20/ERC20.sol\":9635:9657  uint256 accountBalance */\n      0x00\n        /* \"@openzeppelin/contracts/token/ERC20/ERC20.sol\":9660:9669  _balances */\n      dup1\n        /* \"@openzeppelin/contracts/token/ERC20/ERC20.sol\":9660:9678  _balances[account] */\n      0x00\n        /* \"@openzeppelin/contracts/token/ERC20/ERC20.sol\":9670:9677  account */\n      dup5\n        /* \"@openzeppelin/contracts/token/ERC20/ERC20.sol\":9660:9678  _balances[account] */\n      0xffffffffffffffffffffffffffffffffffffffff\n      and\n      0xffffffffffffffffffffffffffffffffffffffff\n      and\n      dup2\n      mstore\n      0x20\n      add\n      swap1\n      dup2\n      mstore\n      0x20\n      add\n      0x00\n      keccak256\n      sload\n        /* \"@openzeppelin/contracts/token/ERC20/ERC20.sol\":9635:9678  uint256 accountBalance = _balances[account] */\n      swap1\n      pop\n        /* \"@openzeppelin/contracts/token/ERC20/ERC20.sol\":9714:9720  amount */\n      dup2\n        /* \"@openzeppelin/contracts/token/ERC20/ERC20.sol\":9696:9710  accountBalance */\n      dup2\n        /* \"@openzeppelin/contracts/token/ERC20/ERC20.sol\":9696:9720  accountBalance >= amount */\n      lt\n      iszero\n        /* \"@openzeppelin/contracts/token/ERC20/ERC20.sol\":9688:9759  require(accountBalance >= amount, \"ERC20: burn amount exceeds balance\") */\n      tag_216\n      jumpi\n      mload(0x40)\n      0x08c379a000000000000000000000000000000000000000000000000000000000\n      dup2\n      mstore\n      0x04\n      add\n      tag_217\n      swap1\n      tag_218\n      jump\t// in\n    tag_217:\n      mload(0x40)\n      dup1\n      swap2\n      sub\n      swap1\n      revert\n    tag_216:\n        /* \"@openzeppelin/contracts/token/ERC20/ERC20.sol\":9831:9837  amount */\n      dup2\n        /* \"@openzeppelin/contracts/token/ERC20/ERC20.sol\":9814:9828  accountBalance */\n      dup2\n        /* \"@openzeppelin/contracts/token/ERC20/ERC20.sol\":9814:9837  accountBalance - amount */\n      sub\n        /* \"@openzeppelin/contracts/token/ERC20/ERC20.sol\":9793:9802  _balances */\n      0x00\n        /* \"@openzeppelin/contracts/token/ERC20/ERC20.sol\":9793:9811  _balances[account] */\n      dup1\n        /* \"@openzeppelin/contracts/token/ERC20/ERC20.sol\":9803:9810  account */\n      dup6\n        /* \"@openzeppelin/contracts/token/ERC20/ERC20.sol\":9793:9811  _balances[account] */\n      0xffffffffffffffffffffffffffffffffffffffff\n      and\n      0xffffffffffffffffffffffffffffffffffffffff\n      and\n      dup2\n      mstore\n      0x20\n      add\n      swap1\n      dup2\n      mstore\n      0x20\n      add\n      0x00\n      keccak256\n        /* \"@openzeppelin/contracts/token/ERC20/ERC20.sol\":9793:9837  _balances[account] = accountBalance - amount */\n      dup2\n      swap1\n      sstore\n      pop\n        /* \"@openzeppelin/contracts/token/ERC20/ERC20.sol\":9946:9952  amount */\n      dup2\n        /* \"@openzeppelin/contracts/token/ERC20/ERC20.sol\":9930:9942  _totalSupply */\n      0x02\n      0x00\n        /* \"@openzeppelin/contracts/token/ERC20/ERC20.sol\":9930:9952  _totalSupply -= amount */\n      dup3\n      dup3\n      sload\n      sub\n      swap3\n      pop\n      pop\n      dup2\n      swap1\n      sstore\n      pop\n        /* \"@openzeppelin/contracts/token/ERC20/ERC20.sol\":10004:10005  0 */\n      0x00\n        /* \"@openzeppelin/contracts/token/ERC20/ERC20.sol\":9978:10015  Transfer(account, address(0), amount) */\n      0xffffffffffffffffffffffffffffffffffffffff\n      and\n        /* \"@openzeppelin/contracts/token/ERC20/ERC20.sol\":9987:9994  account */\n      dup4\n        /* \"@openzeppelin/contracts/token/ERC20/ERC20.sol\":9978:10015  Transfer(account, address(0), amount) */\n      0xffffffffffffffffffffffffffffffffffffffff\n      and\n      0xddf252ad1be2c89b69c2b068fc378daa952ba7f163c4a11628f55a4df523b3ef\n        /* \"@openzeppelin/contracts/token/ERC20/ERC20.sol\":10008:10014  amount */\n      dup5\n        /* \"@openzeppelin/contracts/token/ERC20/ERC20.sol\":9978:10015  Transfer(account, address(0), amount) */\n      mload(0x40)\n      tag_219\n      swap2\n      swap1\n      tag_40\n      jump\t// in\n    tag_219:\n      mload(0x40)\n      dup1\n      swap2\n      sub\n      swap1\n      log3\n        /* \"@openzeppelin/contracts/token/ERC20/ERC20.sol\":10026:10074  _afterTokenTransfer(account, address(0), amount) */\n      tag_220\n        /* \"@openzeppelin/contracts/token/ERC20/ERC20.sol\":10046:10053  account */\n      dup4\n        /* \"@openzeppelin/contracts/token/ERC20/ERC20.sol\":10063:10064  0 */\n      0x00\n        /* \"@openzeppelin/contracts/token/ERC20/ERC20.sol\":10067:10073  amount */\n      dup5\n        /* \"@openzeppelin/contracts/token/ERC20/ERC20.sol\":10026:10045  _afterTokenTransfer */\n      tag_180\n        /* \"@openzeppelin/contracts/token/ERC20/ERC20.sol\":10026:10074  _afterTokenTransfer(account, address(0), amount) */\n      jump\t// in\n    tag_220:\n        /* \"@openzeppelin/contracts/token/ERC20/ERC20.sol\":9487:10081  {... */\n      pop\n        /* \"@openzeppelin/contracts/token/ERC20/ERC20.sol\":9422:10081  function _burn(address account, uint256 amount) internal virtual {... */\n      pop\n      pop\n      jump\t// out\n        /* \"@openzeppelin/contracts/token/ERC20/ERC20.sol\":12180:12301  function _beforeTokenTransfer(... */\n    tag_176:\n      pop\n      pop\n      pop\n      jump\t// out\n        /* \"@openzeppelin/contracts/token/ERC20/ERC20.sol\":12889:13009  function _afterTokenTransfer(... */\n    tag_180:\n      pop\n      pop\n      pop\n      jump\t// out\n        /* \"#utility.yul\":7:146   */\n    tag_224:\n        /* \"#utility.yul\":53:58   */\n      0x00\n        /* \"#utility.yul\":91:97   */\n      dup2\n        /* \"#utility.yul\":78:98   */\n      calldataload\n        /* \"#utility.yul\":69:98   */\n      swap1\n      pop\n        /* \"#utility.yul\":107:140   */\n      tag_226\n        /* \"#utility.yul\":134:139   */\n      dup2\n        /* \"#utility.yul\":107:140   */\n      tag_227\n      jump\t// in\n    tag_226:\n        /* \"#utility.yul\":7:146   */\n      swap3\n      swap2\n      pop\n      pop\n      jump\t// out\n        /* \"#utility.yul\":152:291   */\n    tag_228:\n        /* \"#utility.yul\":198:203   */\n      0x00\n        /* \"#utility.yul\":236:242   */\n      dup2\n        /* \"#utility.yul\":223:243   */\n      calldataload\n        /* \"#utility.yul\":214:243   */\n      swap1\n      pop\n        /* \"#utility.yul\":252:285   */\n      tag_230\n        /* \"#utility.yul\":279:284   */\n      dup2\n        /* \"#utility.yul\":252:285   */\n      tag_231\n      jump\t// in\n    tag_230:\n        /* \"#utility.yul\":152:291   */\n      swap3\n      swap2\n      pop\n      pop\n      jump\t// out\n        /* \"#utility.yul\":297:626   */\n    tag_56:\n        /* \"#utility.yul\":356:362   */\n      0x00\n        /* \"#utility.yul\":405:407   */\n      0x20\n        /* \"#utility.yul\":393:402   */\n      dup3\n        /* \"#utility.yul\":384:391   */\n      dup5\n        /* \"#utility.yul\":380:403   */\n      sub\n        /* \"#utility.yul\":376:408   */\n      slt\n        /* \"#utility.yul\":373:492   */\n      iszero\n      tag_233\n      jumpi\n        /* \"#utility.yul\":411:490   */\n      tag_234\n      tag_235\n      jump\t// in\n    tag_234:\n        /* \"#utility.yul\":373:492   */\n    tag_233:\n        /* \"#utility.yul\":531:532   */\n      0x00\n        /* \"#utility.yul\":556:609   */\n      tag_236\n        /* \"#utility.yul\":601:608   */\n      dup5\n        /* \"#utility.yul\":592:598   */\n      dup3\n        /* \"#utility.yul\":581:590   */\n      dup6\n        /* \"#utility.yul\":577:599   */\n      add\n        /* \"#utility.yul\":556:609   */\n      tag_224\n      jump\t// in\n    tag_236:\n        /* \"#utility.yul\":546:609   */\n      swap2\n      pop\n        /* \"#utility.yul\":502:619   */\n      pop\n        /* \"#utility.yul\":297:626   */\n      swap3\n      swap2\n      pop\n      pop\n      jump\t// out\n        /* \"#utility.yul\":632:1106   */\n    tag_84:\n        /* \"#utility.yul\":700:706   */\n      0x00\n        /* \"#utility.yul\":708:714   */\n      dup1\n        /* \"#utility.yul\":757:759   */\n      0x40\n        /* \"#utility.yul\":745:754   */\n      dup4\n        /* \"#utility.yul\":736:743   */\n      dup6\n        /* \"#utility.yul\":732:755   */\n      sub\n        /* \"#utility.yul\":728:760   */\n      slt\n        /* \"#utility.yul\":725:844   */\n      iszero\n      tag_238\n      jumpi\n        /* \"#utility.yul\":763:842   */\n      tag_239\n      tag_235\n      jump\t// in\n    tag_239:\n        /* \"#utility.yul\":725:844   */\n    tag_238:\n        /* \"#utility.yul\":883:884   */\n      0x00\n        /* \"#utility.yul\":908:961   */\n      tag_240\n        /* \"#utility.yul\":953:960   */\n      dup6\n        /* \"#utility.yul\":944:950   */\n      dup3\n        /* \"#utility.yul\":933:942   */\n      dup7\n        /* \"#utility.yul\":929:951   */\n      add\n        /* \"#utility.yul\":908:961   */\n      tag_224\n      jump\t// in\n    tag_240:\n        /* \"#utility.yul\":898:961   */\n      swap3\n      pop\n        /* \"#utility.yul\":854:971   */\n      pop\n        /* \"#utility.yul\":1010:1012   */\n      0x20\n        /* \"#utility.yul\":1036:1089   */\n      tag_241\n        /* \"#utility.yul\":1081:1088   */\n      dup6\n        /* \"#utility.yul\":1072:1078   */\n      dup3\n        /* \"#utility.yul\":1061:1070   */\n      dup7\n        /* \"#utility.yul\":1057:1079   */\n      add\n        /* \"#utility.yul\":1036:1089   */\n      tag_224\n      jump\t// in\n    tag_241:\n        /* \"#utility.yul\":1026:1089   */\n      swap2\n      pop\n        /* \"#utility.yul\":981:1099   */\n      pop\n        /* \"#utility.yul\":632:1106   */\n      swap3\n      pop\n      swap3\n      swap1\n      pop\n      jump\t// out\n        /* \"#utility.yul\":1112:1731   */\n    tag_43:\n        /* \"#utility.yul\":1189:1195   */\n      0x00\n        /* \"#utility.yul\":1197:1203   */\n      dup1\n        /* \"#utility.yul\":1205:1211   */\n      0x00\n        /* \"#utility.yul\":1254:1256   */\n      0x60\n        /* \"#utility.yul\":1242:1251   */\n      dup5\n        /* \"#utility.yul\":1233:1240   */\n      dup7\n        /* \"#utility.yul\":1229:1252   */\n      sub\n        /* \"#utility.yul\":1225:1257   */\n      slt\n        /* \"#utility.yul\":1222:1341   */\n      iszero\n      tag_243\n      jumpi\n        /* \"#utility.yul\":1260:1339   */\n      tag_244\n      tag_235\n      jump\t// in\n    tag_244:\n        /* \"#utility.yul\":1222:1341   */\n    tag_243:\n        /* \"#utility.yul\":1380:1381   */\n      0x00\n        /* \"#utility.yul\":1405:1458   */\n      tag_245\n        /* \"#utility.yul\":1450:1457   */\n      dup7\n        /* \"#utility.yul\":1441:1447   */\n      dup3\n        /* \"#utility.yul\":1430:1439   */\n      dup8\n        /* \"#utility.yul\":1426:1448   */\n      add\n        /* \"#utility.yul\":1405:1458   */\n      tag_224\n      jump\t// in\n    tag_245:\n        /* \"#utility.yul\":1395:1458   */\n      swap4\n      pop\n        /* \"#utility.yul\":1351:1468   */\n      pop\n        /* \"#utility.yul\":1507:1509   */\n      0x20\n        /* \"#utility.yul\":1533:1586   */\n      tag_246\n        /* \"#utility.yul\":1578:1585   */\n      dup7\n        /* \"#utility.yul\":1569:1575   */\n      dup3\n        /* \"#utility.yul\":1558:1567   */\n      dup8\n        /* \"#utility.yul\":1554:1576   */\n      add\n        /* \"#utility.yul\":1533:1586   */\n      tag_224\n      jump\t// in\n    tag_246:\n        /* \"#utility.yul\":1523:1586   */\n      swap3\n      pop\n        /* \"#utility.yul\":1478:1596   */\n      pop\n        /* \"#utility.yul\":1635:1637   */\n      0x40\n        /* \"#utility.yul\":1661:1714   */\n      tag_247\n        /* \"#utility.yul\":1706:1713   */\n      dup7\n        /* \"#utility.yul\":1697:1703   */\n      dup3\n        /* \"#utility.yul\":1686:1695   */\n      dup8\n        /* \"#utility.yul\":1682:1704   */\n      add\n        /* \"#utility.yul\":1661:1714   */\n      tag_228\n      jump\t// in\n    tag_247:\n        /* \"#utility.yul\":1651:1714   */\n      swap2\n      pop\n        /* \"#utility.yul\":1606:1724   */\n      pop\n        /* \"#utility.yul\":1112:1731   */\n      swap3\n      pop\n      swap3\n      pop\n      swap3\n      jump\t// out\n        /* \"#utility.yul\":1737:2211   */\n    tag_26:\n        /* \"#utility.yul\":1805:1811   */\n      0x00\n        /* \"#utility.yul\":1813:1819   */\n      dup1\n        /* \"#utility.yul\":1862:1864   */\n      0x40\n        /* \"#utility.yul\":1850:1859   */\n      dup4\n        /* \"#utility.yul\":1841:1848   */\n      dup6\n        /* \"#utility.yul\":1837:1860   */\n      sub\n        /* \"#utility.yul\":1833:1865   */\n      slt\n        /* \"#utility.yul\":1830:1949   */\n      iszero\n      tag_249\n      jumpi\n        /* \"#utility.yul\":1868:1947   */\n      tag_250\n      tag_235\n      jump\t// in\n    tag_250:\n        /* \"#utility.yul\":1830:1949   */\n    tag_249:\n        /* \"#utility.yul\":1988:1989   */\n      0x00\n        /* \"#utility.yul\":2013:2066   */\n      tag_251\n        /* \"#utility.yul\":2058:2065   */\n      dup6\n        /* \"#utility.yul\":2049:2055   */\n      dup3\n        /* \"#utility.yul\":2038:2047   */\n      dup7\n        /* \"#utility.yul\":2034:2056   */\n      add\n        /* \"#utility.yul\":2013:2066   */\n      tag_224\n      jump\t// in\n    tag_251:\n        /* \"#utility.yul\":2003:2066   */\n      swap3\n      pop\n        /* \"#utility.yul\":1959:2076   */\n      pop\n        /* \"#utility.yul\":2115:2117   */\n      0x20\n        /* \"#utility.yul\":2141:2194   */\n      tag_252\n        /* \"#utility.yul\":2186:2193   */\n      dup6\n        /* \"#utility.yul\":2177:2183   */\n      dup3\n        /* \"#utility.yul\":2166:2175   */\n      dup7\n        /* \"#utility.yul\":2162:2184   */\n      add\n        /* \"#utility.yul\":2141:2194   */\n      tag_228\n      jump\t// in\n    tag_252:\n        /* \"#utility.yul\":2131:2194   */\n      swap2\n      pop\n        /* \"#utility.yul\":2086:2204   */\n      pop\n        /* \"#utility.yul\":1737:2211   */\n      swap3\n      pop\n      swap3\n      swap1\n      pop\n      jump\t// out\n        /* \"#utility.yul\":2217:2335   */\n    tag_253:\n        /* \"#utility.yul\":2304:2328   */\n      tag_255\n        /* \"#utility.yul\":2322:2327   */\n      dup2\n        /* \"#utility.yul\":2304:2328   */\n      tag_256\n      jump\t// in\n    tag_255:\n        /* \"#utility.yul\":2299:2302   */\n      dup3\n        /* \"#utility.yul\":2292:2329   */\n      mstore\n        /* \"#utility.yul\":2217:2335   */\n      pop\n      pop\n      jump\t// out\n        /* \"#utility.yul\":2341:2450   */\n    tag_257:\n        /* \"#utility.yul\":2422:2443   */\n      tag_259\n        /* \"#utility.yul\":2437:2442   */\n      dup2\n        /* \"#utility.yul\":2422:2443   */\n      tag_260\n      jump\t// in\n    tag_259:\n        /* \"#utility.yul\":2417:2420   */\n      dup3\n        /* \"#utility.yul\":2410:2444   */\n      mstore\n        /* \"#utility.yul\":2341:2450   */\n      pop\n      pop\n      jump\t// out\n        /* \"#utility.yul\":2456:2820   */\n    tag_261:\n        /* \"#utility.yul\":2544:2547   */\n      0x00\n        /* \"#utility.yul\":2572:2611   */\n      tag_263\n        /* \"#utility.yul\":2605:2610   */\n      dup3\n        /* \"#utility.yul\":2572:2611   */\n      tag_264\n      jump\t// in\n    tag_263:\n        /* \"#utility.yul\":2627:2698   */\n      tag_265\n        /* \"#utility.yul\":2691:2697   */\n      dup2\n        /* \"#utility.yul\":2686:2689   */\n      dup6\n        /* \"#utility.yul\":2627:2698   */\n      tag_266\n      jump\t// in\n    tag_265:\n        /* \"#utility.yul\":2620:2698   */\n      swap4\n      pop\n        /* \"#utility.yul\":2707:2759   */\n      tag_267\n        /* \"#utility.yul\":2752:2758   */\n      dup2\n        /* \"#utility.yul\":2747:2750   */\n      dup6\n        /* \"#utility.yul\":2740:2744   */\n      0x20\n        /* \"#utility.yul\":2733:2738   */\n      dup7\n        /* \"#utility.yul\":2729:2745   */\n      add\n        /* \"#utility.yul\":2707:2759   */\n      tag_268\n      jump\t// in\n    tag_267:\n        /* \"#utility.yul\":2784:2813   */\n      tag_269\n        /* \"#utility.yul\":2806:2812   */\n      dup2\n        /* \"#utility.yul\":2784:2813   */\n      tag_270\n      jump\t// in\n    tag_269:\n        /* \"#utility.yul\":2779:2782   */\n      dup5\n        /* \"#utility.yul\":2775:2814   */\n      add\n        /* \"#utility.yul\":2768:2814   */\n      swap2\n      pop\n        /* \"#utility.yul\":2548:2820   */\n      pop\n        /* \"#utility.yul\":2456:2820   */\n      swap3\n      swap2\n      pop\n      pop\n      jump\t// out\n        /* \"#utility.yul\":2826:3192   */\n    tag_271:\n        /* \"#utility.yul\":2968:2971   */\n      0x00\n        /* \"#utility.yul\":2989:3056   */\n      tag_273\n        /* \"#utility.yul\":3053:3055   */\n      0x23\n        /* \"#utility.yul\":3048:3051   */\n      dup4\n        /* \"#utility.yul\":2989:3056   */\n      tag_266\n      jump\t// in\n    tag_273:\n        /* \"#utility.yul\":2982:3056   */\n      swap2\n      pop\n        /* \"#utility.yul\":3065:3158   */\n      tag_274\n        /* \"#utility.yul\":3154:3157   */\n      dup3\n        /* \"#utility.yul\":3065:3158   */\n      tag_275\n      jump\t// in\n    tag_274:\n        /* \"#utility.yul\":3183:3185   */\n      0x40\n        /* \"#utility.yul\":3178:3181   */\n      dup3\n        /* \"#utility.yul\":3174:3186   */\n      add\n        /* \"#utility.yul\":3167:3186   */\n      swap1\n      pop\n        /* \"#utility.yul\":2826:3192   */\n      swap2\n      swap1\n      pop\n      jump\t// out\n        /* \"#utility.yul\":3198:3564   */\n    tag_276:\n        /* \"#utility.yul\":3340:3343   */\n      0x00\n        /* \"#utility.yul\":3361:3428   */\n      tag_278\n        /* \"#utility.yul\":3425:3427   */\n      0x22\n        /* \"#utility.yul\":3420:3423   */\n      dup4\n        /* \"#utility.yul\":3361:3428   */\n      tag_266\n      jump\t// in\n    tag_278:\n        /* \"#utility.yul\":3354:3428   */\n      swap2\n      pop\n        /* \"#utility.yul\":3437:3530   */\n      tag_279\n        /* \"#utility.yul\":3526:3529   */\n      dup3\n        /* \"#utility.yul\":3437:3530   */\n      tag_280\n      jump\t// in\n    tag_279:\n        /* \"#utility.yul\":3555:3557   */\n      0x40\n        /* \"#utility.yul\":3550:3553   */\n      dup3\n        /* \"#utility.yul\":3546:3558   */\n      add\n        /* \"#utility.yul\":3539:3558   */\n      swap1\n      pop\n        /* \"#utility.yul\":3198:3564   */\n      swap2\n      swap1\n      pop\n      jump\t// out\n        /* \"#utility.yul\":3570:3936   */\n    tag_281:\n        /* \"#utility.yul\":3712:3715   */\n      0x00\n        /* \"#utility.yul\":3733:3800   */\n      tag_283\n        /* \"#utility.yul\":3797:3799   */\n      0x26\n        /* \"#utility.yul\":3792:3795   */\n      dup4\n        /* \"#utility.yul\":3733:3800   */\n      tag_266\n      jump\t// in\n    tag_283:\n        /* \"#utility.yul\":3726:3800   */\n      swap2\n      pop\n        /* \"#utility.yul\":3809:3902   */\n      tag_284\n        /* \"#utility.yul\":3898:3901   */\n      dup3\n        /* \"#utility.yul\":3809:3902   */\n      tag_285\n      jump\t// in\n    tag_284:\n        /* \"#utility.yul\":3927:3929   */\n      0x40\n        /* \"#utility.yul\":3922:3925   */\n      dup3\n        /* \"#utility.yul\":3918:3930   */\n      add\n        /* \"#utility.yul\":3911:3930   */\n      swap1\n      pop\n        /* \"#utility.yul\":3570:3936   */\n      swap2\n      swap1\n      pop\n      jump\t// out\n        /* \"#utility.yul\":3942:4308   */\n    tag_286:\n        /* \"#utility.yul\":4084:4087   */\n      0x00\n        /* \"#utility.yul\":4105:4172   */\n      tag_288\n        /* \"#utility.yul\":4169:4171   */\n      0x22\n        /* \"#utility.yul\":4164:4167   */\n      dup4\n        /* \"#utility.yul\":4105:4172   */\n      tag_266\n      jump\t// in\n    tag_288:\n        /* \"#utility.yul\":4098:4172   */\n      swap2\n      pop\n        /* \"#utility.yul\":4181:4274   */\n      tag_289\n        /* \"#utility.yul\":4270:4273   */\n      dup3\n        /* \"#utility.yul\":4181:4274   */\n      tag_290\n      jump\t// in\n    tag_289:\n        /* \"#utility.yul\":4299:4301   */\n      0x40\n        /* \"#utility.yul\":4294:4297   */\n      dup3\n        /* \"#utility.yul\":4290:4302   */\n      add\n        /* \"#utility.yul\":4283:4302   */\n      swap1\n      pop\n        /* \"#utility.yul\":3942:4308   */\n      swap2\n      swap1\n      pop\n      jump\t// out\n        /* \"#utility.yul\":4314:4680   */\n    tag_291:\n        /* \"#utility.yul\":4456:4459   */\n      0x00\n        /* \"#utility.yul\":4477:4544   */\n      tag_293\n        /* \"#utility.yul\":4541:4543   */\n      0x1d\n        /* \"#utility.yul\":4536:4539   */\n      dup4\n        /* \"#utility.yul\":4477:4544   */\n      tag_266\n      jump\t// in\n    tag_293:\n        /* \"#utility.yul\":4470:4544   */\n      swap2\n      pop\n        /* \"#utility.yul\":4553:4646   */\n      tag_294\n        /* \"#utility.yul\":4642:4645   */\n      dup3\n        /* \"#utility.yul\":4553:4646   */\n      tag_295\n      jump\t// in\n    tag_294:\n        /* \"#utility.yul\":4671:4673   */\n      0x20\n        /* \"#utility.yul\":4666:4669   */\n      dup3\n        /* \"#utility.yul\":4662:4674   */\n      add\n        /* \"#utility.yul\":4655:4674   */\n      swap1\n      pop\n        /* \"#utility.yul\":4314:4680   */\n      swap2\n      swap1\n      pop\n      jump\t// out\n        /* \"#utility.yul\":4686:5052   */\n    tag_296:\n        /* \"#utility.yul\":4828:4831   */\n      0x00\n        /* \"#utility.yul\":4849:4916   */\n      tag_298\n        /* \"#utility.yul\":4913:4915   */\n      0x26\n        /* \"#utility.yul\":4908:4911   */\n      dup4\n        /* \"#utility.yul\":4849:4916   */\n      tag_266\n      jump\t// in\n    tag_298:\n        /* \"#utility.yul\":4842:4916   */\n      swap2\n      pop\n        /* \"#utility.yul\":4925:5018   */\n      tag_299\n        /* \"#utility.yul\":5014:5017   */\n      dup3\n        /* \"#utility.yul\":4925:5018   */\n      tag_300\n      jump\t// in\n    tag_299:\n        /* \"#utility.yul\":5043:5045   */\n      0x40\n        /* \"#utility.yul\":5038:5041   */\n      dup3\n        /* \"#utility.yul\":5034:5046   */\n      add\n        /* \"#utility.yul\":5027:5046   */\n      swap1\n      pop\n        /* \"#utility.yul\":4686:5052   */\n      swap2\n      swap1\n      pop\n      jump\t// out\n        /* \"#utility.yul\":5058:5424   */\n    tag_301:\n        /* \"#utility.yul\":5200:5203   */\n      0x00\n        /* \"#utility.yul\":5221:5288   */\n      tag_303\n        /* \"#utility.yul\":5285:5287   */\n      0x20\n        /* \"#utility.yul\":5280:5283   */\n      dup4\n        /* \"#utility.yul\":5221:5288   */\n      tag_266\n      jump\t// in\n    tag_303:\n        /* \"#utility.yul\":5214:5288   */\n      swap2\n      pop\n        /* \"#utility.yul\":5297:5390   */\n      tag_304\n        /* \"#utility.yul\":5386:5389   */\n      dup3\n        /* \"#utility.yul\":5297:5390   */\n      tag_305\n      jump\t// in\n    tag_304:\n        /* \"#utility.yul\":5415:5417   */\n      0x20\n        /* \"#utility.yul\":5410:5413   */\n      dup3\n        /* \"#utility.yul\":5406:5418   */\n      add\n        /* \"#utility.yul\":5399:5418   */\n      swap1\n      pop\n        /* \"#utility.yul\":5058:5424   */\n      swap2\n      swap1\n      pop\n      jump\t// out\n        /* \"#utility.yul\":5430:5796   */\n    tag_306:\n        /* \"#utility.yul\":5572:5575   */\n      0x00\n        /* \"#utility.yul\":5593:5660   */\n      tag_308\n        /* \"#utility.yul\":5657:5659   */\n      0x21\n        /* \"#utility.yul\":5652:5655   */\n      dup4\n        /* \"#utility.yul\":5593:5660   */\n      tag_266\n      jump\t// in\n    tag_308:\n        /* \"#utility.yul\":5586:5660   */\n      swap2\n      pop\n        /* \"#utility.yul\":5669:5762   */\n      tag_309\n        /* \"#utility.yul\":5758:5761   */\n      dup3\n        /* \"#utility.yul\":5669:5762   */\n      tag_310\n      jump\t// in\n    tag_309:\n        /* \"#utility.yul\":5787:5789   */\n      0x40\n        /* \"#utility.yul\":5782:5785   */\n      dup3\n        /* \"#utility.yul\":5778:5790   */\n      add\n        /* \"#utility.yul\":5771:5790   */\n      swap1\n      pop\n        /* \"#utility.yul\":5430:5796   */\n      swap2\n      swap1\n      pop\n      jump\t// out\n        /* \"#utility.yul\":5802:6168   */\n    tag_311:\n        /* \"#utility.yul\":5944:5947   */\n      0x00\n        /* \"#utility.yul\":5965:6032   */\n      tag_313\n        /* \"#utility.yul\":6029:6031   */\n      0x25\n        /* \"#utility.yul\":6024:6027   */\n      dup4\n        /* \"#utility.yul\":5965:6032   */\n      tag_266\n      jump\t// in\n    tag_313:\n        /* \"#utility.yul\":5958:6032   */\n      swap2\n      pop\n        /* \"#utility.yul\":6041:6134   */\n      tag_314\n        /* \"#utility.yul\":6130:6133   */\n      dup3\n        /* \"#utility.yul\":6041:6134   */\n      tag_315\n      jump\t// in\n    tag_314:\n        /* \"#utility.yul\":6159:6161   */\n      0x40\n        /* \"#utility.yul\":6154:6157   */\n      dup3\n        /* \"#utility.yul\":6150:6162   */\n      add\n        /* \"#utility.yul\":6143:6162   */\n      swap1\n      pop\n        /* \"#utility.yul\":5802:6168   */\n      swap2\n      swap1\n      pop\n      jump\t// out\n        /* \"#utility.yul\":6174:6540   */\n    tag_316:\n        /* \"#utility.yul\":6316:6319   */\n      0x00\n        /* \"#utility.yul\":6337:6404   */\n      tag_318\n        /* \"#utility.yul\":6401:6403   */\n      0x24\n        /* \"#utility.yul\":6396:6399   */\n      dup4\n        /* \"#utility.yul\":6337:6404   */\n      tag_266\n      jump\t// in\n    tag_318:\n        /* \"#utility.yul\":6330:6404   */\n      swap2\n      pop\n        /* \"#utility.yul\":6413:6506   */\n      tag_319\n        /* \"#utility.yul\":6502:6505   */\n      dup3\n        /* \"#utility.yul\":6413:6506   */\n      tag_320\n      jump\t// in\n    tag_319:\n        /* \"#utility.yul\":6531:6533   */\n      0x40\n        /* \"#utility.yul\":6526:6529   */\n      dup3\n        /* \"#utility.yul\":6522:6534   */\n      add\n        /* \"#utility.yul\":6515:6534   */\n      swap1\n      pop\n        /* \"#utility.yul\":6174:6540   */\n      swap2\n      swap1\n      pop\n      jump\t// out\n        /* \"#utility.yul\":6546:6912   */\n    tag_321:\n        /* \"#utility.yul\":6688:6691   */\n      0x00\n        /* \"#utility.yul\":6709:6776   */\n      tag_323\n        /* \"#utility.yul\":6773:6775   */\n      0x25\n        /* \"#utility.yul\":6768:6771   */\n      dup4\n        /* \"#utility.yul\":6709:6776   */\n      tag_266\n      jump\t// in\n    tag_323:\n        /* \"#utility.yul\":6702:6776   */\n      swap2\n      pop\n        /* \"#utility.yul\":6785:6878   */\n      tag_324\n        /* \"#utility.yul\":6874:6877   */\n      dup3\n        /* \"#utility.yul\":6785:6878   */\n      tag_325\n      jump\t// in\n    tag_324:\n        /* \"#utility.yul\":6903:6905   */\n      0x40\n        /* \"#utility.yul\":6898:6901   */\n      dup3\n        /* \"#utility.yul\":6894:6906   */\n      add\n        /* \"#utility.yul\":6887:6906   */\n      swap1\n      pop\n        /* \"#utility.yul\":6546:6912   */\n      swap2\n      swap1\n      pop\n      jump\t// out\n        /* \"#utility.yul\":6918:7284   */\n    tag_326:\n        /* \"#utility.yul\":7060:7063   */\n      0x00\n        /* \"#utility.yul\":7081:7148   */\n      tag_328\n        /* \"#utility.yul\":7145:7147   */\n      0x1f\n        /* \"#utility.yul\":7140:7143   */\n      dup4\n        /* \"#utility.yul\":7081:7148   */\n      tag_266\n      jump\t// in\n    tag_328:\n        /* \"#utility.yul\":7074:7148   */\n      swap2\n      pop\n        /* \"#utility.yul\":7157:7250   */\n      tag_329\n        /* \"#utility.yul\":7246:7249   */\n      dup3\n        /* \"#utility.yul\":7157:7250   */\n      tag_330\n      jump\t// in\n    tag_329:\n        /* \"#utility.yul\":7275:7277   */\n      0x20\n        /* \"#utility.yul\":7270:7273   */\n      dup3\n        /* \"#utility.yul\":7266:7278   */\n      add\n        /* \"#utility.yul\":7259:7278   */\n      swap1\n      pop\n        /* \"#utility.yul\":6918:7284   */\n      swap2\n      swap1\n      pop\n      jump\t// out\n        /* \"#utility.yul\":7290:7408   */\n    tag_331:\n        /* \"#utility.yul\":7377:7401   */\n      tag_333\n        /* \"#utility.yul\":7395:7400   */\n      dup2\n        /* \"#utility.yul\":7377:7401   */\n      tag_334\n      jump\t// in\n    tag_333:\n        /* \"#utility.yul\":7372:7375   */\n      dup3\n        /* \"#utility.yul\":7365:7402   */\n      mstore\n        /* \"#utility.yul\":7290:7408   */\n      pop\n      pop\n      jump\t// out\n        /* \"#utility.yul\":7414:7526   */\n    tag_335:\n        /* \"#utility.yul\":7497:7519   */\n      tag_337\n        /* \"#utility.yul\":7513:7518   */\n      dup2\n        /* \"#utility.yul\":7497:7519   */\n      tag_338\n      jump\t// in\n    tag_337:\n        /* \"#utility.yul\":7492:7495   */\n      dup3\n        /* \"#utility.yul\":7485:7520   */\n      mstore\n        /* \"#utility.yul\":7414:7526   */\n      pop\n      pop\n      jump\t// out\n        /* \"#utility.yul\":7532:7754   */\n    tag_67:\n        /* \"#utility.yul\":7625:7629   */\n      0x00\n        /* \"#utility.yul\":7663:7665   */\n      0x20\n        /* \"#utility.yul\":7652:7661   */\n      dup3\n        /* \"#utility.yul\":7648:7666   */\n      add\n        /* \"#utility.yul\":7640:7666   */\n      swap1\n      pop\n        /* \"#utility.yul\":7676:7747   */\n      tag_340\n        /* \"#utility.yul\":7744:7745   */\n      0x00\n        /* \"#utility.yul\":7733:7742   */\n      dup4\n        /* \"#utility.yul\":7729:7746   */\n      add\n        /* \"#utility.yul\":7720:7726   */\n      dup5\n        /* \"#utility.yul\":7676:7747   */\n      tag_253\n      jump\t// in\n    tag_340:\n        /* \"#utility.yul\":7532:7754   */\n      swap3\n      swap2\n      pop\n      pop\n      jump\t// out\n        /* \"#utility.yul\":7760:7970   */\n    tag_36:\n        /* \"#utility.yul\":7847:7851   */\n      0x00\n        /* \"#utility.yul\":7885:7887   */\n      0x20\n        /* \"#utility.yul\":7874:7883   */\n      dup3\n        /* \"#utility.yul\":7870:7888   */\n      add\n        /* \"#utility.yul\":7862:7888   */\n      swap1\n      pop\n        /* \"#utility.yul\":7898:7963   */\n      tag_342\n        /* \"#utility.yul\":7960:7961   */\n      0x00\n        /* \"#utility.yul\":7949:7958   */\n      dup4\n        /* \"#utility.yul\":7945:7962   */\n      add\n        /* \"#utility.yul\":7936:7942   */\n      dup5\n        /* \"#utility.yul\":7898:7963   */\n      tag_257\n      jump\t// in\n    tag_342:\n        /* \"#utility.yul\":7760:7970   */\n      swap3\n      swap2\n      pop\n      pop\n      jump\t// out\n        /* \"#utility.yul\":7976:8289   */\n    tag_31:\n        /* \"#utility.yul\":8089:8093   */\n      0x00\n        /* \"#utility.yul\":8127:8129   */\n      0x20\n        /* \"#utility.yul\":8116:8125   */\n      dup3\n        /* \"#utility.yul\":8112:8130   */\n      add\n        /* \"#utility.yul\":8104:8130   */\n      swap1\n      pop\n        /* \"#utility.yul\":8176:8185   */\n      dup2\n        /* \"#utility.yul\":8170:8174   */\n      dup2\n        /* \"#utility.yul\":8166:8186   */\n      sub\n        /* \"#utility.yul\":8162:8163   */\n      0x00\n        /* \"#utility.yul\":8151:8160   */\n      dup4\n        /* \"#utility.yul\":8147:8164   */\n      add\n        /* \"#utility.yul\":8140:8187   */\n      mstore\n        /* \"#utility.yul\":8204:8282   */\n      tag_344\n        /* \"#utility.yul\":8277:8281   */\n      dup2\n        /* \"#utility.yul\":8268:8274   */\n      dup5\n        /* \"#utility.yul\":8204:8282   */\n      tag_261\n      jump\t// in\n    tag_344:\n        /* \"#utility.yul\":8196:8282   */\n      swap1\n      pop\n        /* \"#utility.yul\":7976:8289   */\n      swap3\n      swap2\n      pop\n      pop\n      jump\t// out\n        /* \"#utility.yul\":8295:8714   */\n    tag_203:\n        /* \"#utility.yul\":8461:8465   */\n      0x00\n        /* \"#utility.yul\":8499:8501   */\n      0x20\n        /* \"#utility.yul\":8488:8497   */\n      dup3\n        /* \"#utility.yul\":8484:8502   */\n      add\n        /* \"#utility.yul\":8476:8502   */\n      swap1\n      pop\n        /* \"#utility.yul\":8548:8557   */\n      dup2\n        /* \"#utility.yul\":8542:8546   */\n      dup2\n        /* \"#utility.yul\":8538:8558   */\n      sub\n        /* \"#utility.yul\":8534:8535   */\n      0x00\n        /* \"#utility.yul\":8523:8532   */\n      dup4\n        /* \"#utility.yul\":8519:8536   */\n      add\n        /* \"#utility.yul\":8512:8559   */\n      mstore\n        /* \"#utility.yul\":8576:8707   */\n      tag_346\n        /* \"#utility.yul\":8702:8706   */\n      dup2\n        /* \"#utility.yul\":8576:8707   */\n      tag_271\n      jump\t// in\n    tag_346:\n        /* \"#utility.yul\":8568:8707   */\n      swap1\n      pop\n        /* \"#utility.yul\":8295:8714   */\n      swap2\n      swap1\n      pop\n      jump\t// out\n        /* \"#utility.yul\":8720:9139   */\n    tag_218:\n        /* \"#utility.yul\":8886:8890   */\n      0x00\n        /* \"#utility.yul\":8924:8926   */\n      0x20\n        /* \"#utility.yul\":8913:8922   */\n      dup3\n        /* \"#utility.yul\":8909:8927   */\n      add\n        /* \"#utility.yul\":8901:8927   */\n      swap1\n      pop\n        /* \"#utility.yul\":8973:8982   */\n      dup2\n        /* \"#utility.yul\":8967:8971   */\n      dup2\n        /* \"#utility.yul\":8963:8983   */\n      sub\n        /* \"#utility.yul\":8959:8960   */\n      0x00\n        /* \"#utility.yul\":8948:8957   */\n      dup4\n        /* \"#utility.yul\":8944:8961   */\n      add\n        /* \"#utility.yul\":8937:8984   */\n      mstore\n        /* \"#utility.yul\":9001:9132   */\n      tag_348\n        /* \"#utility.yul\":9127:9131   */\n      dup2\n        /* \"#utility.yul\":9001:9132   */\n      tag_276\n      jump\t// in\n    tag_348:\n        /* \"#utility.yul\":8993:9132   */\n      swap1\n      pop\n        /* \"#utility.yul\":8720:9139   */\n      swap2\n      swap1\n      pop\n      jump\t// out\n        /* \"#utility.yul\":9145:9564   */\n    tag_161:\n        /* \"#utility.yul\":9311:9315   */\n      0x00\n        /* \"#utility.yul\":9349:9351   */\n      0x20\n        /* \"#utility.yul\":9338:9347   */\n      dup3\n        /* \"#utility.yul\":9334:9352   */\n      add\n        /* \"#utility.yul\":9326:9352   */\n      swap1\n      pop\n        /* \"#utility.yul\":9398:9407   */\n      dup2\n        /* \"#utility.yul\":9392:9396   */\n      dup2\n        /* \"#utility.yul\":9388:9408   */\n      sub\n        /* \"#utility.yul\":9384:9385   */\n      0x00\n        /* \"#utility.yul\":9373:9382   */\n      dup4\n        /* \"#utility.yul\":9369:9386   */\n      add\n        /* \"#utility.yul\":9362:9409   */\n      mstore\n        /* \"#utility.yul\":9426:9557   */\n      tag_350\n        /* \"#utility.yul\":9552:9556   */\n      dup2\n        /* \"#utility.yul\":9426:9557   */\n      tag_281\n      jump\t// in\n    tag_350:\n        /* \"#utility.yul\":9418:9557   */\n      swap1\n      pop\n        /* \"#utility.yul\":9145:9564   */\n      swap2\n      swap1\n      pop\n      jump\t// out\n        /* \"#utility.yul\":9570:9989   */\n    tag_188:\n        /* \"#utility.yul\":9736:9740   */\n      0x00\n        /* \"#utility.yul\":9774:9776   */\n      0x20\n        /* \"#utility.yul\":9763:9772   */\n      dup3\n        /* \"#utility.yul\":9759:9777   */\n      add\n        /* \"#utility.yul\":9751:9777   */\n      swap1\n      pop\n        /* \"#utility.yul\":9823:9832   */\n      dup2\n        /* \"#utility.yul\":9817:9821   */\n      dup2\n        /* \"#utility.yul\":9813:9833   */\n      sub\n        /* \"#utility.yul\":9809:9810   */\n      0x00\n        /* \"#utility.yul\":9798:9807   */\n      dup4\n        /* \"#utility.yul\":9794:9811   */\n      add\n        /* \"#utility.yul\":9787:9834   */\n      mstore\n        /* \"#utility.yul\":9851:9982   */\n      tag_352\n        /* \"#utility.yul\":9977:9981   */\n      dup2\n        /* \"#utility.yul\":9851:9982   */\n      tag_286\n      jump\t// in\n    tag_352:\n        /* \"#utility.yul\":9843:9982   */\n      swap1\n      pop\n        /* \"#utility.yul\":9570:9989   */\n      swap2\n      swap1\n      pop\n      jump\t// out\n        /* \"#utility.yul\":9995:10414   */\n    tag_195:\n        /* \"#utility.yul\":10161:10165   */\n      0x00\n        /* \"#utility.yul\":10199:10201   */\n      0x20\n        /* \"#utility.yul\":10188:10197   */\n      dup3\n        /* \"#utility.yul\":10184:10202   */\n      add\n        /* \"#utility.yul\":10176:10202   */\n      swap1\n      pop\n        /* \"#utility.yul\":10248:10257   */\n      dup2\n        /* \"#utility.yul\":10242:10246   */\n      dup2\n        /* \"#utility.yul\":10238:10258   */\n      sub\n        /* \"#utility.yul\":10234:10235   */\n      0x00\n        /* \"#utility.yul\":10223:10232   */\n      dup4\n        /* \"#utility.yul\":10219:10236   */\n      add\n        /* \"#utility.yul\":10212:10259   */\n      mstore\n        /* \"#utility.yul\":10276:10407   */\n      tag_354\n        /* \"#utility.yul\":10402:10406   */\n      dup2\n        /* \"#utility.yul\":10276:10407   */\n      tag_291\n      jump\t// in\n    tag_354:\n        /* \"#utility.yul\":10268:10407   */\n      swap1\n      pop\n        /* \"#utility.yul\":9995:10414   */\n      swap2\n      swap1\n      pop\n      jump\t// out\n        /* \"#utility.yul\":10420:10839   */\n    tag_207:\n        /* \"#utility.yul\":10586:10590   */\n      0x00\n        /* \"#utility.yul\":10624:10626   */\n      0x20\n        /* \"#utility.yul\":10613:10622   */\n      dup3\n        /* \"#utility.yul\":10609:10627   */\n      add\n        /* \"#utility.yul\":10601:10627   */\n      swap1\n      pop\n        /* \"#utility.yul\":10673:10682   */\n      dup2\n        /* \"#utility.yul\":10667:10671   */\n      dup2\n        /* \"#utility.yul\":10663:10683   */\n      sub\n        /* \"#utility.yul\":10659:10660   */\n      0x00\n        /* \"#utility.yul\":10648:10657   */\n      dup4\n        /* \"#utility.yul\":10644:10661   */\n      add\n        /* \"#utility.yul\":10637:10684   */\n      mstore\n        /* \"#utility.yul\":10701:10832   */\n      tag_356\n        /* \"#utility.yul\":10827:10831   */\n      dup2\n        /* \"#utility.yul\":10701:10832   */\n      tag_296\n      jump\t// in\n    tag_356:\n        /* \"#utility.yul\":10693:10832   */\n      swap1\n      pop\n        /* \"#utility.yul\":10420:10839   */\n      swap2\n      swap1\n      pop\n      jump\t// out\n        /* \"#utility.yul\":10845:11264   */\n    tag_170:\n        /* \"#utility.yul\":11011:11015   */\n      0x00\n        /* \"#utility.yul\":11049:11051   */\n      0x20\n        /* \"#utility.yul\":11038:11047   */\n      dup3\n        /* \"#utility.yul\":11034:11052   */\n      add\n        /* \"#utility.yul\":11026:11052   */\n      swap1\n      pop\n        /* \"#utility.yul\":11098:11107   */\n      dup2\n        /* \"#utility.yul\":11092:11096   */\n      dup2\n        /* \"#utility.yul\":11088:11108   */\n      sub\n        /* \"#utility.yul\":11084:11085   */\n      0x00\n        /* \"#utility.yul\":11073:11082   */\n      dup4\n        /* \"#utility.yul\":11069:11086   */\n      add\n        /* \"#utility.yul\":11062:11109   */\n      mstore\n        /* \"#utility.yul\":11126:11257   */\n      tag_358\n        /* \"#utility.yul\":11252:11256   */\n      dup2\n        /* \"#utility.yul\":11126:11257   */\n      tag_301\n      jump\t// in\n    tag_358:\n        /* \"#utility.yul\":11118:11257   */\n      swap1\n      pop\n        /* \"#utility.yul\":10845:11264   */\n      swap2\n      swap1\n      pop\n      jump\t// out\n        /* \"#utility.yul\":11270:11689   */\n    tag_214:\n        /* \"#utility.yul\":11436:11440   */\n      0x00\n        /* \"#utility.yul\":11474:11476   */\n      0x20\n        /* \"#utility.yul\":11463:11472   */\n      dup3\n        /* \"#utility.yul\":11459:11477   */\n      add\n        /* \"#utility.yul\":11451:11477   */\n      swap1\n      pop\n        /* \"#utility.yul\":11523:11532   */\n      dup2\n        /* \"#utility.yul\":11517:11521   */\n      dup2\n        /* \"#utility.yul\":11513:11533   */\n      sub\n        /* \"#utility.yul\":11509:11510   */\n      0x00\n        /* \"#utility.yul\":11498:11507   */\n      dup4\n        /* \"#utility.yul\":11494:11511   */\n      add\n        /* \"#utility.yul\":11487:11534   */\n      mstore\n        /* \"#utility.yul\":11551:11682   */\n      tag_360\n        /* \"#utility.yul\":11677:11681   */\n      dup2\n        /* \"#utility.yul\":11551:11682   */\n      tag_306\n      jump\t// in\n    tag_360:\n        /* \"#utility.yul\":11543:11682   */\n      swap1\n      pop\n        /* \"#utility.yul\":11270:11689   */\n      swap2\n      swap1\n      pop\n      jump\t// out\n        /* \"#utility.yul\":11695:12114   */\n    tag_200:\n        /* \"#utility.yul\":11861:11865   */\n      0x00\n        /* \"#utility.yul\":11899:11901   */\n      0x20\n        /* \"#utility.yul\":11888:11897   */\n      dup3\n        /* \"#utility.yul\":11884:11902   */\n      add\n        /* \"#utility.yul\":11876:11902   */\n      swap1\n      pop\n        /* \"#utility.yul\":11948:11957   */\n      dup2\n        /* \"#utility.yul\":11942:11946   */\n      dup2\n        /* \"#utility.yul\":11938:11958   */\n      sub\n        /* \"#utility.yul\":11934:11935   */\n      0x00\n        /* \"#utility.yul\":11923:11932   */\n      dup4\n        /* \"#utility.yul\":11919:11936   */\n      add\n        /* \"#utility.yul\":11912:11959   */\n      mstore\n        /* \"#utility.yul\":11976:12107   */\n      tag_362\n        /* \"#utility.yul\":12102:12106   */\n      dup2\n        /* \"#utility.yul\":11976:12107   */\n      tag_311\n      jump\t// in\n    tag_362:\n        /* \"#utility.yul\":11968:12107   */\n      swap1\n      pop\n        /* \"#utility.yul\":11695:12114   */\n      swap2\n      swap1\n      pop\n      jump\t// out\n        /* \"#utility.yul\":12120:12539   */\n    tag_185:\n        /* \"#utility.yul\":12286:12290   */\n      0x00\n        /* \"#utility.yul\":12324:12326   */\n      0x20\n        /* \"#utility.yul\":12313:12322   */\n      dup3\n        /* \"#utility.yul\":12309:12327   */\n      add\n        /* \"#utility.yul\":12301:12327   */\n      swap1\n      pop\n        /* \"#utility.yul\":12373:12382   */\n      dup2\n        /* \"#utility.yul\":12367:12371   */\n      dup2\n        /* \"#utility.yul\":12363:12383   */\n      sub\n        /* \"#utility.yul\":12359:12360   */\n      0x00\n        /* \"#utility.yul\":12348:12357   */\n      dup4\n        /* \"#utility.yul\":12344:12361   */\n      add\n        /* \"#utility.yul\":12337:12384   */\n      mstore\n        /* \"#utility.yul\":12401:12532   */\n      tag_364\n        /* \"#utility.yul\":12527:12531   */\n      dup2\n        /* \"#utility.yul\":12401:12532   */\n      tag_316\n      jump\t// in\n    tag_364:\n        /* \"#utility.yul\":12393:12532   */\n      swap1\n      pop\n        /* \"#utility.yul\":12120:12539   */\n      swap2\n      swap1\n      pop\n      jump\t// out\n        /* \"#utility.yul\":12545:12964   */\n    tag_146:\n        /* \"#utility.yul\":12711:12715   */\n      0x00\n        /* \"#utility.yul\":12749:12751   */\n      0x20\n        /* \"#utility.yul\":12738:12747   */\n      dup3\n        /* \"#utility.yul\":12734:12752   */\n      add\n        /* \"#utility.yul\":12726:12752   */\n      swap1\n      pop\n        /* \"#utility.yul\":12798:12807   */\n      dup2\n        /* \"#utility.yul\":12792:12796   */\n      dup2\n        /* \"#utility.yul\":12788:12808   */\n      sub\n        /* \"#utility.yul\":12784:12785   */\n      0x00\n        /* \"#utility.yul\":12773:12782   */\n      dup4\n        /* \"#utility.yul\":12769:12786   */\n      add\n        /* \"#utility.yul\":12762:12809   */\n      mstore\n        /* \"#utility.yul\":12826:12957   */\n      tag_366\n        /* \"#utility.yul\":12952:12956   */\n      dup2\n        /* \"#utility.yul\":12826:12957   */\n      tag_321\n      jump\t// in\n    tag_366:\n        /* \"#utility.yul\":12818:12957   */\n      swap1\n      pop\n        /* \"#utility.yul\":12545:12964   */\n      swap2\n      swap1\n      pop\n      jump\t// out\n        /* \"#utility.yul\":12970:13389   */\n    tag_174:\n        /* \"#utility.yul\":13136:13140   */\n      0x00\n        /* \"#utility.yul\":13174:13176   */\n      0x20\n        /* \"#utility.yul\":13163:13172   */\n      dup3\n        /* \"#utility.yul\":13159:13177   */\n      add\n        /* \"#utility.yul\":13151:13177   */\n      swap1\n      pop\n        /* \"#utility.yul\":13223:13232   */\n      dup2\n        /* \"#utility.yul\":13217:13221   */\n      dup2\n        /* \"#utility.yul\":13213:13233   */\n      sub\n        /* \"#utility.yul\":13209:13210   */\n      0x00\n        /* \"#utility.yul\":13198:13207   */\n      dup4\n        /* \"#utility.yul\":13194:13211   */\n      add\n        /* \"#utility.yul\":13187:13234   */\n      mstore\n        /* \"#utility.yul\":13251:13382   */\n      tag_368\n        /* \"#utility.yul\":13377:13381   */\n      dup2\n        /* \"#utility.yul\":13251:13382   */\n      tag_326\n      jump\t// in\n    tag_368:\n        /* \"#utility.yul\":13243:13382   */\n      swap1\n      pop\n        /* \"#utility.yul\":12970:13389   */\n      swap2\n      swap1\n      pop\n      jump\t// out\n        /* \"#utility.yul\":13395:13617   */\n    tag_40:\n        /* \"#utility.yul\":13488:13492   */\n      0x00\n        /* \"#utility.yul\":13526:13528   */\n      0x20\n        /* \"#utility.yul\":13515:13524   */\n      dup3\n        /* \"#utility.yul\":13511:13529   */\n      add\n        /* \"#utility.yul\":13503:13529   */\n      swap1\n      pop\n        /* \"#utility.yul\":13539:13610   */\n      tag_370\n        /* \"#utility.yul\":13607:13608   */\n      0x00\n        /* \"#utility.yul\":13596:13605   */\n      dup4\n        /* \"#utility.yul\":13592:13609   */\n      add\n        /* \"#utility.yul\":13583:13589   */\n      dup5\n        /* \"#utility.yul\":13539:13610   */\n      tag_331\n      jump\t// in\n    tag_370:\n        /* \"#utility.yul\":13395:13617   */\n      swap3\n      swap2\n      pop\n      pop\n      jump\t// out\n        /* \"#utility.yul\":13623:13837   */\n    tag_49:\n        /* \"#utility.yul\":13712:13716   */\n      0x00\n        /* \"#utility.yul\":13750:13752   */\n      0x20\n        /* \"#utility.yul\":13739:13748   */\n      dup3\n        /* \"#utility.yul\":13735:13753   */\n      add\n        /* \"#utility.yul\":13727:13753   */\n      swap1\n      pop\n        /* \"#utility.yul\":13763:13830   */\n      tag_372\n        /* \"#utility.yul\":13827:13828   */\n      0x00\n        /* \"#utility.yul\":13816:13825   */\n      dup4\n        /* \"#utility.yul\":13812:13829   */\n      add\n        /* \"#utility.yul\":13803:13809   */\n      dup5\n        /* \"#utility.yul\":13763:13830   */\n      tag_335\n      jump\t// in\n    tag_372:\n        /* \"#utility.yul\":13623:13837   */\n      swap3\n      swap2\n      pop\n      pop\n      jump\t// out\n        /* \"#utility.yul\":13924:14023   */\n    tag_264:\n        /* \"#utility.yul\":13976:13982   */\n      0x00\n        /* \"#utility.yul\":14010:14015   */\n      dup2\n        /* \"#utility.yul\":14004:14016   */\n      mload\n        /* \"#utility.yul\":13994:14016   */\n      swap1\n      pop\n        /* \"#utility.yul\":13924:14023   */\n      swap2\n      swap1\n      pop\n      jump\t// out\n        /* \"#utility.yul\":14029:14198   */\n    tag_266:\n        /* \"#utility.yul\":14113:14124   */\n      0x00\n        /* \"#utility.yul\":14147:14153   */\n      dup3\n        /* \"#utility.yul\":14142:14145   */\n      dup3\n        /* \"#utility.yul\":14135:14154   */\n      mstore\n        /* \"#utility.yul\":14187:14191   */\n      0x20\n        /* \"#utility.yul\":14182:14185   */\n      dup3\n        /* \"#utility.yul\":14178:14192   */\n      add\n        /* \"#utility.yul\":14163:14192   */\n      swap1\n      pop\n        /* \"#utility.yul\":14029:14198   */\n      swap3\n      swap2\n      pop\n      pop\n      jump\t// out\n        /* \"#utility.yul\":14204:14509   */\n    tag_124:\n        /* \"#utility.yul\":14244:14247   */\n      0x00\n        /* \"#utility.yul\":14263:14283   */\n      tag_378\n        /* \"#utility.yul\":14281:14282   */\n      dup3\n        /* \"#utility.yul\":14263:14283   */\n      tag_334\n      jump\t// in\n    tag_378:\n        /* \"#utility.yul\":14258:14283   */\n      swap2\n      pop\n        /* \"#utility.yul\":14297:14317   */\n      tag_379\n        /* \"#utility.yul\":14315:14316   */\n      dup4\n        /* \"#utility.yul\":14297:14317   */\n      tag_334\n      jump\t// in\n    tag_379:\n        /* \"#utility.yul\":14292:14317   */\n      swap3\n      pop\n        /* \"#utility.yul\":14451:14452   */\n      dup3\n        /* \"#utility.yul\":14383:14449   */\n      0xffffffffffffffffffffffffffffffffffffffffffffffffffffffffffffffff\n        /* \"#utility.yul\":14379:14453   */\n      sub\n        /* \"#utility.yul\":14376:14377   */\n      dup3\n        /* \"#utility.yul\":14373:14454   */\n      gt\n        /* \"#utility.yul\":14370:14477   */\n      iszero\n      tag_380\n      jumpi\n        /* \"#utility.yul\":14457:14475   */\n      tag_381\n      tag_382\n      jump\t// in\n    tag_381:\n        /* \"#utility.yul\":14370:14477   */\n    tag_380:\n        /* \"#utility.yul\":14501:14502   */\n      dup3\n        /* \"#utility.yul\":14498:14499   */\n      dup3\n        /* \"#utility.yul\":14494:14503   */\n      add\n        /* \"#utility.yul\":14487:14503   */\n      swap1\n      pop\n        /* \"#utility.yul\":14204:14509   */\n      swap3\n      swap2\n      pop\n      pop\n      jump\t// out\n        /* \"#utility.yul\":14515:14611   */\n    tag_256:\n        /* \"#utility.yul\":14552:14559   */\n      0x00\n        /* \"#utility.yul\":14581:14605   */\n      tag_384\n        /* \"#utility.yul\":14599:14604   */\n      dup3\n        /* \"#utility.yul\":14581:14605   */\n      tag_385\n      jump\t// in\n    tag_384:\n        /* \"#utility.yul\":14570:14605   */\n      swap1\n      pop\n        /* \"#utility.yul\":14515:14611   */\n      swap2\n      swap1\n      pop\n      jump\t// out\n        /* \"#utility.yul\":14617:14707   */\n    tag_260:\n        /* \"#utility.yul\":14651:14658   */\n      0x00\n        /* \"#utility.yul\":14694:14699   */\n      dup2\n        /* \"#utility.yul\":14687:14700   */\n      iszero\n        /* \"#utility.yul\":14680:14701   */\n      iszero\n        /* \"#utility.yul\":14669:14701   */\n      swap1\n      pop\n        /* \"#utility.yul\":14617:14707   */\n      swap2\n      swap1\n      pop\n      jump\t// out\n        /* \"#utility.yul\":14713:14839   */\n    tag_385:\n        /* \"#utility.yul\":14750:14757   */\n      0x00\n        /* \"#utility.yul\":14790:14832   */\n      0xffffffffffffffffffffffffffffffffffffffff\n        /* \"#utility.yul\":14783:14788   */\n      dup3\n        /* \"#utility.yul\":14779:14833   */\n      and\n        /* \"#utility.yul\":14768:14833   */\n      swap1\n      pop\n        /* \"#utility.yul\":14713:14839   */\n      swap2\n      swap1\n      pop\n      jump\t// out\n        /* \"#utility.yul\":14845:14922   */\n    tag_334:\n        /* \"#utility.yul\":14882:14889   */\n      0x00\n        /* \"#utility.yul\":14911:14916   */\n      dup2\n        /* \"#utility.yul\":14900:14916   */\n      swap1\n      pop\n        /* \"#utility.yul\":14845:14922   */\n      swap2\n      swap1\n      pop\n      jump\t// out\n        /* \"#utility.yul\":14928:15014   */\n    tag_338:\n        /* \"#utility.yul\":14963:14970   */\n      0x00\n        /* \"#utility.yul\":15003:15007   */\n      0xff\n        /* \"#utility.yul\":14996:15001   */\n      dup3\n        /* \"#utility.yul\":14992:15008   */\n      and\n        /* \"#utility.yul\":14981:15008   */\n      swap1\n      pop\n        /* \"#utility.yul\":14928:15014   */\n      swap2\n      swap1\n      pop\n      jump\t// out\n        /* \"#utility.yul\":15020:15327   */\n    tag_268:\n        /* \"#utility.yul\":15088:15089   */\n      0x00\n        /* \"#utility.yul\":15098:15211   */\n    tag_391:\n        /* \"#utility.yul\":15112:15118   */\n      dup4\n        /* \"#utility.yul\":15109:15110   */\n      dup2\n        /* \"#utility.yul\":15106:15119   */\n      lt\n        /* \"#utility.yul\":15098:15211   */\n      iszero\n      tag_393\n      jumpi\n        /* \"#utility.yul\":15197:15198   */\n      dup1\n        /* \"#utility.yul\":15192:15195   */\n      dup3\n        /* \"#utility.yul\":15188:15199   */\n      add\n        /* \"#utility.yul\":15182:15200   */\n      mload\n        /* \"#utility.yul\":15178:15179   */\n      dup2\n        /* \"#utility.yul\":15173:15176   */\n      dup5\n        /* \"#utility.yul\":15169:15180   */\n      add\n        /* \"#utility.yul\":15162:15201   */\n      mstore\n        /* \"#utility.yul\":15134:15136   */\n      0x20\n        /* \"#utility.yul\":15131:15132   */\n      dup2\n        /* \"#utility.yul\":15127:15137   */\n      add\n        /* \"#utility.yul\":15122:15137   */\n      swap1\n      pop\n        /* \"#utility.yul\":15098:15211   */\n      jump(tag_391)\n    tag_393:\n        /* \"#utility.yul\":15229:15235   */\n      dup4\n        /* \"#utility.yul\":15226:15227   */\n      dup2\n        /* \"#utility.yul\":15223:15236   */\n      gt\n        /* \"#utility.yul\":15220:15321   */\n      iszero\n      tag_394\n      jumpi\n        /* \"#utility.yul\":15309:15310   */\n      0x00\n        /* \"#utility.yul\":15300:15306   */\n      dup5\n        /* \"#utility.yul\":15295:15298   */\n      dup5\n        /* \"#utility.yul\":15291:15307   */\n      add\n        /* \"#utility.yul\":15284:15311   */\n      mstore\n        /* \"#utility.yul\":15220:15321   */\n    tag_394:\n        /* \"#utility.yul\":15069:15327   */\n      pop\n        /* \"#utility.yul\":15020:15327   */\n      pop\n      pop\n      pop\n      jump\t// out\n        /* \"#utility.yul\":15333:15653   */\n    tag_101:\n        /* \"#utility.yul\":15377:15383   */\n      0x00\n        /* \"#utility.yul\":15414:15415   */\n      0x02\n        /* \"#utility.yul\":15408:15412   */\n      dup3\n        /* \"#utility.yul\":15404:15416   */\n      div\n        /* \"#utility.yul\":15394:15416   */\n      swap1\n      pop\n        /* \"#utility.yul\":15461:15462   */\n      0x01\n        /* \"#utility.yul\":15455:15459   */\n      dup3\n        /* \"#utility.yul\":15451:15463   */\n      and\n        /* \"#utility.yul\":15482:15500   */\n      dup1\n        /* \"#utility.yul\":15472:15553   */\n      tag_396\n      jumpi\n        /* \"#utility.yul\":15538:15542   */\n      0x7f\n        /* \"#utility.yul\":15530:15536   */\n      dup3\n        /* \"#utility.yul\":15526:15543   */\n      and\n        /* \"#utility.yul\":15516:15543   */\n      swap2\n      pop\n        /* \"#utility.yul\":15472:15553   */\n    tag_396:\n        /* \"#utility.yul\":15600:15602   */\n      0x20\n        /* \"#utility.yul\":15592:15598   */\n      dup3\n        /* \"#utility.yul\":15589:15603   */\n      lt\n        /* \"#utility.yul\":15569:15587   */\n      dup2\n        /* \"#utility.yul\":15566:15604   */\n      eq\n        /* \"#utility.yul\":15563:15647   */\n      iszero\n      tag_397\n      jumpi\n        /* \"#utility.yul\":15619:15637   */\n      tag_398\n      tag_399\n      jump\t// in\n    tag_398:\n        /* \"#utility.yul\":15563:15647   */\n    tag_397:\n        /* \"#utility.yul\":15384:15653   */\n      pop\n        /* \"#utility.yul\":15333:15653   */\n      swap2\n      swap1\n      pop\n      jump\t// out\n        /* \"#utility.yul\":15659:15839   */\n    tag_382:\n        /* \"#utility.yul\":15707:15784   */\n      0x4e487b7100000000000000000000000000000000000000000000000000000000\n        /* \"#utility.yul\":15704:15705   */\n      0x00\n        /* \"#utility.yul\":15697:15785   */\n      mstore\n        /* \"#utility.yul\":15804:15808   */\n      0x11\n        /* \"#utility.yul\":15801:15802   */\n      0x04\n        /* \"#utility.yul\":15794:15809   */\n      mstore\n        /* \"#utility.yul\":15828:15832   */\n      0x24\n        /* \"#utility.yul\":15825:15826   */\n      0x00\n        /* \"#utility.yul\":15818:15833   */\n      revert\n        /* \"#utility.yul\":15845:16025   */\n    tag_399:\n        /* \"#utility.yul\":15893:15970   */\n      0x4e487b7100000000000000000000000000000000000000000000000000000000\n        /* \"#utility.yul\":15890:15891   */\n      0x00\n        /* \"#utility.yul\":15883:15971   */\n      mstore\n        /* \"#utility.yul\":15990:15994   */\n      0x22\n        /* \"#utility.yul\":15987:15988   */\n      0x04\n        /* \"#utility.yul\":15980:15995   */\n      mstore\n        /* \"#utility.yul\":16014:16018   */\n      0x24\n        /* \"#utility.yul\":16011:16012   */\n      0x00\n        /* \"#utility.yul\":16004:16019   */\n      revert\n        /* \"#utility.yul\":16154:16271   */\n    tag_235:\n        /* \"#utility.yul\":16263:16264   */\n      0x00\n        /* \"#utility.yul\":16260:16261   */\n      dup1\n        /* \"#utility.yul\":16253:16265   */\n      revert\n        /* \"#utility.yul\":16277:16379   */\n    tag_270:\n        /* \"#utility.yul\":16318:16324   */\n      0x00\n        /* \"#utility.yul\":16369:16371   */\n      0x1f\n        /* \"#utility.yul\":16365:16372   */\n      not\n        /* \"#utility.yul\":16360:16362   */\n      0x1f\n        /* \"#utility.yul\":16353:16358   */\n      dup4\n        /* \"#utility.yul\":16349:16363   */\n      add\n        /* \"#utility.yul\":16345:16373   */\n      and\n        /* \"#utility.yul\":16335:16373   */\n      swap1\n      pop\n        /* \"#utility.yul\":16277:16379   */\n      swap2\n      swap1\n      pop\n      jump\t// out\n        /* \"#utility.yul\":16385:16607   */\n    tag_275:\n        /* \"#utility.yul\":16525:16559   */\n      0x45524332303a207472616e7366657220746f20746865207a65726f2061646472\n        /* \"#utility.yul\":16521:16522   */\n      0x00\n        /* \"#utility.yul\":16513:16519   */\n      dup3\n        /* \"#utility.yul\":16509:16523   */\n      add\n        /* \"#utility.yul\":16502:16560   */\n      mstore\n        /* \"#utility.yul\":16594:16599   */\n      0x6573730000000000000000000000000000000000000000000000000000000000\n        /* \"#utility.yul\":16589:16591   */\n      0x20\n        /* \"#utility.yul\":16581:16587   */\n      dup3\n        /* \"#utility.yul\":16577:16592   */\n      add\n        /* \"#utility.yul\":16570:16600   */\n      mstore\n        /* \"#utility.yul\":16385:16607   */\n      pop\n      jump\t// out\n        /* \"#utility.yul\":16613:16834   */\n    tag_280:\n        /* \"#utility.yul\":16753:16787   */\n      0x45524332303a206275726e20616d6f756e7420657863656564732062616c616e\n        /* \"#utility.yul\":16749:16750   */\n      0x00\n        /* \"#utility.yul\":16741:16747   */\n      dup3\n        /* \"#utility.yul\":16737:16751   */\n      add\n        /* \"#utility.yul\":16730:16788   */\n      mstore\n        /* \"#utility.yul\":16822:16826   */\n      0x6365000000000000000000000000000000000000000000000000000000000000\n        /* \"#utility.yul\":16817:16819   */\n      0x20\n        /* \"#utility.yul\":16809:16815   */\n      dup3\n        /* \"#utility.yul\":16805:16820   */\n      add\n        /* \"#utility.yul\":16798:16827   */\n      mstore\n        /* \"#utility.yul\":16613:16834   */\n      pop\n      jump\t// out\n        /* \"#utility.yul\":16840:17065   */\n    tag_285:\n        /* \"#utility.yul\":16980:17014   */\n      0x4f776e61626c653a206e6577206f776e657220697320746865207a65726f2061\n        /* \"#utility.yul\":16976:16977   */\n      0x00\n        /* \"#utility.yul\":16968:16974   */\n      dup3\n        /* \"#utility.yul\":16964:16978   */\n      add\n        /* \"#utility.yul\":16957:17015   */\n      mstore\n        /* \"#utility.yul\":17049:17057   */\n      0x6464726573730000000000000000000000000000000000000000000000000000\n        /* \"#utility.yul\":17044:17046   */\n      0x20\n        /* \"#utility.yul\":17036:17042   */\n      dup3\n        /* \"#utility.yul\":17032:17047   */\n      add\n        /* \"#utility.yul\":17025:17058   */\n      mstore\n        /* \"#utility.yul\":16840:17065   */\n      pop\n      jump\t// out\n        /* \"#utility.yul\":17071:17292   */\n    tag_290:\n        /* \"#utility.yul\":17211:17245   */\n      0x45524332303a20617070726f766520746f20746865207a65726f206164647265\n        /* \"#utility.yul\":17207:17208   */\n      0x00\n        /* \"#utility.yul\":17199:17205   */\n      dup3\n        /* \"#utility.yul\":17195:17209   */\n      add\n        /* \"#utility.yul\":17188:17246   */\n      mstore\n        /* \"#utility.yul\":17280:17284   */\n      0x7373000000000000000000000000000000000000000000000000000000000000\n        /* \"#utility.yul\":17275:17277   */\n      0x20\n        /* \"#utility.yul\":17267:17273   */\n      dup3\n        /* \"#utility.yul\":17263:17278   */\n      add\n        /* \"#utility.yul\":17256:17285   */\n      mstore\n        /* \"#utility.yul\":17071:17292   */\n      pop\n      jump\t// out\n        /* \"#utility.yul\":17298:17477   */\n    tag_295:\n        /* \"#utility.yul\":17438:17469   */\n      0x45524332303a20696e73756666696369656e7420616c6c6f77616e6365000000\n        /* \"#utility.yul\":17434:17435   */\n      0x00\n        /* \"#utility.yul\":17426:17432   */\n      dup3\n        /* \"#utility.yul\":17422:17436   */\n      add\n        /* \"#utility.yul\":17415:17470   */\n      mstore\n        /* \"#utility.yul\":17298:17477   */\n      pop\n      jump\t// out\n        /* \"#utility.yul\":17483:17708   */\n    tag_300:\n        /* \"#utility.yul\":17623:17657   */\n      0x45524332303a207472616e7366657220616d6f756e7420657863656564732062\n        /* \"#utility.yul\":17619:17620   */\n      0x00\n        /* \"#utility.yul\":17611:17617   */\n      dup3\n        /* \"#utility.yul\":17607:17621   */\n      add\n        /* \"#utility.yul\":17600:17658   */\n      mstore\n        /* \"#utility.yul\":17692:17700   */\n      0x616c616e63650000000000000000000000000000000000000000000000000000\n        /* \"#utility.yul\":17687:17689   */\n      0x20\n        /* \"#utility.yul\":17679:17685   */\n      dup3\n        /* \"#utility.yul\":17675:17690   */\n      add\n        /* \"#utility.yul\":17668:17701   */\n      mstore\n        /* \"#utility.yul\":17483:17708   */\n      pop\n      jump\t// out\n        /* \"#utility.yul\":17714:17896   */\n    tag_305:\n        /* \"#utility.yul\":17854:17888   */\n      0x4f776e61626c653a2063616c6c6572206973206e6f7420746865206f776e6572\n        /* \"#utility.yul\":17850:17851   */\n      0x00\n        /* \"#utility.yul\":17842:17848   */\n      dup3\n        /* \"#utility.yul\":17838:17852   */\n      add\n        /* \"#utility.yul\":17831:17889   */\n      mstore\n        /* \"#utility.yul\":17714:17896   */\n      pop\n      jump\t// out\n        /* \"#utility.yul\":17902:18122   */\n    tag_310:\n        /* \"#utility.yul\":18042:18076   */\n      0x45524332303a206275726e2066726f6d20746865207a65726f20616464726573\n        /* \"#utility.yul\":18038:18039   */\n      0x00\n        /* \"#utility.yul\":18030:18036   */\n      dup3\n        /* \"#utility.yul\":18026:18040   */\n      add\n        /* \"#utility.yul\":18019:18077   */\n      mstore\n        /* \"#utility.yul\":18111:18114   */\n      0x7300000000000000000000000000000000000000000000000000000000000000\n        /* \"#utility.yul\":18106:18108   */\n      0x20\n        /* \"#utility.yul\":18098:18104   */\n      dup3\n        /* \"#utility.yul\":18094:18109   */\n      add\n        /* \"#utility.yul\":18087:18115   */\n      mstore\n        /* \"#utility.yul\":17902:18122   */\n      pop\n      jump\t// out\n        /* \"#utility.yul\":18128:18352   */\n    tag_315:\n        /* \"#utility.yul\":18268:18302   */\n      0x45524332303a207472616e736665722066726f6d20746865207a65726f206164\n        /* \"#utility.yul\":18264:18265   */\n      0x00\n        /* \"#utility.yul\":18256:18262   */\n      dup3\n        /* \"#utility.yul\":18252:18266   */\n      add\n        /* \"#utility.yul\":18245:18303   */\n      mstore\n        /* \"#utility.yul\":18337:18344   */\n      0x6472657373000000000000000000000000000000000000000000000000000000\n        /* \"#utility.yul\":18332:18334   */\n      0x20\n        /* \"#utility.yul\":18324:18330   */\n      dup3\n        /* \"#utility.yul\":18320:18335   */\n      add\n        /* \"#utility.yul\":18313:18345   */\n      mstore\n        /* \"#utility.yul\":18128:18352   */\n      pop\n      jump\t// out\n        /* \"#utility.yul\":18358:18581   */\n    tag_320:\n        /* \"#utility.yul\":18498:18532   */\n      0x45524332303a20617070726f76652066726f6d20746865207a65726f20616464\n        /* \"#utility.yul\":18494:18495   */\n      0x00\n        /* \"#utility.yul\":18486:18492   */\n      dup3\n        /* \"#utility.yul\":18482:18496   */\n      add\n        /* \"#utility.yul\":18475:18533   */\n      mstore\n        /* \"#utility.yul\":18567:18573   */\n      0x7265737300000000000000000000000000000000000000000000000000000000\n        /* \"#utility.yul\":18562:18564   */\n      0x20\n        /* \"#utility.yul\":18554:18560   */\n      dup3\n        /* \"#utility.yul\":18550:18565   */\n      add\n        /* \"#utility.yul\":18543:18574   */\n      mstore\n        /* \"#utility.yul\":18358:18581   */\n      pop\n      jump\t// out\n        /* \"#utility.yul\":18587:18811   */\n    tag_325:\n        /* \"#utility.yul\":18727:18761   */\n      0x45524332303a2064656372656173656420616c6c6f77616e63652062656c6f77\n        /* \"#utility.yul\":18723:18724   */\n      0x00\n        /* \"#utility.yul\":18715:18721   */\n      dup3\n        /* \"#utility.yul\":18711:18725   */\n      add\n        /* \"#utility.yul\":18704:18762   */\n      mstore\n        /* \"#utility.yul\":18796:18803   */\n      0x207a65726f000000000000000000000000000000000000000000000000000000\n        /* \"#utility.yul\":18791:18793   */\n      0x20\n        /* \"#utility.yul\":18783:18789   */\n      dup3\n        /* \"#utility.yul\":18779:18794   */\n      add\n        /* \"#utility.yul\":18772:18804   */\n      mstore\n        /* \"#utility.yul\":18587:18811   */\n      pop\n      jump\t// out\n        /* \"#utility.yul\":18817:18998   */\n    tag_330:\n        /* \"#utility.yul\":18957:18990   */\n      0x45524332303a206d696e7420746f20746865207a65726f206164647265737300\n        /* \"#utility.yul\":18953:18954   */\n      0x00\n        /* \"#utility.yul\":18945:18951   */\n      dup3\n        /* \"#utility.yul\":18941:18955   */\n      add\n        /* \"#utility.yul\":18934:18991   */\n      mstore\n        /* \"#utility.yul\":18817:18998   */\n      pop\n      jump\t// out\n        /* \"#utility.yul\":19004:19126   */\n    tag_227:\n        /* \"#utility.yul\":19077:19101   */\n      tag_419\n        /* \"#utility.yul\":19095:19100   */\n      dup2\n        /* \"#utility.yul\":19077:19101   */\n      tag_256\n      jump\t// in\n    tag_419:\n        /* \"#utility.yul\":19070:19075   */\n      dup2\n        /* \"#utility.yul\":19067:19102   */\n      eq\n        /* \"#utility.yul\":19057:19120   */\n      tag_420\n      jumpi\n        /* \"#utility.yul\":19116:19117   */\n      0x00\n        /* \"#utility.yul\":19113:19114   */\n      dup1\n        /* \"#utility.yul\":19106:19118   */\n      revert\n        /* \"#utility.yul\":19057:19120   */\n    tag_420:\n        /* \"#utility.yul\":19004:19126   */\n      pop\n      jump\t// out\n        /* \"#utility.yul\":19132:19254   */\n    tag_231:\n        /* \"#utility.yul\":19205:19229   */\n      tag_422\n        /* \"#utility.yul\":19223:19228   */\n      dup2\n        /* \"#utility.yul\":19205:19229   */\n      tag_334\n      jump\t// in\n    tag_422:\n        /* \"#utility.yul\":19198:19203   */\n      dup2\n        /* \"#utility.yul\":19195:19230   */\n      eq\n        /* \"#utility.yul\":19185:19248   */\n      tag_423\n      jumpi\n        /* \"#utility.yul\":19244:19245   */\n      0x00\n        /* \"#utility.yul\":19241:19242   */\n      dup1\n        /* \"#utility.yul\":19234:19246   */\n      revert\n        /* \"#utility.yul\":19185:19248   */\n    tag_423:\n        /* \"#utility.yul\":19132:19254   */\n      pop\n      jump\t// out\n\n    auxdata: 0xa26469706673582212201fc6452408255c99222907ead514f17f380bf39590e259c9c7b1ff3a6809f30e64736f6c63430008070033\n}\n",
				"bytecode": {
					"linkReferences": {},
					"object": "60806040523480156200001157600080fd5b506040518060400160405280600c81526020017f57726f6e672041636365737300000000000000000000000000000000000000008152506040518060400160405280600281526020017f5741000000000000000000000000000000000000000000000000000000000000815250816003908051906020019062000096929190620001a6565b508060049080519060200190620000af929190620001a6565b505050620000d2620000c6620000d860201b60201c565b620000e060201b60201c565b620002bb565b600033905090565b6000600560009054906101000a900473ffffffffffffffffffffffffffffffffffffffff16905081600560006101000a81548173ffffffffffffffffffffffffffffffffffffffff021916908373ffffffffffffffffffffffffffffffffffffffff1602179055508173ffffffffffffffffffffffffffffffffffffffff168173ffffffffffffffffffffffffffffffffffffffff167f8be0079c531659141344cd1fd0a4f28419497f9722a3daafe3b4186f6b6457e060405160405180910390a35050565b828054620001b49062000256565b90600052602060002090601f016020900481019282620001d8576000855562000224565b82601f10620001f357805160ff191683800117855562000224565b8280016001018555821562000224579182015b828111156200022357825182559160200191906001019062000206565b5b50905062000233919062000237565b5090565b5b808211156200025257600081600090555060010162000238565b5090565b600060028204905060018216806200026f57607f821691505b602082108114156200028657620002856200028c565b5b50919050565b7f4e487b7100000000000000000000000000000000000000000000000000000000600052602260045260246000fd5b611be280620002cb6000396000f3fe608060405234801561001057600080fd5b50600436106101165760003560e01c80637fb10550116100a2578063a9059cbb11610071578063a9059cbb146102e3578063b08d1d1a14610313578063dd62ed3e1461032f578063f2fde38b1461035f578063f3a874441461037b57610116565b80637fb105501461025b5780638da5cb5b1461027757806395d89b4114610295578063a457c2d7146102b357610116565b806323b872dd116100e957806323b872dd146101a3578063313ce567146101d357806339509351146101f157806370a0823114610221578063715018a61461025157610116565b8063049adea71461011b57806306fdde0314610137578063095ea7b31461015557806318160ddd14610185575b600080fd5b61013560048036038101906101309190611235565b610397565b005b61013f6103ad565b60405161014c91906114c4565b60405180910390f35b61016f600480360381019061016a9190611235565b61043f565b60405161017c91906114a9565b60405180910390f35b61018d610462565b60405161019a9190611666565b60405180910390f35b6101bd60048036038101906101b891906111e2565b61046c565b6040516101ca91906114a9565b60405180910390f35b6101db61049b565b6040516101e89190611681565b60405180910390f35b61020b60048036038101906102069190611235565b6104a4565b60405161021891906114a9565b60405180910390f35b61023b60048036038101906102369190611175565b6104db565b6040516102489190611666565b60405180910390f35b610259610523565b005b61027560048036038101906102709190611235565b610537565b005b61027f610545565b60405161028c919061148e565b60405180910390f35b61029d61056f565b6040516102aa91906114c4565b60405180910390f35b6102cd60048036038101906102c89190611235565b610601565b6040516102da91906114a9565b60405180910390f35b6102fd60048036038101906102f89190611235565b610678565b60405161030a91906114a9565b60405180910390f35b61032d60048036038101906103289190611235565b61069b565b005b610349600480360381019061034491906111a2565b6106e8565b6040516103569190611666565b60405180910390f35b61037960048036038101906103749190611175565b61076f565b005b61039560048036038101906103909190611235565b6107f3565b005b61039f610801565b6103a9828261087f565b5050565b6060600380546103bc90611796565b80601f01602080910402602001604051908101604052809291908181526020018280546103e890611796565b80156104355780601f1061040a57610100808354040283529160200191610435565b820191906000526020600020905b81548152906001019060200180831161041857829003601f168201915b5050505050905090565b60008061044a6109d6565b90506104578185856109de565b600191505092915050565b6000600254905090565b6000806104776109d6565b9050610484858285610ba9565b61048f858585610c35565b60019150509392505050565b60006012905090565b6000806104af6109d6565b90506104d08185856104c185896106e8565b6104cb91906116b8565b6109de565b600191505092915050565b60008060008373ffffffffffffffffffffffffffffffffffffffff1673ffffffffffffffffffffffffffffffffffffffff168152602001908152602001600020549050919050565b61052b610801565b6105356000610ead565b565b6105418282610f73565b5050565b6000600560009054906101000a900473ffffffffffffffffffffffffffffffffffffffff16905090565b60606004805461057e90611796565b80601f01602080910402602001604051908101604052809291908181526020018280546105aa90611796565b80156105f75780601f106105cc576101008083540402835291602001916105f7565b820191906000526020600020905b8154815290600101906020018083116105da57829003601f168201915b5050505050905090565b60008061060c6109d6565b9050600061061a82866106e8565b90508381101561065f576040517f08c379a000000000000000000000000000000000000000000000000000000000815260040161065690611626565b60405180910390fd5b61066c82868684036109de565b60019250505092915050565b6000806106836109d6565b9050610690818585610c35565b600191505092915050565b8173ffffffffffffffffffffffffffffffffffffffff163373ffffffffffffffffffffffffffffffffffffffff16146106da576106d9823383610ba9565b5b6106e48282610f73565b5050565b6000600160008473ffffffffffffffffffffffffffffffffffffffff1673ffffffffffffffffffffffffffffffffffffffff16815260200190815260200160002060008373ffffffffffffffffffffffffffffffffffffffff1673ffffffffffffffffffffffffffffffffffffffff16815260200190815260200160002054905092915050565b610777610801565b600073ffffffffffffffffffffffffffffffffffffffff168173ffffffffffffffffffffffffffffffffffffffff1614156107e7576040517f08c379a00000000000000000000000000000000000000000000000000000000081526004016107de90611526565b60405180910390fd5b6107f081610ead565b50565b6107fd828261087f565b5050565b6108096109d6565b73ffffffffffffffffffffffffffffffffffffffff16610827610545565b73ffffffffffffffffffffffffffffffffffffffff161461087d576040517f08c379a0000000000000000000000000000000000000000000000000000000008152600401610874906115a6565b60405180910390fd5b565b600073ffffffffffffffffffffffffffffffffffffffff168273ffffffffffffffffffffffffffffffffffffffff1614156108ef576040517f08c379a00000000000000000000000000000000000000000000000000000000081526004016108e690611646565b60405180910390fd5b6108fb60008383611141565b806002600082825461090d91906116b8565b92505081905550806000808473ffffffffffffffffffffffffffffffffffffffff1673ffffffffffffffffffffffffffffffffffffffff168152602001908152602001600020600082825401925050819055508173ffffffffffffffffffffffffffffffffffffffff16600073ffffffffffffffffffffffffffffffffffffffff167fddf252ad1be2c89b69c2b068fc378daa952ba7f163c4a11628f55a4df523b3ef836040516109be9190611666565b60405180910390a36109d260008383611146565b5050565b600033905090565b600073ffffffffffffffffffffffffffffffffffffffff168373ffffffffffffffffffffffffffffffffffffffff161415610a4e576040517f08c379a0000000000000000000000000000000000000000000000000000000008152600401610a4590611606565b60405180910390fd5b600073ffffffffffffffffffffffffffffffffffffffff168273ffffffffffffffffffffffffffffffffffffffff161415610abe576040517f08c379a0000000000000000000000000000000000000000000000000000000008152600401610ab590611546565b60405180910390fd5b80600160008573ffffffffffffffffffffffffffffffffffffffff1673ffffffffffffffffffffffffffffffffffffffff16815260200190815260200160002060008473ffffffffffffffffffffffffffffffffffffffff1673ffffffffffffffffffffffffffffffffffffffff168152602001908152602001600020819055508173ffffffffffffffffffffffffffffffffffffffff168373ffffffffffffffffffffffffffffffffffffffff167f8c5be1e5ebec7d5bd14f71427d1e84f3dd0314c0f7b2291e5b200ac8c7c3b92583604051610b9c9190611666565b60405180910390a3505050565b6000610bb584846106e8565b90507fffffffffffffffffffffffffffffffffffffffffffffffffffffffffffffffff8114610c2f5781811015610c21576040517f08c379a0000000000000000000000000000000000000000000000000000000008152600401610c1890611566565b60405180910390fd5b610c2e84848484036109de565b5b50505050565b600073ffffffffffffffffffffffffffffffffffffffff168373ffffffffffffffffffffffffffffffffffffffff161415610ca5576040517f08c379a0000000000000000000000000000000000000000000000000000000008152600401610c9c906115e6565b60405180910390fd5b600073ffffffffffffffffffffffffffffffffffffffff168273ffffffffffffffffffffffffffffffffffffffff161415610d15576040517f08c379a0000000000000000000000000000000000000000000000000000000008152600401610d0c906114e6565b60405180910390fd5b610d20838383611141565b60008060008573ffffffffffffffffffffffffffffffffffffffff1673ffffffffffffffffffffffffffffffffffffffff16815260200190815260200160002054905081811015610da6576040517f08c379a0000000000000000000000000000000000000000000000000000000008152600401610d9d90611586565b60405180910390fd5b8181036000808673ffffffffffffffffffffffffffffffffffffffff1673ffffffffffffffffffffffffffffffffffffffff16815260200190815260200160002081905550816000808573ffffffffffffffffffffffffffffffffffffffff1673ffffffffffffffffffffffffffffffffffffffff168152602001908152602001600020600082825401925050819055508273ffffffffffffffffffffffffffffffffffffffff168473ffffffffffffffffffffffffffffffffffffffff167fddf252ad1be2c89b69c2b068fc378daa952ba7f163c4a11628f55a4df523b3ef84604051610e949190611666565b60405180910390a3610ea7848484611146565b50505050565b6000600560009054906101000a900473ffffffffffffffffffffffffffffffffffffffff16905081600560006101000a81548173ffffffffffffffffffffffffffffffffffffffff021916908373ffffffffffffffffffffffffffffffffffffffff1602179055508173ffffffffffffffffffffffffffffffffffffffff168173ffffffffffffffffffffffffffffffffffffffff167f8be0079c531659141344cd1fd0a4f28419497f9722a3daafe3b4186f6b6457e060405160405180910390a35050565b600073ffffffffffffffffffffffffffffffffffffffff168273ffffffffffffffffffffffffffffffffffffffff161415610fe3576040517f08c379a0000000000000000000000000000000000000000000000000000000008152600401610fda906115c6565b60405180910390fd5b610fef82600083611141565b60008060008473ffffffffffffffffffffffffffffffffffffffff1673ffffffffffffffffffffffffffffffffffffffff16815260200190815260200160002054905081811015611075576040517f08c379a000000000000000000000000000000000000000000000000000000000815260040161106c90611506565b60405180910390fd5b8181036000808573ffffffffffffffffffffffffffffffffffffffff1673ffffffffffffffffffffffffffffffffffffffff1681526020019081526020016000208190555081600260008282540392505081905550600073ffffffffffffffffffffffffffffffffffffffff168373ffffffffffffffffffffffffffffffffffffffff167fddf252ad1be2c89b69c2b068fc378daa952ba7f163c4a11628f55a4df523b3ef846040516111289190611666565b60405180910390a361113c83600084611146565b505050565b505050565b505050565b60008135905061115a81611b7e565b92915050565b60008135905061116f81611b95565b92915050565b60006020828403121561118b5761118a611826565b5b60006111998482850161114b565b91505092915050565b600080604083850312156111b9576111b8611826565b5b60006111c78582860161114b565b92505060206111d88582860161114b565b9150509250929050565b6000806000606084860312156111fb576111fa611826565b5b60006112098682870161114b565b935050602061121a8682870161114b565b925050604061122b86828701611160565b9150509250925092565b6000806040838503121561124c5761124b611826565b5b600061125a8582860161114b565b925050602061126b85828601611160565b9150509250929050565b61127e8161170e565b82525050565b61128d81611720565b82525050565b600061129e8261169c565b6112a881856116a7565b93506112b8818560208601611763565b6112c18161182b565b840191505092915050565b60006112d96023836116a7565b91506112e48261183c565b604082019050919050565b60006112fc6022836116a7565b91506113078261188b565b604082019050919050565b600061131f6026836116a7565b915061132a826118da565b604082019050919050565b60006113426022836116a7565b915061134d82611929565b604082019050919050565b6000611365601d836116a7565b915061137082611978565b602082019050919050565b60006113886026836116a7565b9150611393826119a1565b604082019050919050565b60006113ab6020836116a7565b91506113b6826119f0565b602082019050919050565b60006113ce6021836116a7565b91506113d982611a19565b604082019050919050565b60006113f16025836116a7565b91506113fc82611a68565b604082019050919050565b60006114146024836116a7565b915061141f82611ab7565b604082019050919050565b60006114376025836116a7565b915061144282611b06565b604082019050919050565b600061145a601f836116a7565b915061146582611b55565b602082019050919050565b6114798161174c565b82525050565b61148881611756565b82525050565b60006020820190506114a36000830184611275565b92915050565b60006020820190506114be6000830184611284565b92915050565b600060208201905081810360008301526114de8184611293565b905092915050565b600060208201905081810360008301526114ff816112cc565b9050919050565b6000602082019050818103600083015261151f816112ef565b9050919050565b6000602082019050818103600083015261153f81611312565b9050919050565b6000602082019050818103600083015261155f81611335565b9050919050565b6000602082019050818103600083015261157f81611358565b9050919050565b6000602082019050818103600083015261159f8161137b565b9050919050565b600060208201905081810360008301526115bf8161139e565b9050919050565b600060208201905081810360008301526115df816113c1565b9050919050565b600060208201905081810360008301526115ff816113e4565b9050919050565b6000602082019050818103600083015261161f81611407565b9050919050565b6000602082019050818103600083015261163f8161142a565b9050919050565b6000602082019050818103600083015261165f8161144d565b9050919050565b600060208201905061167b6000830184611470565b92915050565b6000602082019050611696600083018461147f565b92915050565b600081519050919050565b600082825260208201905092915050565b60006116c38261174c565b91506116ce8361174c565b9250827fffffffffffffffffffffffffffffffffffffffffffffffffffffffffffffffff03821115611703576117026117c8565b5b828201905092915050565b60006117198261172c565b9050919050565b60008115159050919050565b600073ffffffffffffffffffffffffffffffffffffffff82169050919050565b6000819050919050565b600060ff82169050919050565b60005b83811015611781578082015181840152602081019050611766565b83811115611790576000848401525b50505050565b600060028204905060018216806117ae57607f821691505b602082108114156117c2576117c16117f7565b5b50919050565b7f4e487b7100000000000000000000000000000000000000000000000000000000600052601160045260246000fd5b7f4e487b7100000000000000000000000000000000000000000000000000000000600052602260045260246000fd5b600080fd5b6000601f19601f8301169050919050565b7f45524332303a207472616e7366657220746f20746865207a65726f206164647260008201527f6573730000000000000000000000000000000000000000000000000000000000602082015250565b7f45524332303a206275726e20616d6f756e7420657863656564732062616c616e60008201527f6365000000000000000000000000000000000000000000000000000000000000602082015250565b7f4f776e61626c653a206e6577206f776e657220697320746865207a65726f206160008201527f6464726573730000000000000000000000000000000000000000000000000000602082015250565b7f45524332303a20617070726f766520746f20746865207a65726f20616464726560008201527f7373000000000000000000000000000000000000000000000000000000000000602082015250565b7f45524332303a20696e73756666696369656e7420616c6c6f77616e6365000000600082015250565b7f45524332303a207472616e7366657220616d6f756e742065786365656473206260008201527f616c616e63650000000000000000000000000000000000000000000000000000602082015250565b7f4f776e61626c653a2063616c6c6572206973206e6f7420746865206f776e6572600082015250565b7f45524332303a206275726e2066726f6d20746865207a65726f2061646472657360008201527f7300000000000000000000000000000000000000000000000000000000000000602082015250565b7f45524332303a207472616e736665722066726f6d20746865207a65726f20616460008201527f6472657373000000000000000000000000000000000000000000000000000000602082015250565b7f45524332303a20617070726f76652066726f6d20746865207a65726f2061646460008201527f7265737300000000000000000000000000000000000000000000000000000000602082015250565b7f45524332303a2064656372656173656420616c6c6f77616e63652062656c6f7760008201527f207a65726f000000000000000000000000000000000000000000000000000000602082015250565b7f45524332303a206d696e7420746f20746865207a65726f206164647265737300600082015250565b611b878161170e565b8114611b9257600080fd5b50565b611b9e8161174c565b8114611ba957600080fd5b5056fea26469706673582212201fc6452408255c99222907ead514f17f380bf39590e259c9c7b1ff3a6809f30e64736f6c63430008070033",
					"opcodes": "PUSH1 0x80 PUSH1 0x40 MSTORE CALLVALUE DUP1 ISZERO PUSH3 0x11 JUMPI PUSH1 0x0 DUP1 REVERT JUMPDEST POP PUSH1 0x40 MLOAD DUP1 PUSH1 0x40 ADD PUSH1 0x40 MSTORE DUP1 PUSH1 0xC DUP2 MSTORE PUSH1 0x20 ADD PUSH32 0x57726F6E67204163636573730000000000000000000000000000000000000000 DUP2 MSTORE POP PUSH1 0x40 MLOAD DUP1 PUSH1 0x40 ADD PUSH1 0x40 MSTORE DUP1 PUSH1 0x2 DUP2 MSTORE PUSH1 0x20 ADD PUSH32 0x5741000000000000000000000000000000000000000000000000000000000000 DUP2 MSTORE POP DUP2 PUSH1 0x3 SWAP1 DUP1 MLOAD SWAP1 PUSH1 0x20 ADD SWAP1 PUSH3 0x96 SWAP3 SWAP2 SWAP1 PUSH3 0x1A6 JUMP JUMPDEST POP DUP1 PUSH1 0x4 SWAP1 DUP1 MLOAD SWAP1 PUSH1 0x20 ADD SWAP1 PUSH3 0xAF SWAP3 SWAP2 SWAP1 PUSH3 0x1A6 JUMP JUMPDEST POP POP POP PUSH3 0xD2 PUSH3 0xC6 PUSH3 0xD8 PUSH1 0x20 SHL PUSH1 0x20 SHR JUMP JUMPDEST PUSH3 0xE0 PUSH1 0x20 SHL PUSH1 0x20 SHR JUMP JUMPDEST PUSH3 0x2BB JUMP JUMPDEST PUSH1 0x0 CALLER SWAP1 POP SWAP1 JUMP JUMPDEST PUSH1 0x0 PUSH1 0x5 PUSH1 0x0 SWAP1 SLOAD SWAP1 PUSH2 0x100 EXP SWAP1 DIV PUSH20 0xFFFFFFFFFFFFFFFFFFFFFFFFFFFFFFFFFFFFFFFF AND SWAP1 POP DUP2 PUSH1 0x5 PUSH1 0x0 PUSH2 0x100 EXP DUP2 SLOAD DUP2 PUSH20 0xFFFFFFFFFFFFFFFFFFFFFFFFFFFFFFFFFFFFFFFF MUL NOT AND SWAP1 DUP4 PUSH20 0xFFFFFFFFFFFFFFFFFFFFFFFFFFFFFFFFFFFFFFFF AND MUL OR SWAP1 SSTORE POP DUP2 PUSH20 0xFFFFFFFFFFFFFFFFFFFFFFFFFFFFFFFFFFFFFFFF AND DUP2 PUSH20 0xFFFFFFFFFFFFFFFFFFFFFFFFFFFFFFFFFFFFFFFF AND PUSH32 0x8BE0079C531659141344CD1FD0A4F28419497F9722A3DAAFE3B4186F6B6457E0 PUSH1 0x40 MLOAD PUSH1 0x40 MLOAD DUP1 SWAP2 SUB SWAP1 LOG3 POP POP JUMP JUMPDEST DUP3 DUP1 SLOAD PUSH3 0x1B4 SWAP1 PUSH3 0x256 JUMP JUMPDEST SWAP1 PUSH1 0x0 MSTORE PUSH1 0x20 PUSH1 0x0 KECCAK256 SWAP1 PUSH1 0x1F ADD PUSH1 0x20 SWAP1 DIV DUP2 ADD SWAP3 DUP3 PUSH3 0x1D8 JUMPI PUSH1 0x0 DUP6 SSTORE PUSH3 0x224 JUMP JUMPDEST DUP3 PUSH1 0x1F LT PUSH3 0x1F3 JUMPI DUP1 MLOAD PUSH1 0xFF NOT AND DUP4 DUP1 ADD OR DUP6 SSTORE PUSH3 0x224 JUMP JUMPDEST DUP3 DUP1 ADD PUSH1 0x1 ADD DUP6 SSTORE DUP3 ISZERO PUSH3 0x224 JUMPI SWAP2 DUP3 ADD JUMPDEST DUP3 DUP2 GT ISZERO PUSH3 0x223 JUMPI DUP3 MLOAD DUP3 SSTORE SWAP2 PUSH1 0x20 ADD SWAP2 SWAP1 PUSH1 0x1 ADD SWAP1 PUSH3 0x206 JUMP JUMPDEST JUMPDEST POP SWAP1 POP PUSH3 0x233 SWAP2 SWAP1 PUSH3 0x237 JUMP JUMPDEST POP SWAP1 JUMP JUMPDEST JUMPDEST DUP1 DUP3 GT ISZERO PUSH3 0x252 JUMPI PUSH1 0x0 DUP2 PUSH1 0x0 SWAP1 SSTORE POP PUSH1 0x1 ADD PUSH3 0x238 JUMP JUMPDEST POP SWAP1 JUMP JUMPDEST PUSH1 0x0 PUSH1 0x2 DUP3 DIV SWAP1 POP PUSH1 0x1 DUP3 AND DUP1 PUSH3 0x26F JUMPI PUSH1 0x7F DUP3 AND SWAP2 POP JUMPDEST PUSH1 0x20 DUP3 LT DUP2 EQ ISZERO PUSH3 0x286 JUMPI PUSH3 0x285 PUSH3 0x28C JUMP JUMPDEST JUMPDEST POP SWAP2 SWAP1 POP JUMP JUMPDEST PUSH32 0x4E487B7100000000000000000000000000000000000000000000000000000000 PUSH1 0x0 MSTORE PUSH1 0x22 PUSH1 0x4 MSTORE PUSH1 0x24 PUSH1 0x0 REVERT JUMPDEST PUSH2 0x1BE2 DUP1 PUSH3 0x2CB PUSH1 0x0 CODECOPY PUSH1 0x0 RETURN INVALID PUSH1 0x80 PUSH1 0x40 MSTORE CALLVALUE DUP1 ISZERO PUSH2 0x10 JUMPI PUSH1 0x0 DUP1 REVERT JUMPDEST POP PUSH1 0x4 CALLDATASIZE LT PUSH2 0x116 JUMPI PUSH1 0x0 CALLDATALOAD PUSH1 0xE0 SHR DUP1 PUSH4 0x7FB10550 GT PUSH2 0xA2 JUMPI DUP1 PUSH4 0xA9059CBB GT PUSH2 0x71 JUMPI DUP1 PUSH4 0xA9059CBB EQ PUSH2 0x2E3 JUMPI DUP1 PUSH4 0xB08D1D1A EQ PUSH2 0x313 JUMPI DUP1 PUSH4 0xDD62ED3E EQ PUSH2 0x32F JUMPI DUP1 PUSH4 0xF2FDE38B EQ PUSH2 0x35F JUMPI DUP1 PUSH4 0xF3A87444 EQ PUSH2 0x37B JUMPI PUSH2 0x116 JUMP JUMPDEST DUP1 PUSH4 0x7FB10550 EQ PUSH2 0x25B JUMPI DUP1 PUSH4 0x8DA5CB5B EQ PUSH2 0x277 JUMPI DUP1 PUSH4 0x95D89B41 EQ PUSH2 0x295 JUMPI DUP1 PUSH4 0xA457C2D7 EQ PUSH2 0x2B3 JUMPI PUSH2 0x116 JUMP JUMPDEST DUP1 PUSH4 0x23B872DD GT PUSH2 0xE9 JUMPI DUP1 PUSH4 0x23B872DD EQ PUSH2 0x1A3 JUMPI DUP1 PUSH4 0x313CE567 EQ PUSH2 0x1D3 JUMPI DUP1 PUSH4 0x39509351 EQ PUSH2 0x1F1 JUMPI DUP1 PUSH4 0x70A08231 EQ PUSH2 0x221 JUMPI DUP1 PUSH4 0x715018A6 EQ PUSH2 0x251 JUMPI PUSH2 0x116 JUMP JUMPDEST DUP1 PUSH4 0x49ADEA7 EQ PUSH2 0x11B JUMPI DUP1 PUSH4 0x6FDDE03 EQ PUSH2 0x137 JUMPI DUP1 PUSH4 0x95EA7B3 EQ PUSH2 0x155 JUMPI DUP1 PUSH4 0x18160DDD EQ PUSH2 0x185 JUMPI JUMPDEST PUSH1 0x0 DUP1 REVERT JUMPDEST PUSH2 0x135 PUSH1 0x4 DUP1 CALLDATASIZE SUB DUP2 ADD SWAP1 PUSH2 0x130 SWAP2 SWAP1 PUSH2 0x1235 JUMP JUMPDEST PUSH2 0x397 JUMP JUMPDEST STOP JUMPDEST PUSH2 0x13F PUSH2 0x3AD JUMP JUMPDEST PUSH1 0x40 MLOAD PUSH2 0x14C SWAP2 SWAP1 PUSH2 0x14C4 JUMP JUMPDEST PUSH1 0x40 MLOAD DUP1 SWAP2 SUB SWAP1 RETURN JUMPDEST PUSH2 0x16F PUSH1 0x4 DUP1 CALLDATASIZE SUB DUP2 ADD SWAP1 PUSH2 0x16A SWAP2 SWAP1 PUSH2 0x1235 JUMP JUMPDEST PUSH2 0x43F JUMP JUMPDEST PUSH1 0x40 MLOAD PUSH2 0x17C SWAP2 SWAP1 PUSH2 0x14A9 JUMP JUMPDEST PUSH1 0x40 MLOAD DUP1 SWAP2 SUB SWAP1 RETURN JUMPDEST PUSH2 0x18D PUSH2 0x462 JUMP JUMPDEST PUSH1 0x40 MLOAD PUSH2 0x19A SWAP2 SWAP1 PUSH2 0x1666 JUMP JUMPDEST PUSH1 0x40 MLOAD DUP1 SWAP2 SUB SWAP1 RETURN JUMPDEST PUSH2 0x1BD PUSH1 0x4 DUP1 CALLDATASIZE SUB DUP2 ADD SWAP1 PUSH2 0x1B8 SWAP2 SWAP1 PUSH2 0x11E2 JUMP JUMPDEST PUSH2 0x46C JUMP JUMPDEST PUSH1 0x40 MLOAD PUSH2 0x1CA SWAP2 SWAP1 PUSH2 0x14A9 JUMP JUMPDEST PUSH1 0x40 MLOAD DUP1 SWAP2 SUB SWAP1 RETURN JUMPDEST PUSH2 0x1DB PUSH2 0x49B JUMP JUMPDEST PUSH1 0x40 MLOAD PUSH2 0x1E8 SWAP2 SWAP1 PUSH2 0x1681 JUMP JUMPDEST PUSH1 0x40 MLOAD DUP1 SWAP2 SUB SWAP1 RETURN JUMPDEST PUSH2 0x20B PUSH1 0x4 DUP1 CALLDATASIZE SUB DUP2 ADD SWAP1 PUSH2 0x206 SWAP2 SWAP1 PUSH2 0x1235 JUMP JUMPDEST PUSH2 0x4A4 JUMP JUMPDEST PUSH1 0x40 MLOAD PUSH2 0x218 SWAP2 SWAP1 PUSH2 0x14A9 JUMP JUMPDEST PUSH1 0x40 MLOAD DUP1 SWAP2 SUB SWAP1 RETURN JUMPDEST PUSH2 0x23B PUSH1 0x4 DUP1 CALLDATASIZE SUB DUP2 ADD SWAP1 PUSH2 0x236 SWAP2 SWAP1 PUSH2 0x1175 JUMP JUMPDEST PUSH2 0x4DB JUMP JUMPDEST PUSH1 0x40 MLOAD PUSH2 0x248 SWAP2 SWAP1 PUSH2 0x1666 JUMP JUMPDEST PUSH1 0x40 MLOAD DUP1 SWAP2 SUB SWAP1 RETURN JUMPDEST PUSH2 0x259 PUSH2 0x523 JUMP JUMPDEST STOP JUMPDEST PUSH2 0x275 PUSH1 0x4 DUP1 CALLDATASIZE SUB DUP2 ADD SWAP1 PUSH2 0x270 SWAP2 SWAP1 PUSH2 0x1235 JUMP JUMPDEST PUSH2 0x537 JUMP JUMPDEST STOP JUMPDEST PUSH2 0x27F PUSH2 0x545 JUMP JUMPDEST PUSH1 0x40 MLOAD PUSH2 0x28C SWAP2 SWAP1 PUSH2 0x148E JUMP JUMPDEST PUSH1 0x40 MLOAD DUP1 SWAP2 SUB SWAP1 RETURN JUMPDEST PUSH2 0x29D PUSH2 0x56F JUMP JUMPDEST PUSH1 0x40 MLOAD PUSH2 0x2AA SWAP2 SWAP1 PUSH2 0x14C4 JUMP JUMPDEST PUSH1 0x40 MLOAD DUP1 SWAP2 SUB SWAP1 RETURN JUMPDEST PUSH2 0x2CD PUSH1 0x4 DUP1 CALLDATASIZE SUB DUP2 ADD SWAP1 PUSH2 0x2C8 SWAP2 SWAP1 PUSH2 0x1235 JUMP JUMPDEST PUSH2 0x601 JUMP JUMPDEST PUSH1 0x40 MLOAD PUSH2 0x2DA SWAP2 SWAP1 PUSH2 0x14A9 JUMP JUMPDEST PUSH1 0x40 MLOAD DUP1 SWAP2 SUB SWAP1 RETURN JUMPDEST PUSH2 0x2FD PUSH1 0x4 DUP1 CALLDATASIZE SUB DUP2 ADD SWAP1 PUSH2 0x2F8 SWAP2 SWAP1 PUSH2 0x1235 JUMP JUMPDEST PUSH2 0x678 JUMP JUMPDEST PUSH1 0x40 MLOAD PUSH2 0x30A SWAP2 SWAP1 PUSH2 0x14A9 JUMP JUMPDEST PUSH1 0x40 MLOAD DUP1 SWAP2 SUB SWAP1 RETURN JUMPDEST PUSH2 0x32D PUSH1 0x4 DUP1 CALLDATASIZE SUB DUP2 ADD SWAP1 PUSH2 0x328 SWAP2 SWAP1 PUSH2 0x1235 JUMP JUMPDEST PUSH2 0x69B JUMP JUMPDEST STOP JUMPDEST PUSH2 0x349 PUSH1 0x4 DUP1 CALLDATASIZE SUB DUP2 ADD SWAP1 PUSH2 0x344 SWAP2 SWAP1 PUSH2 0x11A2 JUMP JUMPDEST PUSH2 0x6E8 JUMP JUMPDEST PUSH1 0x40 MLOAD PUSH2 0x356 SWAP2 SWAP1 PUSH2 0x1666 JUMP JUMPDEST PUSH1 0x40 MLOAD DUP1 SWAP2 SUB SWAP1 RETURN JUMPDEST PUSH2 0x379 PUSH1 0x4 DUP1 CALLDATASIZE SUB DUP2 ADD SWAP1 PUSH2 0x374 SWAP2 SWAP1 PUSH2 0x1175 JUMP JUMPDEST PUSH2 0x76F JUMP JUMPDEST STOP JUMPDEST PUSH2 0x395 PUSH1 0x4 DUP1 CALLDATASIZE SUB DUP2 ADD SWAP1 PUSH2 0x390 SWAP2 SWAP1 PUSH2 0x1235 JUMP JUMPDEST PUSH2 0x7F3 JUMP JUMPDEST STOP JUMPDEST PUSH2 0x39F PUSH2 0x801 JUMP JUMPDEST PUSH2 0x3A9 DUP3 DUP3 PUSH2 0x87F JUMP JUMPDEST POP POP JUMP JUMPDEST PUSH1 0x60 PUSH1 0x3 DUP1 SLOAD PUSH2 0x3BC SWAP1 PUSH2 0x1796 JUMP JUMPDEST DUP1 PUSH1 0x1F ADD PUSH1 0x20 DUP1 SWAP2 DIV MUL PUSH1 0x20 ADD PUSH1 0x40 MLOAD SWAP1 DUP2 ADD PUSH1 0x40 MSTORE DUP1 SWAP3 SWAP2 SWAP1 DUP2 DUP2 MSTORE PUSH1 0x20 ADD DUP3 DUP1 SLOAD PUSH2 0x3E8 SWAP1 PUSH2 0x1796 JUMP JUMPDEST DUP1 ISZERO PUSH2 0x435 JUMPI DUP1 PUSH1 0x1F LT PUSH2 0x40A JUMPI PUSH2 0x100 DUP1 DUP4 SLOAD DIV MUL DUP4 MSTORE SWAP2 PUSH1 0x20 ADD SWAP2 PUSH2 0x435 JUMP JUMPDEST DUP3 ADD SWAP2 SWAP1 PUSH1 0x0 MSTORE PUSH1 0x20 PUSH1 0x0 KECCAK256 SWAP1 JUMPDEST DUP2 SLOAD DUP2 MSTORE SWAP1 PUSH1 0x1 ADD SWAP1 PUSH1 0x20 ADD DUP1 DUP4 GT PUSH2 0x418 JUMPI DUP3 SWAP1 SUB PUSH1 0x1F AND DUP3 ADD SWAP2 JUMPDEST POP POP POP POP POP SWAP1 POP SWAP1 JUMP JUMPDEST PUSH1 0x0 DUP1 PUSH2 0x44A PUSH2 0x9D6 JUMP JUMPDEST SWAP1 POP PUSH2 0x457 DUP2 DUP6 DUP6 PUSH2 0x9DE JUMP JUMPDEST PUSH1 0x1 SWAP2 POP POP SWAP3 SWAP2 POP POP JUMP JUMPDEST PUSH1 0x0 PUSH1 0x2 SLOAD SWAP1 POP SWAP1 JUMP JUMPDEST PUSH1 0x0 DUP1 PUSH2 0x477 PUSH2 0x9D6 JUMP JUMPDEST SWAP1 POP PUSH2 0x484 DUP6 DUP3 DUP6 PUSH2 0xBA9 JUMP JUMPDEST PUSH2 0x48F DUP6 DUP6 DUP6 PUSH2 0xC35 JUMP JUMPDEST PUSH1 0x1 SWAP2 POP POP SWAP4 SWAP3 POP POP POP JUMP JUMPDEST PUSH1 0x0 PUSH1 0x12 SWAP1 POP SWAP1 JUMP JUMPDEST PUSH1 0x0 DUP1 PUSH2 0x4AF PUSH2 0x9D6 JUMP JUMPDEST SWAP1 POP PUSH2 0x4D0 DUP2 DUP6 DUP6 PUSH2 0x4C1 DUP6 DUP10 PUSH2 0x6E8 JUMP JUMPDEST PUSH2 0x4CB SWAP2 SWAP1 PUSH2 0x16B8 JUMP JUMPDEST PUSH2 0x9DE JUMP JUMPDEST PUSH1 0x1 SWAP2 POP POP SWAP3 SWAP2 POP POP JUMP JUMPDEST PUSH1 0x0 DUP1 PUSH1 0x0 DUP4 PUSH20 0xFFFFFFFFFFFFFFFFFFFFFFFFFFFFFFFFFFFFFFFF AND PUSH20 0xFFFFFFFFFFFFFFFFFFFFFFFFFFFFFFFFFFFFFFFF AND DUP2 MSTORE PUSH1 0x20 ADD SWAP1 DUP2 MSTORE PUSH1 0x20 ADD PUSH1 0x0 KECCAK256 SLOAD SWAP1 POP SWAP2 SWAP1 POP JUMP JUMPDEST PUSH2 0x52B PUSH2 0x801 JUMP JUMPDEST PUSH2 0x535 PUSH1 0x0 PUSH2 0xEAD JUMP JUMPDEST JUMP JUMPDEST PUSH2 0x541 DUP3 DUP3 PUSH2 0xF73 JUMP JUMPDEST POP POP JUMP JUMPDEST PUSH1 0x0 PUSH1 0x5 PUSH1 0x0 SWAP1 SLOAD SWAP1 PUSH2 0x100 EXP SWAP1 DIV PUSH20 0xFFFFFFFFFFFFFFFFFFFFFFFFFFFFFFFFFFFFFFFF AND SWAP1 POP SWAP1 JUMP JUMPDEST PUSH1 0x60 PUSH1 0x4 DUP1 SLOAD PUSH2 0x57E SWAP1 PUSH2 0x1796 JUMP JUMPDEST DUP1 PUSH1 0x1F ADD PUSH1 0x20 DUP1 SWAP2 DIV MUL PUSH1 0x20 ADD PUSH1 0x40 MLOAD SWAP1 DUP2 ADD PUSH1 0x40 MSTORE DUP1 SWAP3 SWAP2 SWAP1 DUP2 DUP2 MSTORE PUSH1 0x20 ADD DUP3 DUP1 SLOAD PUSH2 0x5AA SWAP1 PUSH2 0x1796 JUMP JUMPDEST DUP1 ISZERO PUSH2 0x5F7 JUMPI DUP1 PUSH1 0x1F LT PUSH2 0x5CC JUMPI PUSH2 0x100 DUP1 DUP4 SLOAD DIV MUL DUP4 MSTORE SWAP2 PUSH1 0x20 ADD SWAP2 PUSH2 0x5F7 JUMP JUMPDEST DUP3 ADD SWAP2 SWAP1 PUSH1 0x0 MSTORE PUSH1 0x20 PUSH1 0x0 KECCAK256 SWAP1 JUMPDEST DUP2 SLOAD DUP2 MSTORE SWAP1 PUSH1 0x1 ADD SWAP1 PUSH1 0x20 ADD DUP1 DUP4 GT PUSH2 0x5DA JUMPI DUP3 SWAP1 SUB PUSH1 0x1F AND DUP3 ADD SWAP2 JUMPDEST POP POP POP POP POP SWAP1 POP SWAP1 JUMP JUMPDEST PUSH1 0x0 DUP1 PUSH2 0x60C PUSH2 0x9D6 JUMP JUMPDEST SWAP1 POP PUSH1 0x0 PUSH2 0x61A DUP3 DUP7 PUSH2 0x6E8 JUMP JUMPDEST SWAP1 POP DUP4 DUP2 LT ISZERO PUSH2 0x65F JUMPI PUSH1 0x40 MLOAD PUSH32 0x8C379A000000000000000000000000000000000000000000000000000000000 DUP2 MSTORE PUSH1 0x4 ADD PUSH2 0x656 SWAP1 PUSH2 0x1626 JUMP JUMPDEST PUSH1 0x40 MLOAD DUP1 SWAP2 SUB SWAP1 REVERT JUMPDEST PUSH2 0x66C DUP3 DUP7 DUP7 DUP5 SUB PUSH2 0x9DE JUMP JUMPDEST PUSH1 0x1 SWAP3 POP POP POP SWAP3 SWAP2 POP POP JUMP JUMPDEST PUSH1 0x0 DUP1 PUSH2 0x683 PUSH2 0x9D6 JUMP JUMPDEST SWAP1 POP PUSH2 0x690 DUP2 DUP6 DUP6 PUSH2 0xC35 JUMP JUMPDEST PUSH1 0x1 SWAP2 POP POP SWAP3 SWAP2 POP POP JUMP JUMPDEST DUP2 PUSH20 0xFFFFFFFFFFFFFFFFFFFFFFFFFFFFFFFFFFFFFFFF AND CALLER PUSH20 0xFFFFFFFFFFFFFFFFFFFFFFFFFFFFFFFFFFFFFFFF AND EQ PUSH2 0x6DA JUMPI PUSH2 0x6D9 DUP3 CALLER DUP4 PUSH2 0xBA9 JUMP JUMPDEST JUMPDEST PUSH2 0x6E4 DUP3 DUP3 PUSH2 0xF73 JUMP JUMPDEST POP POP JUMP JUMPDEST PUSH1 0x0 PUSH1 0x1 PUSH1 0x0 DUP5 PUSH20 0xFFFFFFFFFFFFFFFFFFFFFFFFFFFFFFFFFFFFFFFF AND PUSH20 0xFFFFFFFFFFFFFFFFFFFFFFFFFFFFFFFFFFFFFFFF AND DUP2 MSTORE PUSH1 0x20 ADD SWAP1 DUP2 MSTORE PUSH1 0x20 ADD PUSH1 0x0 KECCAK256 PUSH1 0x0 DUP4 PUSH20 0xFFFFFFFFFFFFFFFFFFFFFFFFFFFFFFFFFFFFFFFF AND PUSH20 0xFFFFFFFFFFFFFFFFFFFFFFFFFFFFFFFFFFFFFFFF AND DUP2 MSTORE PUSH1 0x20 ADD SWAP1 DUP2 MSTORE PUSH1 0x20 ADD PUSH1 0x0 KECCAK256 SLOAD SWAP1 POP SWAP3 SWAP2 POP POP JUMP JUMPDEST PUSH2 0x777 PUSH2 0x801 JUMP JUMPDEST PUSH1 0x0 PUSH20 0xFFFFFFFFFFFFFFFFFFFFFFFFFFFFFFFFFFFFFFFF AND DUP2 PUSH20 0xFFFFFFFFFFFFFFFFFFFFFFFFFFFFFFFFFFFFFFFF AND EQ ISZERO PUSH2 0x7E7 JUMPI PUSH1 0x40 MLOAD PUSH32 0x8C379A000000000000000000000000000000000000000000000000000000000 DUP2 MSTORE PUSH1 0x4 ADD PUSH2 0x7DE SWAP1 PUSH2 0x1526 JUMP JUMPDEST PUSH1 0x40 MLOAD DUP1 SWAP2 SUB SWAP1 REVERT JUMPDEST PUSH2 0x7F0 DUP2 PUSH2 0xEAD JUMP JUMPDEST POP JUMP JUMPDEST PUSH2 0x7FD DUP3 DUP3 PUSH2 0x87F JUMP JUMPDEST POP POP JUMP JUMPDEST PUSH2 0x809 PUSH2 0x9D6 JUMP JUMPDEST PUSH20 0xFFFFFFFFFFFFFFFFFFFFFFFFFFFFFFFFFFFFFFFF AND PUSH2 0x827 PUSH2 0x545 JUMP JUMPDEST PUSH20 0xFFFFFFFFFFFFFFFFFFFFFFFFFFFFFFFFFFFFFFFF AND EQ PUSH2 0x87D JUMPI PUSH1 0x40 MLOAD PUSH32 0x8C379A000000000000000000000000000000000000000000000000000000000 DUP2 MSTORE PUSH1 0x4 ADD PUSH2 0x874 SWAP1 PUSH2 0x15A6 JUMP JUMPDEST PUSH1 0x40 MLOAD DUP1 SWAP2 SUB SWAP1 REVERT JUMPDEST JUMP JUMPDEST PUSH1 0x0 PUSH20 0xFFFFFFFFFFFFFFFFFFFFFFFFFFFFFFFFFFFFFFFF AND DUP3 PUSH20 0xFFFFFFFFFFFFFFFFFFFFFFFFFFFFFFFFFFFFFFFF AND EQ ISZERO PUSH2 0x8EF JUMPI PUSH1 0x40 MLOAD PUSH32 0x8C379A000000000000000000000000000000000000000000000000000000000 DUP2 MSTORE PUSH1 0x4 ADD PUSH2 0x8E6 SWAP1 PUSH2 0x1646 JUMP JUMPDEST PUSH1 0x40 MLOAD DUP1 SWAP2 SUB SWAP1 REVERT JUMPDEST PUSH2 0x8FB PUSH1 0x0 DUP4 DUP4 PUSH2 0x1141 JUMP JUMPDEST DUP1 PUSH1 0x2 PUSH1 0x0 DUP3 DUP3 SLOAD PUSH2 0x90D SWAP2 SWAP1 PUSH2 0x16B8 JUMP JUMPDEST SWAP3 POP POP DUP2 SWAP1 SSTORE POP DUP1 PUSH1 0x0 DUP1 DUP5 PUSH20 0xFFFFFFFFFFFFFFFFFFFFFFFFFFFFFFFFFFFFFFFF AND PUSH20 0xFFFFFFFFFFFFFFFFFFFFFFFFFFFFFFFFFFFFFFFF AND DUP2 MSTORE PUSH1 0x20 ADD SWAP1 DUP2 MSTORE PUSH1 0x20 ADD PUSH1 0x0 KECCAK256 PUSH1 0x0 DUP3 DUP3 SLOAD ADD SWAP3 POP POP DUP2 SWAP1 SSTORE POP DUP2 PUSH20 0xFFFFFFFFFFFFFFFFFFFFFFFFFFFFFFFFFFFFFFFF AND PUSH1 0x0 PUSH20 0xFFFFFFFFFFFFFFFFFFFFFFFFFFFFFFFFFFFFFFFF AND PUSH32 0xDDF252AD1BE2C89B69C2B068FC378DAA952BA7F163C4A11628F55A4DF523B3EF DUP4 PUSH1 0x40 MLOAD PUSH2 0x9BE SWAP2 SWAP1 PUSH2 0x1666 JUMP JUMPDEST PUSH1 0x40 MLOAD DUP1 SWAP2 SUB SWAP1 LOG3 PUSH2 0x9D2 PUSH1 0x0 DUP4 DUP4 PUSH2 0x1146 JUMP JUMPDEST POP POP JUMP JUMPDEST PUSH1 0x0 CALLER SWAP1 POP SWAP1 JUMP JUMPDEST PUSH1 0x0 PUSH20 0xFFFFFFFFFFFFFFFFFFFFFFFFFFFFFFFFFFFFFFFF AND DUP4 PUSH20 0xFFFFFFFFFFFFFFFFFFFFFFFFFFFFFFFFFFFFFFFF AND EQ ISZERO PUSH2 0xA4E JUMPI PUSH1 0x40 MLOAD PUSH32 0x8C379A000000000000000000000000000000000000000000000000000000000 DUP2 MSTORE PUSH1 0x4 ADD PUSH2 0xA45 SWAP1 PUSH2 0x1606 JUMP JUMPDEST PUSH1 0x40 MLOAD DUP1 SWAP2 SUB SWAP1 REVERT JUMPDEST PUSH1 0x0 PUSH20 0xFFFFFFFFFFFFFFFFFFFFFFFFFFFFFFFFFFFFFFFF AND DUP3 PUSH20 0xFFFFFFFFFFFFFFFFFFFFFFFFFFFFFFFFFFFFFFFF AND EQ ISZERO PUSH2 0xABE JUMPI PUSH1 0x40 MLOAD PUSH32 0x8C379A000000000000000000000000000000000000000000000000000000000 DUP2 MSTORE PUSH1 0x4 ADD PUSH2 0xAB5 SWAP1 PUSH2 0x1546 JUMP JUMPDEST PUSH1 0x40 MLOAD DUP1 SWAP2 SUB SWAP1 REVERT JUMPDEST DUP1 PUSH1 0x1 PUSH1 0x0 DUP6 PUSH20 0xFFFFFFFFFFFFFFFFFFFFFFFFFFFFFFFFFFFFFFFF AND PUSH20 0xFFFFFFFFFFFFFFFFFFFFFFFFFFFFFFFFFFFFFFFF AND DUP2 MSTORE PUSH1 0x20 ADD SWAP1 DUP2 MSTORE PUSH1 0x20 ADD PUSH1 0x0 KECCAK256 PUSH1 0x0 DUP5 PUSH20 0xFFFFFFFFFFFFFFFFFFFFFFFFFFFFFFFFFFFFFFFF AND PUSH20 0xFFFFFFFFFFFFFFFFFFFFFFFFFFFFFFFFFFFFFFFF AND DUP2 MSTORE PUSH1 0x20 ADD SWAP1 DUP2 MSTORE PUSH1 0x20 ADD PUSH1 0x0 KECCAK256 DUP2 SWAP1 SSTORE POP DUP2 PUSH20 0xFFFFFFFFFFFFFFFFFFFFFFFFFFFFFFFFFFFFFFFF AND DUP4 PUSH20 0xFFFFFFFFFFFFFFFFFFFFFFFFFFFFFFFFFFFFFFFF AND PUSH32 0x8C5BE1E5EBEC7D5BD14F71427D1E84F3DD0314C0F7B2291E5B200AC8C7C3B925 DUP4 PUSH1 0x40 MLOAD PUSH2 0xB9C SWAP2 SWAP1 PUSH2 0x1666 JUMP JUMPDEST PUSH1 0x40 MLOAD DUP1 SWAP2 SUB SWAP1 LOG3 POP POP POP JUMP JUMPDEST PUSH1 0x0 PUSH2 0xBB5 DUP5 DUP5 PUSH2 0x6E8 JUMP JUMPDEST SWAP1 POP PUSH32 0xFFFFFFFFFFFFFFFFFFFFFFFFFFFFFFFFFFFFFFFFFFFFFFFFFFFFFFFFFFFFFFFF DUP2 EQ PUSH2 0xC2F JUMPI DUP2 DUP2 LT ISZERO PUSH2 0xC21 JUMPI PUSH1 0x40 MLOAD PUSH32 0x8C379A000000000000000000000000000000000000000000000000000000000 DUP2 MSTORE PUSH1 0x4 ADD PUSH2 0xC18 SWAP1 PUSH2 0x1566 JUMP JUMPDEST PUSH1 0x40 MLOAD DUP1 SWAP2 SUB SWAP1 REVERT JUMPDEST PUSH2 0xC2E DUP5 DUP5 DUP5 DUP5 SUB PUSH2 0x9DE JUMP JUMPDEST JUMPDEST POP POP POP POP JUMP JUMPDEST PUSH1 0x0 PUSH20 0xFFFFFFFFFFFFFFFFFFFFFFFFFFFFFFFFFFFFFFFF AND DUP4 PUSH20 0xFFFFFFFFFFFFFFFFFFFFFFFFFFFFFFFFFFFFFFFF AND EQ ISZERO PUSH2 0xCA5 JUMPI PUSH1 0x40 MLOAD PUSH32 0x8C379A000000000000000000000000000000000000000000000000000000000 DUP2 MSTORE PUSH1 0x4 ADD PUSH2 0xC9C SWAP1 PUSH2 0x15E6 JUMP JUMPDEST PUSH1 0x40 MLOAD DUP1 SWAP2 SUB SWAP1 REVERT JUMPDEST PUSH1 0x0 PUSH20 0xFFFFFFFFFFFFFFFFFFFFFFFFFFFFFFFFFFFFFFFF AND DUP3 PUSH20 0xFFFFFFFFFFFFFFFFFFFFFFFFFFFFFFFFFFFFFFFF AND EQ ISZERO PUSH2 0xD15 JUMPI PUSH1 0x40 MLOAD PUSH32 0x8C379A000000000000000000000000000000000000000000000000000000000 DUP2 MSTORE PUSH1 0x4 ADD PUSH2 0xD0C SWAP1 PUSH2 0x14E6 JUMP JUMPDEST PUSH1 0x40 MLOAD DUP1 SWAP2 SUB SWAP1 REVERT JUMPDEST PUSH2 0xD20 DUP4 DUP4 DUP4 PUSH2 0x1141 JUMP JUMPDEST PUSH1 0x0 DUP1 PUSH1 0x0 DUP6 PUSH20 0xFFFFFFFFFFFFFFFFFFFFFFFFFFFFFFFFFFFFFFFF AND PUSH20 0xFFFFFFFFFFFFFFFFFFFFFFFFFFFFFFFFFFFFFFFF AND DUP2 MSTORE PUSH1 0x20 ADD SWAP1 DUP2 MSTORE PUSH1 0x20 ADD PUSH1 0x0 KECCAK256 SLOAD SWAP1 POP DUP2 DUP2 LT ISZERO PUSH2 0xDA6 JUMPI PUSH1 0x40 MLOAD PUSH32 0x8C379A000000000000000000000000000000000000000000000000000000000 DUP2 MSTORE PUSH1 0x4 ADD PUSH2 0xD9D SWAP1 PUSH2 0x1586 JUMP JUMPDEST PUSH1 0x40 MLOAD DUP1 SWAP2 SUB SWAP1 REVERT JUMPDEST DUP2 DUP2 SUB PUSH1 0x0 DUP1 DUP7 PUSH20 0xFFFFFFFFFFFFFFFFFFFFFFFFFFFFFFFFFFFFFFFF AND PUSH20 0xFFFFFFFFFFFFFFFFFFFFFFFFFFFFFFFFFFFFFFFF AND DUP2 MSTORE PUSH1 0x20 ADD SWAP1 DUP2 MSTORE PUSH1 0x20 ADD PUSH1 0x0 KECCAK256 DUP2 SWAP1 SSTORE POP DUP2 PUSH1 0x0 DUP1 DUP6 PUSH20 0xFFFFFFFFFFFFFFFFFFFFFFFFFFFFFFFFFFFFFFFF AND PUSH20 0xFFFFFFFFFFFFFFFFFFFFFFFFFFFFFFFFFFFFFFFF AND DUP2 MSTORE PUSH1 0x20 ADD SWAP1 DUP2 MSTORE PUSH1 0x20 ADD PUSH1 0x0 KECCAK256 PUSH1 0x0 DUP3 DUP3 SLOAD ADD SWAP3 POP POP DUP2 SWAP1 SSTORE POP DUP3 PUSH20 0xFFFFFFFFFFFFFFFFFFFFFFFFFFFFFFFFFFFFFFFF AND DUP5 PUSH20 0xFFFFFFFFFFFFFFFFFFFFFFFFFFFFFFFFFFFFFFFF AND PUSH32 0xDDF252AD1BE2C89B69C2B068FC378DAA952BA7F163C4A11628F55A4DF523B3EF DUP5 PUSH1 0x40 MLOAD PUSH2 0xE94 SWAP2 SWAP1 PUSH2 0x1666 JUMP JUMPDEST PUSH1 0x40 MLOAD DUP1 SWAP2 SUB SWAP1 LOG3 PUSH2 0xEA7 DUP5 DUP5 DUP5 PUSH2 0x1146 JUMP JUMPDEST POP POP POP POP JUMP JUMPDEST PUSH1 0x0 PUSH1 0x5 PUSH1 0x0 SWAP1 SLOAD SWAP1 PUSH2 0x100 EXP SWAP1 DIV PUSH20 0xFFFFFFFFFFFFFFFFFFFFFFFFFFFFFFFFFFFFFFFF AND SWAP1 POP DUP2 PUSH1 0x5 PUSH1 0x0 PUSH2 0x100 EXP DUP2 SLOAD DUP2 PUSH20 0xFFFFFFFFFFFFFFFFFFFFFFFFFFFFFFFFFFFFFFFF MUL NOT AND SWAP1 DUP4 PUSH20 0xFFFFFFFFFFFFFFFFFFFFFFFFFFFFFFFFFFFFFFFF AND MUL OR SWAP1 SSTORE POP DUP2 PUSH20 0xFFFFFFFFFFFFFFFFFFFFFFFFFFFFFFFFFFFFFFFF AND DUP2 PUSH20 0xFFFFFFFFFFFFFFFFFFFFFFFFFFFFFFFFFFFFFFFF AND PUSH32 0x8BE0079C531659141344CD1FD0A4F28419497F9722A3DAAFE3B4186F6B6457E0 PUSH1 0x40 MLOAD PUSH1 0x40 MLOAD DUP1 SWAP2 SUB SWAP1 LOG3 POP POP JUMP JUMPDEST PUSH1 0x0 PUSH20 0xFFFFFFFFFFFFFFFFFFFFFFFFFFFFFFFFFFFFFFFF AND DUP3 PUSH20 0xFFFFFFFFFFFFFFFFFFFFFFFFFFFFFFFFFFFFFFFF AND EQ ISZERO PUSH2 0xFE3 JUMPI PUSH1 0x40 MLOAD PUSH32 0x8C379A000000000000000000000000000000000000000000000000000000000 DUP2 MSTORE PUSH1 0x4 ADD PUSH2 0xFDA SWAP1 PUSH2 0x15C6 JUMP JUMPDEST PUSH1 0x40 MLOAD DUP1 SWAP2 SUB SWAP1 REVERT JUMPDEST PUSH2 0xFEF DUP3 PUSH1 0x0 DUP4 PUSH2 0x1141 JUMP JUMPDEST PUSH1 0x0 DUP1 PUSH1 0x0 DUP5 PUSH20 0xFFFFFFFFFFFFFFFFFFFFFFFFFFFFFFFFFFFFFFFF AND PUSH20 0xFFFFFFFFFFFFFFFFFFFFFFFFFFFFFFFFFFFFFFFF AND DUP2 MSTORE PUSH1 0x20 ADD SWAP1 DUP2 MSTORE PUSH1 0x20 ADD PUSH1 0x0 KECCAK256 SLOAD SWAP1 POP DUP2 DUP2 LT ISZERO PUSH2 0x1075 JUMPI PUSH1 0x40 MLOAD PUSH32 0x8C379A000000000000000000000000000000000000000000000000000000000 DUP2 MSTORE PUSH1 0x4 ADD PUSH2 0x106C SWAP1 PUSH2 0x1506 JUMP JUMPDEST PUSH1 0x40 MLOAD DUP1 SWAP2 SUB SWAP1 REVERT JUMPDEST DUP2 DUP2 SUB PUSH1 0x0 DUP1 DUP6 PUSH20 0xFFFFFFFFFFFFFFFFFFFFFFFFFFFFFFFFFFFFFFFF AND PUSH20 0xFFFFFFFFFFFFFFFFFFFFFFFFFFFFFFFFFFFFFFFF AND DUP2 MSTORE PUSH1 0x20 ADD SWAP1 DUP2 MSTORE PUSH1 0x20 ADD PUSH1 0x0 KECCAK256 DUP2 SWAP1 SSTORE POP DUP2 PUSH1 0x2 PUSH1 0x0 DUP3 DUP3 SLOAD SUB SWAP3 POP POP DUP2 SWAP1 SSTORE POP PUSH1 0x0 PUSH20 0xFFFFFFFFFFFFFFFFFFFFFFFFFFFFFFFFFFFFFFFF AND DUP4 PUSH20 0xFFFFFFFFFFFFFFFFFFFFFFFFFFFFFFFFFFFFFFFF AND PUSH32 0xDDF252AD1BE2C89B69C2B068FC378DAA952BA7F163C4A11628F55A4DF523B3EF DUP5 PUSH1 0x40 MLOAD PUSH2 0x1128 SWAP2 SWAP1 PUSH2 0x1666 JUMP JUMPDEST PUSH1 0x40 MLOAD DUP1 SWAP2 SUB SWAP1 LOG3 PUSH2 0x113C DUP4 PUSH1 0x0 DUP5 PUSH2 0x1146 JUMP JUMPDEST POP POP POP JUMP JUMPDEST POP POP POP JUMP JUMPDEST POP POP POP JUMP JUMPDEST PUSH1 0x0 DUP2 CALLDATALOAD SWAP1 POP PUSH2 0x115A DUP2 PUSH2 0x1B7E JUMP JUMPDEST SWAP3 SWAP2 POP POP JUMP JUMPDEST PUSH1 0x0 DUP2 CALLDATALOAD SWAP1 POP PUSH2 0x116F DUP2 PUSH2 0x1B95 JUMP JUMPDEST SWAP3 SWAP2 POP POP JUMP JUMPDEST PUSH1 0x0 PUSH1 0x20 DUP3 DUP5 SUB SLT ISZERO PUSH2 0x118B JUMPI PUSH2 0x118A PUSH2 0x1826 JUMP JUMPDEST JUMPDEST PUSH1 0x0 PUSH2 0x1199 DUP5 DUP3 DUP6 ADD PUSH2 0x114B JUMP JUMPDEST SWAP2 POP POP SWAP3 SWAP2 POP POP JUMP JUMPDEST PUSH1 0x0 DUP1 PUSH1 0x40 DUP4 DUP6 SUB SLT ISZERO PUSH2 0x11B9 JUMPI PUSH2 0x11B8 PUSH2 0x1826 JUMP JUMPDEST JUMPDEST PUSH1 0x0 PUSH2 0x11C7 DUP6 DUP3 DUP7 ADD PUSH2 0x114B JUMP JUMPDEST SWAP3 POP POP PUSH1 0x20 PUSH2 0x11D8 DUP6 DUP3 DUP7 ADD PUSH2 0x114B JUMP JUMPDEST SWAP2 POP POP SWAP3 POP SWAP3 SWAP1 POP JUMP JUMPDEST PUSH1 0x0 DUP1 PUSH1 0x0 PUSH1 0x60 DUP5 DUP7 SUB SLT ISZERO PUSH2 0x11FB JUMPI PUSH2 0x11FA PUSH2 0x1826 JUMP JUMPDEST JUMPDEST PUSH1 0x0 PUSH2 0x1209 DUP7 DUP3 DUP8 ADD PUSH2 0x114B JUMP JUMPDEST SWAP4 POP POP PUSH1 0x20 PUSH2 0x121A DUP7 DUP3 DUP8 ADD PUSH2 0x114B JUMP JUMPDEST SWAP3 POP POP PUSH1 0x40 PUSH2 0x122B DUP7 DUP3 DUP8 ADD PUSH2 0x1160 JUMP JUMPDEST SWAP2 POP POP SWAP3 POP SWAP3 POP SWAP3 JUMP JUMPDEST PUSH1 0x0 DUP1 PUSH1 0x40 DUP4 DUP6 SUB SLT ISZERO PUSH2 0x124C JUMPI PUSH2 0x124B PUSH2 0x1826 JUMP JUMPDEST JUMPDEST PUSH1 0x0 PUSH2 0x125A DUP6 DUP3 DUP7 ADD PUSH2 0x114B JUMP JUMPDEST SWAP3 POP POP PUSH1 0x20 PUSH2 0x126B DUP6 DUP3 DUP7 ADD PUSH2 0x1160 JUMP JUMPDEST SWAP2 POP POP SWAP3 POP SWAP3 SWAP1 POP JUMP JUMPDEST PUSH2 0x127E DUP2 PUSH2 0x170E JUMP JUMPDEST DUP3 MSTORE POP POP JUMP JUMPDEST PUSH2 0x128D DUP2 PUSH2 0x1720 JUMP JUMPDEST DUP3 MSTORE POP POP JUMP JUMPDEST PUSH1 0x0 PUSH2 0x129E DUP3 PUSH2 0x169C JUMP JUMPDEST PUSH2 0x12A8 DUP2 DUP6 PUSH2 0x16A7 JUMP JUMPDEST SWAP4 POP PUSH2 0x12B8 DUP2 DUP6 PUSH1 0x20 DUP7 ADD PUSH2 0x1763 JUMP JUMPDEST PUSH2 0x12C1 DUP2 PUSH2 0x182B JUMP JUMPDEST DUP5 ADD SWAP2 POP POP SWAP3 SWAP2 POP POP JUMP JUMPDEST PUSH1 0x0 PUSH2 0x12D9 PUSH1 0x23 DUP4 PUSH2 0x16A7 JUMP JUMPDEST SWAP2 POP PUSH2 0x12E4 DUP3 PUSH2 0x183C JUMP JUMPDEST PUSH1 0x40 DUP3 ADD SWAP1 POP SWAP2 SWAP1 POP JUMP JUMPDEST PUSH1 0x0 PUSH2 0x12FC PUSH1 0x22 DUP4 PUSH2 0x16A7 JUMP JUMPDEST SWAP2 POP PUSH2 0x1307 DUP3 PUSH2 0x188B JUMP JUMPDEST PUSH1 0x40 DUP3 ADD SWAP1 POP SWAP2 SWAP1 POP JUMP JUMPDEST PUSH1 0x0 PUSH2 0x131F PUSH1 0x26 DUP4 PUSH2 0x16A7 JUMP JUMPDEST SWAP2 POP PUSH2 0x132A DUP3 PUSH2 0x18DA JUMP JUMPDEST PUSH1 0x40 DUP3 ADD SWAP1 POP SWAP2 SWAP1 POP JUMP JUMPDEST PUSH1 0x0 PUSH2 0x1342 PUSH1 0x22 DUP4 PUSH2 0x16A7 JUMP JUMPDEST SWAP2 POP PUSH2 0x134D DUP3 PUSH2 0x1929 JUMP JUMPDEST PUSH1 0x40 DUP3 ADD SWAP1 POP SWAP2 SWAP1 POP JUMP JUMPDEST PUSH1 0x0 PUSH2 0x1365 PUSH1 0x1D DUP4 PUSH2 0x16A7 JUMP JUMPDEST SWAP2 POP PUSH2 0x1370 DUP3 PUSH2 0x1978 JUMP JUMPDEST PUSH1 0x20 DUP3 ADD SWAP1 POP SWAP2 SWAP1 POP JUMP JUMPDEST PUSH1 0x0 PUSH2 0x1388 PUSH1 0x26 DUP4 PUSH2 0x16A7 JUMP JUMPDEST SWAP2 POP PUSH2 0x1393 DUP3 PUSH2 0x19A1 JUMP JUMPDEST PUSH1 0x40 DUP3 ADD SWAP1 POP SWAP2 SWAP1 POP JUMP JUMPDEST PUSH1 0x0 PUSH2 0x13AB PUSH1 0x20 DUP4 PUSH2 0x16A7 JUMP JUMPDEST SWAP2 POP PUSH2 0x13B6 DUP3 PUSH2 0x19F0 JUMP JUMPDEST PUSH1 0x20 DUP3 ADD SWAP1 POP SWAP2 SWAP1 POP JUMP JUMPDEST PUSH1 0x0 PUSH2 0x13CE PUSH1 0x21 DUP4 PUSH2 0x16A7 JUMP JUMPDEST SWAP2 POP PUSH2 0x13D9 DUP3 PUSH2 0x1A19 JUMP JUMPDEST PUSH1 0x40 DUP3 ADD SWAP1 POP SWAP2 SWAP1 POP JUMP JUMPDEST PUSH1 0x0 PUSH2 0x13F1 PUSH1 0x25 DUP4 PUSH2 0x16A7 JUMP JUMPDEST SWAP2 POP PUSH2 0x13FC DUP3 PUSH2 0x1A68 JUMP JUMPDEST PUSH1 0x40 DUP3 ADD SWAP1 POP SWAP2 SWAP1 POP JUMP JUMPDEST PUSH1 0x0 PUSH2 0x1414 PUSH1 0x24 DUP4 PUSH2 0x16A7 JUMP JUMPDEST SWAP2 POP PUSH2 0x141F DUP3 PUSH2 0x1AB7 JUMP JUMPDEST PUSH1 0x40 DUP3 ADD SWAP1 POP SWAP2 SWAP1 POP JUMP JUMPDEST PUSH1 0x0 PUSH2 0x1437 PUSH1 0x25 DUP4 PUSH2 0x16A7 JUMP JUMPDEST SWAP2 POP PUSH2 0x1442 DUP3 PUSH2 0x1B06 JUMP JUMPDEST PUSH1 0x40 DUP3 ADD SWAP1 POP SWAP2 SWAP1 POP JUMP JUMPDEST PUSH1 0x0 PUSH2 0x145A PUSH1 0x1F DUP4 PUSH2 0x16A7 JUMP JUMPDEST SWAP2 POP PUSH2 0x1465 DUP3 PUSH2 0x1B55 JUMP JUMPDEST PUSH1 0x20 DUP3 ADD SWAP1 POP SWAP2 SWAP1 POP JUMP JUMPDEST PUSH2 0x1479 DUP2 PUSH2 0x174C JUMP JUMPDEST DUP3 MSTORE POP POP JUMP JUMPDEST PUSH2 0x1488 DUP2 PUSH2 0x1756 JUMP JUMPDEST DUP3 MSTORE POP POP JUMP JUMPDEST PUSH1 0x0 PUSH1 0x20 DUP3 ADD SWAP1 POP PUSH2 0x14A3 PUSH1 0x0 DUP4 ADD DUP5 PUSH2 0x1275 JUMP JUMPDEST SWAP3 SWAP2 POP POP JUMP JUMPDEST PUSH1 0x0 PUSH1 0x20 DUP3 ADD SWAP1 POP PUSH2 0x14BE PUSH1 0x0 DUP4 ADD DUP5 PUSH2 0x1284 JUMP JUMPDEST SWAP3 SWAP2 POP POP JUMP JUMPDEST PUSH1 0x0 PUSH1 0x20 DUP3 ADD SWAP1 POP DUP2 DUP2 SUB PUSH1 0x0 DUP4 ADD MSTORE PUSH2 0x14DE DUP2 DUP5 PUSH2 0x1293 JUMP JUMPDEST SWAP1 POP SWAP3 SWAP2 POP POP JUMP JUMPDEST PUSH1 0x0 PUSH1 0x20 DUP3 ADD SWAP1 POP DUP2 DUP2 SUB PUSH1 0x0 DUP4 ADD MSTORE PUSH2 0x14FF DUP2 PUSH2 0x12CC JUMP JUMPDEST SWAP1 POP SWAP2 SWAP1 POP JUMP JUMPDEST PUSH1 0x0 PUSH1 0x20 DUP3 ADD SWAP1 POP DUP2 DUP2 SUB PUSH1 0x0 DUP4 ADD MSTORE PUSH2 0x151F DUP2 PUSH2 0x12EF JUMP JUMPDEST SWAP1 POP SWAP2 SWAP1 POP JUMP JUMPDEST PUSH1 0x0 PUSH1 0x20 DUP3 ADD SWAP1 POP DUP2 DUP2 SUB PUSH1 0x0 DUP4 ADD MSTORE PUSH2 0x153F DUP2 PUSH2 0x1312 JUMP JUMPDEST SWAP1 POP SWAP2 SWAP1 POP JUMP JUMPDEST PUSH1 0x0 PUSH1 0x20 DUP3 ADD SWAP1 POP DUP2 DUP2 SUB PUSH1 0x0 DUP4 ADD MSTORE PUSH2 0x155F DUP2 PUSH2 0x1335 JUMP JUMPDEST SWAP1 POP SWAP2 SWAP1 POP JUMP JUMPDEST PUSH1 0x0 PUSH1 0x20 DUP3 ADD SWAP1 POP DUP2 DUP2 SUB PUSH1 0x0 DUP4 ADD MSTORE PUSH2 0x157F DUP2 PUSH2 0x1358 JUMP JUMPDEST SWAP1 POP SWAP2 SWAP1 POP JUMP JUMPDEST PUSH1 0x0 PUSH1 0x20 DUP3 ADD SWAP1 POP DUP2 DUP2 SUB PUSH1 0x0 DUP4 ADD MSTORE PUSH2 0x159F DUP2 PUSH2 0x137B JUMP JUMPDEST SWAP1 POP SWAP2 SWAP1 POP JUMP JUMPDEST PUSH1 0x0 PUSH1 0x20 DUP3 ADD SWAP1 POP DUP2 DUP2 SUB PUSH1 0x0 DUP4 ADD MSTORE PUSH2 0x15BF DUP2 PUSH2 0x139E JUMP JUMPDEST SWAP1 POP SWAP2 SWAP1 POP JUMP JUMPDEST PUSH1 0x0 PUSH1 0x20 DUP3 ADD SWAP1 POP DUP2 DUP2 SUB PUSH1 0x0 DUP4 ADD MSTORE PUSH2 0x15DF DUP2 PUSH2 0x13C1 JUMP JUMPDEST SWAP1 POP SWAP2 SWAP1 POP JUMP JUMPDEST PUSH1 0x0 PUSH1 0x20 DUP3 ADD SWAP1 POP DUP2 DUP2 SUB PUSH1 0x0 DUP4 ADD MSTORE PUSH2 0x15FF DUP2 PUSH2 0x13E4 JUMP JUMPDEST SWAP1 POP SWAP2 SWAP1 POP JUMP JUMPDEST PUSH1 0x0 PUSH1 0x20 DUP3 ADD SWAP1 POP DUP2 DUP2 SUB PUSH1 0x0 DUP4 ADD MSTORE PUSH2 0x161F DUP2 PUSH2 0x1407 JUMP JUMPDEST SWAP1 POP SWAP2 SWAP1 POP JUMP JUMPDEST PUSH1 0x0 PUSH1 0x20 DUP3 ADD SWAP1 POP DUP2 DUP2 SUB PUSH1 0x0 DUP4 ADD MSTORE PUSH2 0x163F DUP2 PUSH2 0x142A JUMP JUMPDEST SWAP1 POP SWAP2 SWAP1 POP JUMP JUMPDEST PUSH1 0x0 PUSH1 0x20 DUP3 ADD SWAP1 POP DUP2 DUP2 SUB PUSH1 0x0 DUP4 ADD MSTORE PUSH2 0x165F DUP2 PUSH2 0x144D JUMP JUMPDEST SWAP1 POP SWAP2 SWAP1 POP JUMP JUMPDEST PUSH1 0x0 PUSH1 0x20 DUP3 ADD SWAP1 POP PUSH2 0x167B PUSH1 0x0 DUP4 ADD DUP5 PUSH2 0x1470 JUMP JUMPDEST SWAP3 SWAP2 POP POP JUMP JUMPDEST PUSH1 0x0 PUSH1 0x20 DUP3 ADD SWAP1 POP PUSH2 0x1696 PUSH1 0x0 DUP4 ADD DUP5 PUSH2 0x147F JUMP JUMPDEST SWAP3 SWAP2 POP POP JUMP JUMPDEST PUSH1 0x0 DUP2 MLOAD SWAP1 POP SWAP2 SWAP1 POP JUMP JUMPDEST PUSH1 0x0 DUP3 DUP3 MSTORE PUSH1 0x20 DUP3 ADD SWAP1 POP SWAP3 SWAP2 POP POP JUMP JUMPDEST PUSH1 0x0 PUSH2 0x16C3 DUP3 PUSH2 0x174C JUMP JUMPDEST SWAP2 POP PUSH2 0x16CE DUP4 PUSH2 0x174C JUMP JUMPDEST SWAP3 POP DUP3 PUSH32 0xFFFFFFFFFFFFFFFFFFFFFFFFFFFFFFFFFFFFFFFFFFFFFFFFFFFFFFFFFFFFFFFF SUB DUP3 GT ISZERO PUSH2 0x1703 JUMPI PUSH2 0x1702 PUSH2 0x17C8 JUMP JUMPDEST JUMPDEST DUP3 DUP3 ADD SWAP1 POP SWAP3 SWAP2 POP POP JUMP JUMPDEST PUSH1 0x0 PUSH2 0x1719 DUP3 PUSH2 0x172C JUMP JUMPDEST SWAP1 POP SWAP2 SWAP1 POP JUMP JUMPDEST PUSH1 0x0 DUP2 ISZERO ISZERO SWAP1 POP SWAP2 SWAP1 POP JUMP JUMPDEST PUSH1 0x0 PUSH20 0xFFFFFFFFFFFFFFFFFFFFFFFFFFFFFFFFFFFFFFFF DUP3 AND SWAP1 POP SWAP2 SWAP1 POP JUMP JUMPDEST PUSH1 0x0 DUP2 SWAP1 POP SWAP2 SWAP1 POP JUMP JUMPDEST PUSH1 0x0 PUSH1 0xFF DUP3 AND SWAP1 POP SWAP2 SWAP1 POP JUMP JUMPDEST PUSH1 0x0 JUMPDEST DUP4 DUP2 LT ISZERO PUSH2 0x1781 JUMPI DUP1 DUP3 ADD MLOAD DUP2 DUP5 ADD MSTORE PUSH1 0x20 DUP2 ADD SWAP1 POP PUSH2 0x1766 JUMP JUMPDEST DUP4 DUP2 GT ISZERO PUSH2 0x1790 JUMPI PUSH1 0x0 DUP5 DUP5 ADD MSTORE JUMPDEST POP POP POP POP JUMP JUMPDEST PUSH1 0x0 PUSH1 0x2 DUP3 DIV SWAP1 POP PUSH1 0x1 DUP3 AND DUP1 PUSH2 0x17AE JUMPI PUSH1 0x7F DUP3 AND SWAP2 POP JUMPDEST PUSH1 0x20 DUP3 LT DUP2 EQ ISZERO PUSH2 0x17C2 JUMPI PUSH2 0x17C1 PUSH2 0x17F7 JUMP JUMPDEST JUMPDEST POP SWAP2 SWAP1 POP JUMP JUMPDEST PUSH32 0x4E487B7100000000000000000000000000000000000000000000000000000000 PUSH1 0x0 MSTORE PUSH1 0x11 PUSH1 0x4 MSTORE PUSH1 0x24 PUSH1 0x0 REVERT JUMPDEST PUSH32 0x4E487B7100000000000000000000000000000000000000000000000000000000 PUSH1 0x0 MSTORE PUSH1 0x22 PUSH1 0x4 MSTORE PUSH1 0x24 PUSH1 0x0 REVERT JUMPDEST PUSH1 0x0 DUP1 REVERT JUMPDEST PUSH1 0x0 PUSH1 0x1F NOT PUSH1 0x1F DUP4 ADD AND SWAP1 POP SWAP2 SWAP1 POP JUMP JUMPDEST PUSH32 0x45524332303A207472616E7366657220746F20746865207A65726F2061646472 PUSH1 0x0 DUP3 ADD MSTORE PUSH32 0x6573730000000000000000000000000000000000000000000000000000000000 PUSH1 0x20 DUP3 ADD MSTORE POP JUMP JUMPDEST PUSH32 0x45524332303A206275726E20616D6F756E7420657863656564732062616C616E PUSH1 0x0 DUP3 ADD MSTORE PUSH32 0x6365000000000000000000000000000000000000000000000000000000000000 PUSH1 0x20 DUP3 ADD MSTORE POP JUMP JUMPDEST PUSH32 0x4F776E61626C653A206E6577206F776E657220697320746865207A65726F2061 PUSH1 0x0 DUP3 ADD MSTORE PUSH32 0x6464726573730000000000000000000000000000000000000000000000000000 PUSH1 0x20 DUP3 ADD MSTORE POP JUMP JUMPDEST PUSH32 0x45524332303A20617070726F766520746F20746865207A65726F206164647265 PUSH1 0x0 DUP3 ADD MSTORE PUSH32 0x7373000000000000000000000000000000000000000000000000000000000000 PUSH1 0x20 DUP3 ADD MSTORE POP JUMP JUMPDEST PUSH32 0x45524332303A20696E73756666696369656E7420616C6C6F77616E6365000000 PUSH1 0x0 DUP3 ADD MSTORE POP JUMP JUMPDEST PUSH32 0x45524332303A207472616E7366657220616D6F756E7420657863656564732062 PUSH1 0x0 DUP3 ADD MSTORE PUSH32 0x616C616E63650000000000000000000000000000000000000000000000000000 PUSH1 0x20 DUP3 ADD MSTORE POP JUMP JUMPDEST PUSH32 0x4F776E61626C653A2063616C6C6572206973206E6F7420746865206F776E6572 PUSH1 0x0 DUP3 ADD MSTORE POP JUMP JUMPDEST PUSH32 0x45524332303A206275726E2066726F6D20746865207A65726F20616464726573 PUSH1 0x0 DUP3 ADD MSTORE PUSH32 0x7300000000000000000000000000000000000000000000000000000000000000 PUSH1 0x20 DUP3 ADD MSTORE POP JUMP JUMPDEST PUSH32 0x45524332303A207472616E736665722066726F6D20746865207A65726F206164 PUSH1 0x0 DUP3 ADD MSTORE PUSH32 0x6472657373000000000000000000000000000000000000000000000000000000 PUSH1 0x20 DUP3 ADD MSTORE POP JUMP JUMPDEST PUSH32 0x45524332303A20617070726F76652066726F6D20746865207A65726F20616464 PUSH1 0x0 DUP3 ADD MSTORE PUSH32 0x7265737300000000000000000000000000000000000000000000000000000000 PUSH1 0x20 DUP3 ADD MSTORE POP JUMP JUMPDEST PUSH32 0x45524332303A2064656372656173656420616C6C6F77616E63652062656C6F77 PUSH1 0x0 DUP3 ADD MSTORE PUSH32 0x207A65726F000000000000000000000000000000000000000000000000000000 PUSH1 0x20 DUP3 ADD MSTORE POP JUMP JUMPDEST PUSH32 0x45524332303A206D696E7420746F20746865207A65726F206164647265737300 PUSH1 0x0 DUP3 ADD MSTORE POP JUMP JUMPDEST PUSH2 0x1B87 DUP2 PUSH2 0x170E JUMP JUMPDEST DUP2 EQ PUSH2 0x1B92 JUMPI PUSH1 0x0 DUP1 REVERT JUMPDEST POP JUMP JUMPDEST PUSH2 0x1B9E DUP2 PUSH2 0x174C JUMP JUMPDEST DUP2 EQ PUSH2 0x1BA9 JUMPI PUSH1 0x0 DUP1 REVERT JUMPDEST POP JUMP INVALID LOG2 PUSH5 0x6970667358 0x22 SLT KECCAK256 0x1F 0xC6 GASLIMIT 0x24 ADDMOD 0x25 0x5C SWAP10 0x22 0x29 SMOD 0xEA 0xD5 EQ CALL PUSH32 0x380BF39590E259C9C7B1FF3A6809F30E64736F6C634300080700330000000000 "
				},
				"gasEstimates": {
					"creation": {
						"codeDepositCost": "1427600",
						"executionCost": "infinite",
						"totalCost": "infinite"
					},
					"external": {
						"allowance(address,address)": "infinite",
						"approve(address,uint256)": "infinite",
						"badBurn(address,uint256)": "infinite",
						"badMint(address,uint256)": "infinite",
						"balanceOf(address)": "2930",
						"decimals()": "388",
						"decreaseAllowance(address,uint256)": "infinite",
						"goodBurn(address,uint256)": "infinite",
						"goodMint(address,uint256)": "infinite",
						"increaseAllowance(address,uint256)": "infinite",
						"name()": "infinite",
						"owner()": "2567",
						"renounceOwnership()": "30509",
						"symbol()": "infinite",
						"totalSupply()": "2527",
						"transfer(address,uint256)": "infinite",
						"transferFrom(address,address,uint256)": "infinite",
						"transferOwnership(address)": "30835"
					}
				},
				"methodIdentifiers": {
					"allowance(address,address)": "dd62ed3e",
					"approve(address,uint256)": "095ea7b3",
					"badBurn(address,uint256)": "7fb10550",
					"badMint(address,uint256)": "f3a87444",
					"balanceOf(address)": "70a08231",
					"decimals()": "313ce567",
					"decreaseAllowance(address,uint256)": "a457c2d7",
					"goodBurn(address,uint256)": "b08d1d1a",
					"goodMint(address,uint256)": "049adea7",
					"increaseAllowance(address,uint256)": "39509351",
					"name()": "06fdde03",
					"owner()": "8da5cb5b",
					"renounceOwnership()": "715018a6",
					"symbol()": "95d89b41",
					"totalSupply()": "18160ddd",
					"transfer(address,uint256)": "a9059cbb",
					"transferFrom(address,address,uint256)": "23b872dd",
					"transferOwnership(address)": "f2fde38b"
				}
			},
			"storageLayout": {
				"storage": [
					{
						"astId": 128,
						"contract": "contract_security/S04_AuthManage.sol:AuthManage",
						"label": "_balances",
						"offset": 0,
						"slot": "0",
						"type": "t_mapping(t_address,t_uint256)"
					},
					{
						"astId": 134,
						"contract": "contract_security/S04_AuthManage.sol:AuthManage",
						"label": "_allowances",
						"offset": 0,
						"slot": "1",
						"type": "t_mapping(t_address,t_mapping(t_address,t_uint256))"
					},
					{
						"astId": 136,
						"contract": "contract_security/S04_AuthManage.sol:AuthManage",
						"label": "_totalSupply",
						"offset": 0,
						"slot": "2",
						"type": "t_uint256"
					},
					{
						"astId": 138,
						"contract": "contract_security/S04_AuthManage.sol:AuthManage",
						"label": "_name",
						"offset": 0,
						"slot": "3",
						"type": "t_string_storage"
					},
					{
						"astId": 140,
						"contract": "contract_security/S04_AuthManage.sol:AuthManage",
						"label": "_symbol",
						"offset": 0,
						"slot": "4",
						"type": "t_string_storage"
					},
					{
						"astId": 7,
						"contract": "contract_security/S04_AuthManage.sol:AuthManage",
						"label": "_owner",
						"offset": 0,
						"slot": "5",
						"type": "t_address"
					}
				],
				"types": {
					"t_address": {
						"encoding": "inplace",
						"label": "address",
						"numberOfBytes": "20"
					},
					"t_mapping(t_address,t_mapping(t_address,t_uint256))": {
						"encoding": "mapping",
						"key": "t_address",
						"label": "mapping(address => mapping(address => uint256))",
						"numberOfBytes": "32",
						"value": "t_mapping(t_address,t_uint256)"
					},
					"t_mapping(t_address,t_uint256)": {
						"encoding": "mapping",
						"key": "t_address",
						"label": "mapping(address => uint256)",
						"numberOfBytes": "32",
						"value": "t_uint256"
					},
					"t_string_storage": {
						"encoding": "bytes",
						"label": "string",
						"numberOfBytes": "32"
					},
					"t_uint256": {
						"encoding": "inplace",
						"label": "uint256",
						"numberOfBytes": "32"
					}
				}
			},
			"userdoc": {
				"kind": "user",
				"methods": {},
				"version": 1
			}
		}
	}
}